:020000040800F2
:10000000B0FF01200925000805390008093900085A
:10001000413900087D3900088139000800000000DE
:10002000000000000000000000000000AD790008A2
:1000300085390008000000003D7A00089D7A00081C
:1000400005250008052500080525000805250008E8
:1000500005250008052500080525000805250008D8
:1000600005250008052500080525000805250008C8
:1000700005250008052500080525000805250008B8
:1000800005250008052500080525000805250008A8
:1000900005250008052500080525000869660008F3
:1000A0000525000805250008052500080525000888
:1000B00005250008A93900080525000805250008C0
:1000C0000525000805250008052500080525000868
:1000D0000525000805250008052500080525000858
:1000E0000525000805250008052500080525000848
:1000F0000525000805250008052500080525000838
:1001000005250008B9BA00080525000805250008DE
:100110000525000805250008052500080525000817
:100120000525000805250008052500080525000807
:1001300005250008052500080525000805250008F7
:10014000052500080525000805250008893900084F
:1001500005250008052500080525000805250008D7
:1001600005250008052500080525000805250008C7
:1001700005250008052500080525000805250008B7
:10018000052500080525000830B4134A136883428A
:1001900001D21A46FAE7114654681519854203D16F
:1001A000686804445460104642688418A3420CD125
:1001B000094CA468A34206D05B681A4442600B68ED
:1001C0001B68036002E0036000E00360814218BF27
:1001D000086030BC704700BFE00D00202DE9F04101
:1001E000054604F051F94D4B9B6823BB4C4B13F073
:1001F000070F07D0D91D21F0070103F548435A1A0C
:100200000B4601E04FF4484244480360002141603E
:100210001A44083A22F00702826051601160D11A34
:1002200059601A603F4BC3F8641DC3F8681D4FF056
:100230000042C3F86C2D3B4BD3F86C7D3D425CD142
:10024000002D5CD0083515F0070F1CBF25F0070501
:100250000835002D55D0334BD3F8688D454552D81D
:100260002E4A146863689D4204D9236813B122465C
:100270001C46F7E7294B9B689C4246D016682368CA
:10028000136063685B1B102B10D9601910F0070F07
:1002900008D04FF0F00383F31188BFF36F8FBFF3E3
:1002A0004F8FFEE743606560FFF76EFF6268C2EB49
:1002B00008031C49C1F8683DD1F8641D8B423CBF5E
:1002C0001849C1F8643D3A4362600023236016F187
:1002D00008041BD0942021462A4600F083FD04F038
:1002E0007FF914F0070F15D04FF0F00383F3118856
:1002F000BFF36F8FBFF34F8FFEE7002406E00024AB
:1003000004E0002402E0002400E0002404F068F986
:1003100002F076FE2046BDE8F08100BFE00D00202F
:10032000EC0D002088C8002010B50446A0B350F89A
:10033000043C1A4AD2F86C2D1A4208D14FF0F0034F
:1003400083F31188BFF36F8FBFF34F8FFEE750F831
:10035000081C41B14FF0F00383F31188BFF36F8F96
:10036000BFF34F8FFEE723EA020340F8043C04F09A
:100370008BF854F8042C094BD3F8681D1144C3F8CA
:10038000681D96202146524200F02CFDA4F1080081
:10039000FFF7FAFE04F024F910BD00BF88C8002062
:1003A000C3684FF0FF325A60C3686FF080425A61F1
:1003B000C368014A9A6170470008008070B582B036
:1003C000054600230193032006F0E2FAEB681A6960
:1003D0000192144C032607E0304606F0D9FAEB6888
:1003E0001A690192013C19D0019A002AF4DA019AA3
:1003F00042F001020192019A1A61EB681B690193B4
:10040000084B04E0EA6812690192013B03D0019AAB
:1004100012F0010FF6D1032006F0BAFA002002B064
:1004200070BD00BF400D030010B4C4786CB9033335
:1004300000EB8200D0F8D0409B1006D0002251F88B
:10044000040B206001329342F9D100205DF8044B87
:10045000704700BF70B40332D0F8D060951009D057
:100460000A460023346842F8044B01339D42F9D117
:1004700001EB8501084670BC704700BF70B40023D3
:10048000C370012383704023838001290DD1012390
:10049000C37208230370042343704FF4A073C38016
:1004A000022303724FF0A0450CE051B90023C37240
:1004B0000C230370062343704FF4A063C380204DC8
:1004C00000E00025C56005F500630361467866B16C
:1004D00005F51062034600219A6102F500745C651F
:1004E0000131203204338E42F6D805F58063436132
:1004F00005F58863C0F8CC300678D6B1344605F5EA
:10050000A06102460023C2F890100133203104326A
:100510009C42F8D86EB105F5805305EB063101F524
:1005200080510246C2F8D03003F5805304328B422A
:10053000F8D105F56065C0F80C51002070BC70471B
:100540000000044038B504460025037A012B21D170
:10055000C268936B6FF31043417A09B143F480137F
:100560009363E268D3686FF386136FF396536FF368
:1005700051436FF3D343D3602046FFF71FFFE37867
:10058000012B25D1052363F3440545F02005E368DD
:100590009D6012E0C268D36843F04003D360FFF768
:1005A0000DFF637A002B0CBF4FF434134FF4741318
:1005B000E2689363142006F0F1F9E378012B07D188
:1005C000E3689D68052262F3440545F020059D60BF
:1005D000002038BDC3689A6842F001029A6000208A
:1005E000704700BFC3689A6822F001029A60002039
:1005F000704700BF00B583B000230193019B43F017
:1006000020030193019B61F38A130193C368019A4C
:100610001A61C3681B690193084B04E0C268126940
:100620000192013B03D0019A12F0200FF6D1032072
:1006300006F0AEF9002003B05DF804FB400D0300A6
:1006400000B583B000230193019B43F01003019395
:10065000C368019A1A61C3681B690193084B04E0DF
:10066000C26812690192013B03D0019A12F0100F87
:10067000F6D1032006F08CF9002003B05DF804FBEE
:10068000400D030008B5C268D3686FF35D736FF364
:100690009E73012902D143F0005302E009B943F0EF
:1006A0008043D360322006F079F9002008BD00BFF6
:1006B000C3685B6913F0010F14BF0020012070476D
:1006C000C368586900F00100704700BFC3685A69E9
:1006D00098691040704700BF43691A6861F30102CE
:1006E0001A607047D0F8CC30186820F02E007047A0
:1006F00043695869704700BF38B50546FFF7F2FFF8
:1007000040F48074D5F8CC301C600A2006F046F91D
:100710006FF30824D5F8CC301C60142006F03EF9A5
:10072000012038BD86B000EB8101D1F8902013681C
:1007300043F0404313F4802F07D1C168C96AC1F365
:10074000074149B96FF3DF7306E041690969C1F3F5
:10075000074109B96FF3DF731360002006B07047DB
:1007600010B400234FF00042012464F3DC4200EB9C
:100770008101D1F890000261D1F89020116841F018
:10078000004163F39E71116018465DF8044B704799
:1007900003691A6861F301021A60704738B50546AB
:1007A0000024C3689C61C3686FF080425A61FFF700
:1007B000F7FDEB78A34208BF102444F4701444F40E
:1007C000605444F00804EB689A6914439C6100206B
:1007D00038BD00BF70B5044600252E46D0F80C3158
:1007E0001D6003691A6865F3CC221A60C37A012B75
:1007F0001FD10321FFF7CCFFE26880235362C0F2D0
:10080000400563F30F05E2689562C02262F30F06AC
:1008100063F31F46E368C3F804614FF4A07363F306
:100820000F066FF31F46E368C3F80861E368C3F877
:100830000C6120461021FFF7DDFE2046FFF700FF88
:100840002269002313612269536122694FF0FF314D
:1008500091612269D3616378002B2ED02346002258
:100860001646FF2599690968C90F00290CBF0020A9
:100870004FF090409969086099690E6199698D609F
:100880000132617804339142ECD8B1B123460022A1
:100890001646FF25596D0968C90F00290CBF0020B5
:1008A0004FF09040596D0860596D0E61596D8D6023
:1008B0000132043361789142ECD823691A6942F419
:1008C00080721A61E378012B09D10323402262F37D
:1008D0008A0343F4803362F3594322691363204649
:1008E000FFF75CFF002070BD03699B68C3F3410301
:1008F000022B05D0032B05D0012B03D0032070471A
:1009000001207047022070470369996883691A685B
:10091000C1F34101022912BF6FF30A02032161F3FF
:100920000A021A6003695A6842F480725A60002011
:10093000704700BF30B400224B78012B09D10B78EF
:1009400000EB8304A469012505FA03F363F30F02A6
:1009500008E00B7800EB8304646D012505FA03F3CE
:1009600063F31F42236813F4004F0DD18D6865F3C4
:100970000A03CD7865F39343C98861F3995343F033
:10098000805343F4004323600369D9690A43DA6161
:10099000002030BC704700BF30B400231A464C78AA
:1009A000012C09D1097800EB8104A469012505FA1D
:1009B00001F161F30F0208E0097800EB8104646D36
:1009C000012505FA01F161F31F426FF3CF33236074
:1009D0000369D96921EA0202DA61002030BC70475C
:1009E00070B50B464A78012A53D10A7800EB82028F
:1009F00091690A6809695C692CB96FF312010124D5
:100A000064F3DC410DE064F312019D682C44013C69
:100A1000B4FBF5F565F3DC41DC78012C08BF64F329
:100A20005E711C7800EB8404A4692161C1780129FE
:100A300006D1197800EB81018C69196961610CE0BC
:100A4000D97801290CD0596999B101694D6B1C788D
:100A5000012606FA04F42C434C63D978012908D105
:100A60000169896811F4807F0CBF42F0005242F0A6
:100A7000805242F00442197800EB810189690A60D2
:100A8000DA78012A40D1D9681A789B8AFFF7CCFC22
:100A90003AE00A7800EB8202516D0A6809695C69E4
:100AA00034B99C6864F31201012464F3DC410CE066
:100AB0009D682C44013CB4FBF5F4C4F3090464F3D1
:100AC000DC4105FB04F565F312011C7800EB84049E
:100AD000646D2161C178012905D1197800EB81018C
:100AE0004C6D19696161D978012906D1597911B123
:100AF00042F0005201E042F0805242F004421B7882
:100B000000EB8300436D1A60002070BD30B482B0EA
:100B10004B78012B48D182691368146900944C69A1
:100B20006CB99DF800406FF306048DF800409DF805
:100B30000240012565F3C4048DF8024017E08D687A
:100B4000AC4207D94D619DF8004065F306048DF86D
:100B5000004005E09DF8005064F306058DF8005054
:100B60009DF80240012565F3C4048DF80240009C05
:100B70001461C478012C05D10C7800EB8404A569BC
:100B80000C696C6143F004431360C378002B48D1B7
:100B90004B69002B45D00369586B0A78012101FA93
:100BA00002F202435A633CE00B7800EB83035A6D78
:100BB0001368126900924A6972B98C689DF8002026
:100BC00064F306028DF800209DF80220012464F3EE
:100BD000C4028DF802200EE08C684C619DF8002064
:100BE00064F306028DF800209DF80220012464F3CE
:100BF000C4028DF802200A7800EB8202546D009A3C
:100C00002261C278012A05D10A7800EB8202546D74
:100C10000A69626143F004430A7800EB8200426D86
:100C20001360002002B030BC704700BF4B78012B2E
:100C30000CD10B7800EB830082691368002BB8BFDE
:100C400043F0804343F40013136007E00B7800EB9C
:100C50008300426D136843F4001313600020704753
:100C60004B78012B0B7800EB83000CBF8269426D3F
:100C700013686FF35553C9780239C9B2012998BF77
:100C800043F0805313600020704700BF03699A69E6
:100C9000D8691040000C704700EB81014B6D9B68D8
:100CA000026950691840704703699869DB69184008
:100CB00080B2704782B000230093C0238DF80330C8
:100CC0004FF00003012262F3C4038DF802301823B1
:100CD0008DF80030436D009A1A61C378012B08D15A
:100CE000436D00F2CC525A61436D1A684FF0802276
:100CF0001A6002B0704700BF38B504460D46FF28A1
:100D000008D04FF6FF73984204D00D4802F088F9DE
:100D1000284638BDAC4210D202F05AFA50B1012236
:100D2000027025EA0402C2F307214170120C4280CE
:100D300002F0B4FB04EA050038BD284638BD00BF08
:100D4000A4AC020870B5044600283DD01F4B1B68B8
:100D5000002B39D00F2803D91D4802F061F970BD6E
:100D60001C4B1B681BB11C4802F05AF970BDEFF315
:100D70001085012383F31088164B1A6801321A601C
:100D8000164B1B681B6BCBB100F12103DA10144921
:100D90008A5C03F0070342FA03F313F0010F0DD14D
:100DA0004FF6FF7002F08EFB064602F011FA28B1F2
:100DB000022202704680447002F070FB054B1A68F4
:100DC000013A1A6085F3108870BD00BF0000002052
:100DD000E0AC0208E0D7002020AD020854D7002084
:100DE000D0D700202DE9F84306460F46274B1B6855
:100DF000002B49D082EAE278A8EBE278EFF3108585
:100E0000012181F31088224C216801312160214C9D
:100E100021680A4422601B6B83B394F904300BB938
:100E200063795BBBFF2002F04DFB81464FF6FF70FC
:100E30004146FFF761FF804602F0CAF90446E8B177
:100E400080F8019000230370A0F8028002F026FBD6
:100E50004FF6FF703946FFF74FFF074602F0B8F92B
:100E600060B1478000224270721C0270267002F04E
:100E700015FB064B1A68074B1B681365044B1A6871
:100E8000013A1A6085F31088BDE8F88354D7002032
:100E9000E0D70020F8D50020F8B50446FE2803D995
:100EA0002A4802F0BDF8F8BD062903D9284802F007
:100EB000B7F8F8BD274B1B68581890F864009042AB
:100EC00003D2254802F0ACF8F8BD2448006818B1F8
:100ED000234802F0A5F8F8BD22488079002834D0D4
:100EE000EFF31085012080F310881C480668013656
:100EF00006601B6B1BB31B4B93F9043013B9194BE2
:100F00005B79E3B9D6B20846314604F03BFEB0B98E
:100F1000E308154AD25C04F0070342FA03F313F026
:100F2000010F0CD14FF6FF7002F0CCFA074602F029
:100F30004FF920B147800470467002F0AFFA074BBA
:100F40001A68013A1A6085F31088F8BD90AD02085E
:100F5000C4AD020854D7002008AE0208E0D7002034
:100F60004CAE0208F8D50020E4D700202DE9F0416E
:100F700004461E46FE2804D92F4802F051F8BDE869
:100F8000F081062904D92D4802F04AF8BDE8F08125
:100F90002B480068451895F86450954204D22948BA
:100FA00002F03EF8BDE8F081274B1B6823B12748CB
:100FB00002F036F8BDE8F081EFF31085012383F3EA
:100FC0001088214B1F6801371F60036B63B3204BF0
:100FD0009B794BB31E4B5B791BB11D4B93F90430CE
:100FE00013B3D7B20846394604F0CCFDE0B9E308A4
:100FF000184AD25C04F0070342FA03F313F0010F1E
:1010000012D1FF2002F05EFA8046FF203146FFF742
:1010100073FE064602F0DCF830B180F803800470FD
:101020004770867002F03AFA074B1A68013A1A6064
:1010300085F31088BDE8F08184AE0208BCAE0208DA
:1010400054D7002008AF0208E0D7002058AF0208AC
:10105000F8D50020E4D70020F8B504460E46FE2857
:1010600003D9224801F0DCFFF8BD214B1B681BB1FE
:10107000204801F0D5FFF8BDEFF31085012383F37D
:1010800010881B4B1A6801321A601B4B1B681B6BC4
:101090002BB31A4B9B7913B3184B5B791BB1174BCE
:1010A00093F90430DBB1E308154AD25C04F007037E
:1010B00042FA03F313F0010F11D1FF2002F002FAFC
:1010C00007464FF6FF703146FFF716FE064602F060
:1010D0007FF820B147700470468002F0DFF9044BBE
:1010E0001A68013A1A6085F31088F8BD90AF0208BB
:1010F000E0D70020E4AF020854D70020F8D5002044
:10110000E4D7002070B506460C46062903D91148DD
:1011100001F086FF70BD104B1D686B1893F86430AA
:10112000834203D20D4801F07BFF70BD2B6B83B16E
:1011300002F068F828448C30002102F0EFFA0546EE
:1011400002F046F828B1083404704670458002F079
:10115000A5F970BD1CB0020854D700206CB002087D
:1011600070B505460C46062903D91C4801F058FF06
:1011700070BD1B4B1B685A1892F86420824203D240
:10118000184801F04DFF70BD1B6B33B302F020F81F
:10119000064610B3032C0ED12846032102F032F884
:1011A0000F4B1B681A1992F86C201844024492F8ED
:1011B0008D3073700DE02846214602F023F8084B6D
:1011C0001B681A1992F86C201844024492F88C306B
:1011D00073701034347002F061F970BDB8B0020859
:1011E00054D7002010B1020838B504461546062829
:1011F00003D90E4801F014FF38BD0D4B1B680344A2
:1012000093F864308B4203D20A4801F009FF38BDDD
:101210000846214601F0F6FF054B1B681C4494F874
:101220006C201844024482F88D5038BD60B1020829
:1012300054D70020A8B1020810B50446062804D9E6
:101240000F4801F0EDFE002010BD0E4B1B6803445B
:1012500093F864308B4204D20B4801F0E1FE002089
:1012600010BD0846214601F0CDFF064B1B681C440B
:1012700094F86C201844024492F88D0010BD00BF11
:10128000E8B1020854D7002030B2020838B504464D
:101290001546062803D90E4801F0C2FE38BD0D4B95
:1012A0001B68034493F864308B4203D20A4801F070
:1012B000B7FE38BD0846214601F0A4FF054B1B6868
:1012C0001C4494F86C201844024482F88C5038BDB9
:1012D00070B2020854D70020B4B2020810B5044618
:1012E000062804D90F4801F09BFE002010BD0E4BCC
:1012F0001B68034493F864308B4204D20B4801F01E
:101300008FFE002010BD0846214601F07BFF064BF2
:101310001B681C4494F86C201844024492F88C001A
:1013200010BD00BFF0B2020854D7002034B3020849
:10133000F8B504460F2803D9254801F071FEF8BD21
:1013400000F12103DA1023498A5C03F0070342FA13
:1013500003F313F0010F14BF012100211E4B59713B
:10136000EFF31085012383F310881C4B1A680132B8
:101370001A60194B9B79834223D0194B1B681B6B56
:10138000FBB1F1B94FF6FF7002F09CF80746124B23
:101390009C7101F01DFF064698B103200E4B997910
:1013A000FFF79CFF01280CBF0723062333707780CB
:1013B00074700320084B99790122FFF767FF02F050
:1013C0006DF8064B1A68013A1A6085F31088F8BD6B
:1013D00070B30208D0D70020F8D50020E0D7002055
:1013E00054D7002008B50B4B1B6893F86730834235
:1013F00003D2094801F014FE08BD032101F002FFE9
:10140000044B1B6893F86F2018440244002382F8B1
:101410008C3008BD54D70020B4B30208836801396A
:101420000D2914D8DFE801F0090B0D0F1313131168
:101430000716160707070020704758687047986816
:101440007047D868704718697047986970474FF0BF
:10145000FF307047012070470129024818BF002063
:10146000704700BF70EF0208836800220A804A803C
:10147000DA68013A8A801B69013BCB80704700BF64
:101480000939072911D8DFE801F004120608100A0B
:101490000C0E0848704708487047084870470848CD
:1014A0007047084870470848704700207047074851
:1014B000704700BFC11500087115000859150008D4
:1014C00005150008F5140008D1140008A915000836
:1014D00000B583B0002301938DF8041002AB43F8EC
:1014E000082D806904216A4601F006F803B05DF812
:1014F00004FB00BF08B580690621002200F0FCFF54
:1015000008BD00BF08B580690521002200F0F4FF86
:1015100008BD00BF00B583B000910192806903212E
:101520006A4600F0E9FF03B05DF804FB38B50446F5
:10153000836853B91C201EF081FC0546A060236916
:101540009B68984718F0FEFFA861A068D0F10100E1
:1015500038BF002038BD00BF38B50546FFF7E6FFAD
:101560000446A8690121002200F0C6FF204338BDCF
:1015700070B582B005460C461646002300930193D1
:10158000FFF7D4FFAB686BB15A69002A08BF224647
:101590005A615C609E6000940196A86907216A46C2
:1015A00000F0AAFF02B070BD70B505460C461646A5
:1015B000FFF7BCFFAB6813B1DC601E615C6170BDFE
:1015C00030B583B004460D4600230193FFF7AEFF0C
:1015D000A3683BB11D6002AA42F8045DA069022124
:1015E00000F08AFF03B030BD08B5084611461A4620
:1015F00004F022FC08BD00BF10B50C461346084697
:101600001146224604F03CFC2E224FF000431A7093
:1016100003F580331A781B783223013BFDD1094B47
:101620001978C9B23223013BFDD1064B1A78D2B2E8
:101630003223013BFDD1034B18780B0243EA0243EE
:10164000184310BD00000180F8B507460D4614464A
:10165000FFF7D2FF06463B699B68984780EA06027F
:101660002846214604F0E8FBF8BD00BF2DE9F0470D
:101670000746894615461E46DDF820A0184B1B6814
:10168000DA6BD2F800801B7C13F0010F03D15545B3
:1016900023DC0F461DE055451FDC88460AE038462E
:1016A00021462A46FFF7D0FF0134A642F7DA01357A
:1016B000AA4512DBB145FADC4446F0E7204629464C
:1016C000424604F0B9FB0134A642F7DA0135AA45D7
:1016D00003DBB145FADC3C46F0E7BDE8F08700BF2C
:1016E0009003002000B583B000930B46FFF7BEFFC8
:1016F00003B05DF804FB00BF00B583B00092FFF7B4
:10170000B5FF03B05DF804FB2DE9F04F87B00490FE
:10171000039101931099DDF84CB0119B013B1F2BF5
:1017200000F2B582DFE813F034003000B3022C0081
:10173000B302B302B3022800B302B302B302B3028E
:10174000B302B302B3022400B302B302B302B30282
:10175000B302B302B302B302B302B302B302B302E1
:10176000B302B302B3022000002900F373828EE2B9
:10177000002900F351828AE2002900F3E78186E222
:10178000002900F3338182E2002900F381807EE2A8
:10179000002940F37C821746114405914FF0800ADE
:1017A000CDF800B0B946159AD2F800B0D2F804804E
:1017B000039E149B1E44AC4803681B7C03F0030388
:1017C000032B5CD8DFE803F002381D38019D149C20
:1017D000DDF800904AFA04F399F800201A403046E8
:1017E0003946002A0CBF5A46424604F025FB013414
:1017F000082C04BF09F1010900240136013DE9D19B
:101800003DE0019D149CDDF800904FF0000B99F82D
:1018100000204AFA04F31A4204D0304639464246C0
:1018200004F00AFB01360134082C04BF09F1010958
:101830005C46013DEBD122E0049803699B68984720
:101840008346019D149CDDF8008098F800204AFA38
:1018500004F31A420AD0049831464A46FFF7CCFEF8
:1018600080EA0B023046394604F0E6FA01360134CC
:10187000082C04BF08F101080024013DE5D1009ABD
:10188000129B1A4400920137059887428AD1FEE1E3
:10189000904611440491039B149A134403930593B7
:1018A000CDF800B0DDF854B000980578039F6E4A7B
:1018B00013681B7C13F0030302D0022B46D08AE08E
:1018C000BBF1000F22D0059F149C019EDDF800A003
:1018D0004FF0C009C4F103035B00C3F1060249FAEB
:1018E00002F22A4022FA03F3384641465BF82320ED
:1018F00004F0A2FA0134042C04D19AF801500AF140
:10190000010A00240137013EE4D164E0059F149CE4
:10191000019EDDF800A04FF0C009C4F103035B0095
:10192000C3F1060249FA02F22A4038464146DA403B
:1019300004F082FA0134042C04D19AF801500AF11F
:10194000010A00240137013EE7D144E0BBF1000F5A
:1019500022D0149C019EDDF800A04FF0C009C4F114
:1019600003035B00C3F1060249FA02F22A4032FA8D
:1019700003F305D0384641465BF8232004F05CFAB7
:1019800001370134042C04D19AF801500AF1010AFC
:101990000024013EE3D11EE0149C019EDDF800A06E
:1019A0004FF0C009C4F103035B00C3F1060249FA1A
:1019B00002F22A40DA4003D03846414604F03CFAAD
:1019C00001370134042C04D19AF801500AF1010ABC
:1019D0000024013EE6D1009B12980344009308F1D5
:1019E0000108049A90457FF45FAF50E1904651188A
:1019F00004910398149B184403900590CDF800B00F
:101A0000DDF854B0009A1578039F174803681B7CD3
:101A100013F0030302D0022B48D08CE0BBF1000F7F
:101A200024D0059F149C019EDDF800A04FF0F00922
:101A3000C4F101039B00C3F1040249FA02F22A40F7
:101A400022FA03F3384641465BF8232004F0F4F908
:101A50000134022C04D19AF801500AF1010A002441
:101A60000137013EE4D166E090030020059F149CFD
:101A7000019EDDF800A04FF0F009C4F101039B00C6
:101A8000C3F1040249FA02F22A4038464146DA40DC
:101A900004F0D2F90134022C04D19AF801500AF171
:101AA000010A00240137013EE7D144E0BBF1000FF9
:101AB00022D0149C019EDDF800A04FF0F009C4F183
:101AC00001039B00C3F1040249FA02F22A4032FAF0
:101AD00003F305D0384641465BF8232004F0ACF907
:101AE00001370134022C04D19AF801500AF1010A9D
:101AF0000024013EE3D11EE0149C019EDDF800A00D
:101B00004FF0F009C4F101039B00C3F1040249FA4C
:101B100002F22A40DA4003D03846414604F08CF9FC
:101B200001370134022C04D19AF801500AF1010A5C
:101B30000024013EE6D1009A129B1A44009208F15B
:101B40000108049880457FF45DAFA0E0154601EBE5
:101B50000209DFF84081039F3E46019A1644CDF802
:101B60000890B946159FD8F800301B7C13F003038A
:101B700002D0022B24D048E01FB9019B002B12DCBD
:101B800043E00198002840DD4C46C9EB0B0A1AF8E7
:101B900004302046294657F8232004F04DF901343B
:101BA000B442F4D131E04C46C9EB0B0A2046294639
:101BB0001AF8042004F040F90134B442F6D124E0CC
:101BC0001FB9019A002A13DC1FE0019B002B1CDDCA
:101BD0004C46C9EB0B0A1AF804302BB120462946B3
:101BE00057F8232004F028F90134B442F3D10CE073
:101BF0004C46C9EB0B0A1AF804201AB120462946B4
:101C000004F01AF90134B442F5D112988344013535
:101C1000029A9542A7D13AE0174601EB0209DDF896
:101C20000C80019B9844039EDDF848A00198002891
:101C30000BDDABF1020534462046394635F8022F5C
:101C400004F0FAF801344445F6D1D34401374F4546
:101C5000ECD11CE0174601EB0209DDF80C80019A7B
:101C60009044039EDDF848A0019B002B0BDDABF1F7
:101C7000040534462046394655F8042F04F0DCF8B4
:101C800001344445F6D1D34401374F45ECD107B078
:101C9000BDE8F08F9003002008B54FF400600121EB
:101CA00001F022FE4FF40060002101F01DFE08BD8E
:101CB00010B40B4A5368446881680C43C1680C43F4
:101CC00001680C430169214323F4FD4323F07F03A2
:101CD0000B43007D034353605DF8044B704700BF26
:101CE000002C0140014B1860704700BFA0802542C6
:101CF000014B1860704700BF002C0140024B186870
:101D000000F00300704700BF002C014010B40268CF
:101D1000094B9A60DA6822F4FF6222F007028468B5
:101D200041680C43C1682143006901430A43DA60FA
:101D30005DF8044B704700BF002C0140014B18694F
:101D4000C0B27047002C014082B000230193034BC6
:101D500003440193019B186802B07047142C0140A2
:101D600010B40268094B5A6242689A62DC6A24F035
:101D7000F704C2688168114302690A43406902435B
:101D80002243DA625DF8044B704700BF002C01402B
:101D9000014BD3F880007047002C0140014BC3F881
:101DA00080007047002C014021B1054BDA6B1043D5
:101DB000D8637047024BDA6B22EA0000D8637047A1
:101DC000002C0140034B5B6B18420CBF002001202C
:101DD000704700BF002C0140014B9863704700BF63
:101DE000002C0140034B5B6B18420CBF002001200C
:101DF000704700BF002C0140014B9863704700BF43
:101E0000002C014038B5044603681D2B02D0262B58
:101E10002CD02FE0406819490BF0E2FE606840F6D4
:101E20000B0113F01BFB054615490CF0A5F92846DC
:101E30006FF07F410CF038F9606840F60E0113F046
:101E40000DFB05460F490CF097F92846FF210CF0D1
:101E50002BF928460E210CF043F9606840F6120178
:101E600013F0FCFA4A210CF009FC38BD806813F02D
:101E7000BBF938BD15F0B2FD38BD00BF070707003C
:101E80000C10030854F4020800B583B013F024FBCF
:101E9000034600220092019203480921034A0FF0F1
:101EA000EFF803B05DF804FB30B40208051E00082B
:101EB0002DE9F04FADF2DC4D02F0F0FA0024ADF860
:101EC000D64405F083FD15A89849224607F09AFAF2
:101ED000A2A8974907F026FC964B1393FF2314936F
:101EE000079400E00134A2A80DA907F05DFC18B921
:101EF0009DF83D30002BF5D10794E1B209918E4C4D
:101F0000A61E079A16440D4690461CE00020414646
:101F100001F060F808F1FF33002B0BDDBDF8D6347B
:101F2000621E12F8011F814208BF0123B242F8D19C
:101F3000ADF8D634BDF8D63413B9E0553D4602E0CD
:101F40000023ADF8D6346F1EFFB2002DDED1099507
:101F50000024ADF8D64405F05BFD78481AF04AFE3F
:101F6000FFF792FF8146744B6D2283F8FC207522A7
:101F700083F8FD20732283F8FE20692283F8FF2076
:101F8000632283F800212F2283F801216C4B18680B
:101F900002F0B0F9484640F60B0113F05FFA0590E5
:101FA000484640F6120113F059FA484640F60A0135
:101FB00013F054FA484640F6080113F04FFA8046F1
:101FC000484640F6090113F049FA0746484640F6EC
:101FD000110113F043FA0646029401230693089474
:101FE00001940393DFF864A1DFF84CB10BF2011107
:101FF0000B9155E0002009F0A1FF05F0E7FCACA82B
:102000000BF5B4714FF480620DF2D64307F0CCFAB1
:1020100050BB20460CF05EFB0A90012009F09AFFAD
:10202000BDF8D6347BB10025464C0BF5B473585D32
:1020300009F09EFF236913F4807FFBD00135BDF8C2
:10204000D634AB42F1DC002009F084FF0A9BDAB2FF
:102050000B20114609F0BEFFBDF8D634B3F5806FF2
:10206000039938BF0121039109F0E4FF0AF00CF94C
:102070004FF47A7303FB00F00028B8BF0730C0109C
:10208000089A92FBF0F404200AF040F8642101FB66
:1020900000F1049891FBF4F10CF026FE05F0B8FC79
:1020A000DAF8103013F0100F19D1DAF8103013F0FD
:1020B000100FFAD0069B43B123490B8B9BB243F41C
:1020C00000730B830022069209E01F494B8B9BB2E1
:1020D00043F400734B8303F08DFE012206924046C9
:1020E0000FF0E2F930B140460FF0DEF90028FAD1E6
:1020F0000123039330460FF0D7F940B130460FF07B
:10210000D3F90028FAD1019981F0010101913846F3
:102110000FF0CAF9E0B138460FF0C6F90028FAD13D
:10212000029A023A029204F079FB14E008B902081C
:102130002CB5020800D60020000000680C1003082F
:10214000D4E00020000002400004024000100240E1
:10215000039B012B5ED105F039FC02990131079AEE
:10216000914208BF00210291404B1393FF23149327
:102170000BF265110B9B002203F8012F8B42FBD160
:10218000A2A83B4907F0CEFA02991BF801305BB1D7
:10219000099C0D46A2A80DA907F006FB0134E4B284
:1021A0001BF80530A342F5D1A2A80DA907F0FCFA4F
:1021B000D8B99DF83D30C3B105F02AFC139A1378C5
:1021C0004BB101320B9901F8013F139212F8013B18
:1021D000002BF8D109E006230BF1FC020DA91944EC
:1021E000C97899540133132BF6D109F03BFF05F060
:1021F000EDFBACA80BF1FC01012207F035F9AF9A19
:10220000089205F005FC05980BF581710BF082FF33
:1022100000230393282002F067FA484640F60B019A
:1022200013F01CF90590484640F6120113F016F918
:102230000446484640F60A0113F010F90490484657
:1022400040F6080113F00AF98046484640F60901B5
:1022500013F004F90746484640F6110113F0FEF862
:102260000646019900293FF41BAFC3E600D60020C3
:102270002CB5020808B504484FF4FA211DF0ACFF54
:1022800002481CF009FC08BD680500680813030833
:1022900008B5024824F09EF908BD00BF78B50208D1
:1022A00008B510B1012804D007E0064824F092F9DF
:1022B00008BD054824F08EF908BD044824F08AF9C9
:1022C00008BD00BF8CB50208A0B50208B4B502086D
:1022D00008B5024824F07EF908BD00BFCCB502085D
:1022E00008B5024824F076F908BD00BFE4B502083D
:1022F00008B5024824F06EF908BD00BFF8B5020821
:1023000008B5024824F066F908BD00BF0CB6020803
:1023100008B5024824F05EF908BD00BF20B60208E7
:1023200070B5044603681D2B5DD1406800210EF096
:10233000EBF9606840F6210113F090F805466068FB
:1023400040F6220113F08AF8064628460A210DF0CD
:10235000A9FE30460A210DF0A5FE284601210DF008
:1023600081FE304601210DF07DFE284601210DF051
:10237000B7FE304601210DF0B3FE052001210A46CB
:102380004FF47A630DF040F8184C20604FF47F4111
:102390000DF070F8284621680DF03CFE30462168AB
:1023A0000DF038FE05200221002232230DF02CF81A
:1023B00060604FF47F010DF05DF8284661680DF014
:1023C00029FE304661680DF025FE4FF47F004FF482
:1023D000FA71074A64230DF039F90146A0602846D6
:1023E0000DF0F0FD70BD15F0F9FA70BD00D70020BA
:1023F00010E4002000B583B013F06EF8034600220D
:102400000092019203480321034A0EF039FE03B003
:102410005DF804FB38B60208212300082DE9F843D3
:10242000FFF7E8FF044640F6210113F017F80646CF
:10243000204640F6220113F011F805464FF47F00C4
:102440004FF4FA71002213460DF000F91C4CA06005
:102450004FF47F404FF4FA71002213460DF0F6F866
:10246000E0603046A1680DF0ADFD2846E1680DF052
:10247000A9FD144B186801F03DFF4FF47A79A0468E
:1024800004F12207484602F02FF908F10E04002655
:102490004FF47A653046294600F09CFD24F8020F7F
:1024A000BC42F7D1D8F80800B8F910100DF01CF9AB
:1024B000D8F80C00B8F914100DF016F9E2E700BFD7
:1024C00000D70020D4E0002008B5094809490022BF
:1024D00013461CF0A1F900204FF4A071F02217F070
:1024E00095FD00204FF4A071F02217F075FD08BD96
:1024F000FCB302088042030801290CBF00204FF002
:10250000FF307047FEE700BF10B5124B124A9A42E7
:102510000DD2131D114CE41A24F0030404340023DB
:1025200010460F495A581A500433A342FAD10D48A5
:102530000D494FF000028842B8BF40F8042BFFF667
:10254000FAAFDFF82800016841F47001016000F083
:102550007DFC10BD2C0D0020000000202F0D002060
:10256000F4460308E00D0020B03F012088ED00E0B4
:1025700020230B80004870472000002010B504463F
:10258000812107F03BFC2046012107F037FC204663
:1025900009F08EFF002010BD10B50446FFF7EEFFD6
:1025A000204681214022022307F0FEFB2046012124
:1025B0004022022307F0F8FB204609F045FF0020E7
:1025C00010BD00BF70B506460C460B7813F06005D1
:1025D0003FD0202D61D14A78FE2A02D0FF2A23D095
:1025E00033E04A88D2B9CA88012A17D113F0800F84
:1025F00014D02B4B1B689B699847C0B2294B1870AD
:1026000030B130461946012209F0AEFE002545E002
:102610003046214604F006FA02253FE030462146C6
:1026200004F000FA022539E04A8842B9CA8832B972
:1026300013F0800F03D109F029FF00252EE030466A
:10264000214604F0EFF9022528E004F0EBF9022519
:1026500024E04B780A2B04D00B2B07D0012B1DD183
:1026600008E01149012209F07FFE17E04A880D4B6E
:102670005A7013E0097907F051FC3046217907F0D0
:10268000BDFBA1883046C9B24022022307F08CFB73
:102690003046217909F0C4FF00E00025284670BDCE
:1026A000AC0000204CD700204DD7002008B509F021
:1026B00021FF002008BD00BF08B509F039FF002048
:1026C00008BD00BF10B50446D0F8E8351B6998472F
:1026D000032384F81231002010BD00BF08B590F824
:1026E000123180F81331042380F81231D0F8E83524
:1026F000DB689847002008BD08B5D0F8E435DB69F1
:1027000003B19847002008BD08B5D0F8E4351B6A2E
:102710009847002008BD00BF08B5D0F8E4355B6AD3
:102720009847002008BD00BF10B504460021402294
:102730000B4607F039FB204680214022002307F09A
:1027400033FB012384F81231D4F8E8355B68A078B4
:102750009847002010BD00BF10B582B004466946FE
:1027600004F03EF99DF8001001F01F03012B08D082
:1027700013B1022B0AD00EE02046694604F060F93E
:102780000EE02046694604F0F9FA09E02046694661
:1027900004F010FB04E0204601F0800107F07EFB0E
:1027A000002002B010BD00BF10B504460A46002943
:1027B00048D190F81131022B38D1D0F83821D0F817
:1027C00024319A4211D9D21AC0F83821C17801298E
:1027D00004D1D0F828110B44C0F828312046D4F891
:1027E000281192B209F0D2FD20E0D0F83C21B2FBD2
:1027F000F3F103FB112161B993420AD8D0F84031BB
:102800009A4206D20A4609F0C1FD0023C4F84031BD
:102810000CE0D4F8E435DB682BB194F81221032ADC
:1028200001D120469847204609F0D4FD94F816318E
:10283000012B11D12369094A12685A60002384F8D8
:10284000163109E0D0F8E4355B692BB190F812112C
:10285000032901D111469847002010BD041301201F
:1028600010B504460A4659BB90F81131032B31D1FB
:10287000D0F89023D0F87C339A4214D9D21AC0F8F9
:102880009023C178012904D1D0F880131944C0F8ED
:1028900080139A4228BF1A462046D4F8801392B279
:1028A00009F07EFD16E0D0F8E4351B6923B190F8FD
:1028B0001221032A00D19847204609F07BFD09E048
:1028C000D0F8E4359B692BB190F81211032901D19E
:1028D00011469847002010BDF8B504460D4616462F
:1028E0001F4603F0F3FFC4F8E475069BC4F8E8350F
:1028F000C4F8EC652046294607F008FAD4F8E83514
:102900001B689847204604F02BF8F8BD10B5044624
:10291000D0F8E4351B689847D4F8E8359B689847A9
:10292000002010BD08B5D0F8E4355B68984700205A
:1029300008BD00BF08B505F049F806F0A3FF05F093
:1029400067F808BD10B501F0A9FD0A200421002296
:1029500004F0B4FB034B18604FF49674204619F052
:10296000DFFFFBE708E400200B4B4FF47A721A8577
:102970000122DA625A63198B89B241F06801198326
:10298000198C89B241F006011984198C89B211435E
:1029900019841A80704700BF000C0040384B4FF07C
:1029A000AC629A601A6842F480321A601A46136860
:1029B00013F4003FFBD040F20472324B1A60A3F5CF
:1029C0008063314A5A601A6842F080721A601A466F
:1029D000136813F0007FFBD0294A936843F4144333
:1029E00043F002039360936813F0080FFBD0274B6A
:1029F000D3F8882042F47002C3F88820204B1A6B69
:102A000042F001021A631A6B42F002021A631A6B57
:102A100042F004021A631A6B42F008021A631A6B3E
:102A200042F010021A631A6B42F020021A631A6B0A
:102A300042F040021A631A6C42F080521A641A6B18
:102A400042F480021A639A6B42F001029A631A6C94
:102A500042F008021A641A6C42F480021A645A6C3A
:102A600042F480425A641A6B42F480521A635A6BE1
:102A700042F040025A635A6C42F400625A64704752
:102A800000380240003C02400854400700ED00E0DE
:102A900008B54FF4407007F0EDF808BD2DE9F0419E
:102AA00082B0B34C236843F480532360A36843F49B
:102AB0004053A360636943F040036361236843F0BC
:102AC00002032360A36843F00303A36020460021B0
:102AD0000C2203F011F9236843F008032360A36874
:102AE00043F00C03A360204601210C2203F004F9FB
:102AF000236843F400732360A36843F44073A36026
:102B0000204604210C2203F0F7F8236843F4006305
:102B10002360A36843F44063A360204605210C2290
:102B200003F0EAF8236843F400432360A36843F406
:102B30004043A360204607210C2203F0DDF8236800
:102B400043F400032360A36843F44003A3602046DA
:102B50000B210C2203F0D0F8236843F000532360CC
:102B6000A36843F04053A36020460E210C2203F0DB
:102B7000C3F8236843F000432360A36843F0404355
:102B8000A36020460F210C2203F0B6F8794E33687B
:102B900043F400433360B36843F44043B3603046CA
:102BA00007210C2203F0A8F8336843F400333360A4
:102BB000B36843F44033B360304608210C2203F07D
:102BC0009BF8336843F400233360B36843F4402335
:102BD000B360304609210C2203F08EF8336843F4C9
:102BE00000133360B36843F44013B36030460A21E6
:102BF0000C2203F081F8604F3B6843F004033B6014
:102C00007B6843F002037B60BB6843F00C03BB604E
:102C10007B6943F002037B617B8B9BB243F0020331
:102C20007B833B6843F010033B60BB6843F0300399
:102C3000BB607B6943F004037B613B6843F00203A4
:102C40003B60BB6843F00303BB603B6A43F0020395
:102C50003B624A4D2B6843F480232B60AB6843F4FE
:102C60000023AB606B6943F400736B616B8B9BB2A9
:102C700043F400736B832B6843F040032B60AB6815
:102C800043F08003AB606B6943F008036B612B8BEF
:102C90009BB243F008032B83394B1A6842F480221D
:102CA0001A609A6842F400229A605A6942F40072EB
:102CB0005A615A8B92B242F400725A83336843F0DD
:102CC00010033360B36843F02003B360736943F0CB
:102CD0000403736130460221002203F007F8DFF895
:102CE000A480D8F8003043F04003C8F80030D8F88A
:102CF000083043F08003C8F80830D8F8143043F0A7
:102D00000803C8F81430B8F81A309BB243F008032F
:102D1000A8F81A30AB6843F04053AB60EB6843F05F
:102D20008053EB602B6843F400532B60AB6843F493
:102D30004053AB6028460621022202F0DDFFB36853
:102D400043F44073B360F36843F48073F360B36893
:102D500043F0C003B360F36843F04003F3602B68B3
:102D600043F400132B60AB6843F44013AB600BE0FB
:102D7000000C02400010024000000240000402402B
:102D8000001402400008024028460A21042202F0F2
:102D9000B3FF2B6843F400032B60AB6843F440039C
:102DA000AB6028460B21042202F0A6FFD8F80830B9
:102DB00043F48063C8F80830D8F80C3043F48063DB
:102DC000C8F80C304FF48073009300238DF8043062
:102DD0008DF807303846694602F03AFF638B9BB2A4
:102DE00043F04003638302B0BDE8F08130B58BB09F
:102DF0000024069407940894099406A801F038F872
:102E000000948DF8044001258DF805500294039438
:102E100004948DF81450684601F020F804F18044C1
:102E200004F590342046694600F0F0FF2046092161
:102E30002A46072301F03EF82046294601F084F88F
:102E40002046294601F02AF80BB030BD30B587B0D6
:102E500003F0BAF9FFF7A2FDFFF71AFEFFF71EFE17
:102E6000FFF782FD424B1A8B92B242F040021A8366
:102E700008F016FF02F06CFF02F0BCFF012006F024
:102E800071FE03F043FA03F037FB09F067F909F02C
:102E9000E9F809F0FFF8374B1B6913F0100F08D160
:102EA000354B009335480121354A364BFFF714FD69
:102EB000FEE703F06DFC04200FF0D6FC1BF078FE5B
:102EC000012011F023FE0EF0BBFC4FF480700121B5
:102ED00000F0EEFC0223049303228DF814208DF8F9
:102EE0001730294804A902F0B3FEFFF77FFF07233C
:102EF0000093264B0193002402940394244825490F
:102F00004FF48062234601F0DFF806250095224B3E
:102F1000019302940394214821494FF400722346FF
:102F200001F0D2F800951F4B0193029403941E48C0
:102F30001E494FF40072234601F0C6F81C4B009363
:102F40001C4814210122134600F0ACFD04461A4B24
:102F5000186040B101F0A2FA024600230093204617
:102F6000012100F0DDFD01F057FA002007B030BD6F
:102F7000000C02400010024004000020C0050120A7
:102F8000F800002040000020000402404CE0002037
:102F9000452900089CB60208D4E0002075560008B8
:102FA000A8B6020820EB0020BD590008B0B6020800
:102FB00035290008B8B602080CE400200122014BB4
:102FC0001A7070474ED700200122014B5A7070478B
:102FD0004ED7002070B506460D460124204606F067
:102FE000D7FD0028FAD006F0CDFD0446012006F0FA
:102FF000D9FDB4FBF5F305FB1340304470BD00BFB1
:1030000000B583B0054E002502240095019430469A
:1030100005210A22FF2303F039F8F6E7C0B60208BB
:1030200010B5014618B90E48FFF7FAFF10BD0D4B59
:10303000186818B90C48FFF7F3FF10BD00220263AF
:10304000084A526852B9074C616000F2DC705022A5
:1030500023F0CEFB23680122C3F8D42710BD00BFA4
:10306000D0B6020854D70020F8B602082DE9F84F70
:10307000504B1B68504A12681A44504B1A60504D0E
:10308000504C2C60204600214FF4BF5223F054FADC
:103090004FF0010363700223A3700323E3707023D6
:1030A00023714FF0710984F805904FF0720884F88D
:1030B00006807327E771F0232372F12666724FF0C2
:1030C000F20B84F80AB04FF0F30A84F80BA041F633
:1030D000A123A3810423A3734FF4BF5323614FF4AF
:1030E0007A73A3614FF0F033636502F0A5FC2868A2
:1030F0004FF0F133C0F824344FF44873C0F828344B
:103100000123C0F82C3400F5FA634FF07E521A60A8
:103110004FF0F233C0F8D83700F2DC702A49502261
:1031200023F066FB2B684FF0F332C3F82C280A21FA
:1031300041F2D47299540B2141F2D57299540C2169
:1031400041F2D67299540D2141F2D772995441F24D
:10315000D87203F8029041F2D97203F8028041F26A
:10316000DA729F54742141F2DB72995441F2DC729D
:103170009E5441F2DD7203F802B041F2DE7203F8B0
:1031800002A0F42141F2DF72995402F0ABFC2968ED
:103190000B7843B90B460C311A78013203F8012B36
:1031A0008B42F9D102E00948FFF73AFF06F002FD31
:1031B000BDE8F88F041000E054DC0020E82A01206C
:1031C00054D70020081301202CB7020840B702088A
:1031D00008B50A4B1B681A6B6AB1D869B0F57A7FDB
:1031E00004D30748FFF71CFF002008BD03EB800055
:1031F00000F5036008BD002008BD00BF54D70020C3
:103200006CB7020808B5062904D90F48FFF708FF74
:10321000002008BD30B10D4B1B685A1892F864208D
:10322000824204D20A48FFF7FBFE002008BD5A186C
:1032300092F87420013803EB4103B3F87C3002FBB1
:10324000003080B208BD00BF94B7020854D70020F8
:10325000D4B7020838B5062804D95648FFF7E0FE6F
:10326000002038BD544A02EB40031B8993671A447F
:1032700092F8402042B9504AD1185D1C02EB40023E
:10328000947D2A1B81F840204B4AD11891F84010B8
:1032900002EB4002928C9A4205D202F04BFCFFF7FF
:1032A000BFFE002038BD01339BB2434A02EB40040D
:1032B0002381E48A1B1B02EB4002528E934204DD01
:1032C0003D4A02EB4002DBB2538606286FD8DFE8A6
:1032D00000F0041426386E4A5C00374B03EBD10330
:1032E00001F00702012000FA02F293F87C0020EAC4
:1032F000020283F87C20084638BD01F10B022E4BF8
:1033000003EBE20302F00702012000FA02F293F855
:103310007C0020EA020283F87C20084638BD01F1D7
:103320001602254B03EBE20302F00702012000FA2C
:1033300002F293F87C0020EA020283F87C2008461F
:1033400038BD01F121021C4B03EBE20302F007023E
:10335000012000FA02F293F87C0020EA020283F8CE
:103360007C20084638BD01F13102134B03EBE20328
:1033700002F00702012000FA02F293F87C0020EA32
:10338000020283F87C20084638BD01F134020A4B62
:1033900003EBE20302F00702012000FA02F293F8C5
:1033A0007C0020EA020283F87C20084638BD0846EB
:1033B00038BD00BF14B8020854D7002010B5062845
:1033C00003D91448FFF72CFE10BD31B1124B1B6816
:1033D000034493F864308B4203D21048FFF720FE79
:1033E00010BD0D4B03EB40021289541E03EB40034A
:1033F000DB8A9C4203DA0A48FFF712FE10BD013A4D
:1034000092B2054B03EB400002811A4482F840104F
:1034100010BD00BF58B8020854D700209CB802085D
:10342000DCB8020838B5044615461AB91748FFF744
:10343000F7FD38BD062803D91548FFF7F1FD38BD63
:1034400019B91448FFF7ECFD38BD134B1B68034452
:1034500093F864308B4204D202F06CFBFFF7E0FD7E
:1034600038BD08462146FFF7CDFE0B4BA3F884007C
:103470005B684BB9084B1B68184423448C302946C1
:1034800093F86C2023F0B4F938BD00BF0CB90208E2
:103490003CB9020868B9020854D7002008B5084BA7
:1034A0001B681A6B52B15A6901325A61DA690132EA
:1034B000DA61B2F57A7F01D303F0B4F908BD00BF39
:1034C00054D7002030B583B0044600230193FF2871
:1034D00008D04FF6FF73984204D02848FFF7A0FDAC
:1034E000002049E001A806F099FB019A244BD3F88B
:1034F0008850551BC3F888201B68596AD9B18D4282
:103500000AD9B5FBF1F2D86A1044D86201FB125116
:10351000986A0844986202E09A6A2A449A62184BB0
:103520001B68996A5A6A914206D3D86A0130D862F8
:103530008A1A9A6200E09A62A5421BD9FFF748FEF8
:10354000C0B14FF6FF72944206D1A92202702A0C34
:103550004280002242700BE0FF2C06D1A8220270AC
:103560002A0A42802A0E427002E00648FFF758FD00
:10357000FFF794FF04EA050003B030BDECB9020880
:1035800054D700202CBA02082DE9F0479146244A6E
:10359000166801F56A7136F81140824628B921484B
:1035A000FFF73EFD0020BDE8F087B9F1000F03D022
:1035B00044B92046BDE8F0871B48FFF731FD0020E5
:1035C000BDE8F0874FEA1328DFB22546331993F898
:1035D0003234BB4212D1331993F8333443450DD101
:1035E000231DF2184A4492F830243AB904F23440C8
:1035F000304451464A4623F0A1F850B1354495F87D
:10360000314495F8303403EB0424A4B2002CDCD10F
:1036100002E02046BDE8F0872046BDE8F08700BF05
:1036200054D7002050BA02088CBA0208F8B51446E4
:10363000864620B92148FFF7F3FC0020F8BD22B9E7
:103640001F48FFF7EDFC0020F8BD1E4A1268D2F8B3
:103650002C542E1D3719B7F5487F04D31A48FFF7AD
:10366000DFFC0020F8BD01F56A7732F81710154429
:1036700085F83014090A85F8311485F832341B0AAC
:1036800085F8333406F5866010447146224623F0EF
:10369000AFF80C4B1B68D3F82C24A0181918002580
:1036A00081F8345423F817200530C3F82C04C4F5EE
:1036B0007F44FB34204480B2F8BD00BFC4BA020886
:1036C00000BB020854D7002038BB020838B518B92F
:1036D0000F48FFF7A5FC38BD19B90E48FFF7A0FC4D
:1036E00038BD1AB90C48FFF79BFC38BD037843B1CD
:1036F000002501241D44013410F8013F002BF9D1AD
:1037000001E00025012405F03F050D70147038BD5F
:1037100078BB0208ACBB0208DCBB020870B582B003
:103720000D4600228DF807208DF80620044620B9AA
:103730001948FFF775FC00202CE00DF106010DF192
:103740000702FFF7C3FFEFF31086012383F310880E
:10375000124AD2F88C300133C2F88C3020469DF8E2
:1037600006109DF807202B46FFF70EFF024640B9D2
:1037700020469DF806109DF807202B46FFF756FFC0
:103780000246064BD3F88C100139C3F88C1086F32F
:103790001088104602B070BD10BC020854D700203B
:1037A00010B4244B9B6803F00C03042B05D0082BAA
:1037B00006D003BB204B03601FE01F4B03601CE0DF
:1037C0001C4B59685A6802F03F0211F4800F08BF81
:1037D000184B5968C1F38811174BB3FBF2F303FB85
:1037E00001F3144A5268C2F3014201325200B3FBA2
:1037F000F2F3036001E0104B03600E498B68C3F3E2
:1038000003130E4AD35CDBB2046824FA03F343606B
:103810008C68C4F38224145DE4B223FA04F4846057
:103820008968C1F34231525CD2B2D340C3605DF8C3
:10383000044B7047003802400024F4009C00002034
:1038400021B1054B1A6B104318637047024B1A6B7A
:1038500022EA0000186370470038024021B1054B8E
:103860005A6B104358637047024B5A6B22EA0000B0
:10387000586370470038024021B1054B9A6B1043E2
:1038800098637047024B9A6B22EA00009863704776
:103890000038024021B1054B1A6C10431864704780
:1038A000024B1A6C22EA000018647047003802408C
:1038B00021B1054B5A6C104358647047024B5A6C47
:1038C00022EA0000586470470038024021B1054BDD
:1038D0001A6A104318627047024B1A6A22EA000003
:1038E000186270470038024021B1054B5A6A1043F4
:1038F00058627047024B5A6A22EA000058627047C9
:1039000000380240704700BF80B582B00A4F0025E2
:103910000A4E009502240194384604210922FF230F
:1039200002F0B4FB00950194304604210A22FF23E3
:1039300002F0ACFBEDE700BF40BC02084CBC020843
:1039400080B582B00B4F00250B4E009502240194E8
:103950003846042109224FF47F0302F097FB0095BB
:103960000194304604210A224FF47F0302F08EFBBB
:10397000EBE700BF58BC020864BC0208FEE700BFCA
:10398000FEE700BF704700BF08B50648FCF798FE89
:1039900018B1044809F0FCFF08BD024804F04EF9D4
:1039A00008BD00BFC005012008B502F0FDFF08BD3D
:1039B00010B504464160206191420AD8D21A81694B
:1039C0008A4211D20A4B1868211D02F0D1FB002057
:1039D00010BD9A4201D2994208D2054B5868211D68
:1039E00002F0C6FB002010BD012010BD012010BD5B
:1039F00008D8002070B503F0E9FF134B9B68FBB9B2
:103A0000114C04F10C06304602F096FB04F120053F
:103A1000284602F091FB666025600A200C210022F6
:103A200003F04CFBA06040B94FF0F00383F3118822
:103A3000BFF36F8FBFF34F8FFEE7044903F026FFFC
:103A400003F0E6FF70BD00BF08D8002074BC020878
:103A500000B585B0FFF7CEFF0E4B9B686BB10B2313
:103A600000930D4B01930023029303930B480C49E1
:103A70004FF4007200F028FB40B94FF0F00383F3DD
:103A80001188BFF36F8FBFF34F8FFEE705B05DF86E
:103A900004FB00BF08D800203CD80020893C000867
:103AA0007CBC02082DE9F041804616461D460F46B3
:103AB00049B32C20FCF792FB0446D8B1FFF79AFFDC
:103AC000C4F80080A761E6612562069B6362201D41
:103AD00002F03EFB0520FFF7BDFB0146A06205207A
:103AE0002268FFF79FFCB020052194F82820FDF7FD
:103AF000D3F911E0B9200521002393F82820FDF720
:103B0000CBF909E0FEE74FF0F00383F31188BFF330
:103B10006F8FBFF34F8FF5E72046BDE8F08100BF00
:103B2000F0B585B006460C4617462E498868002831
:103B300053D0019402920396052C0EDC00F0A2FFF4
:103B40000228284B986801A907BF0A9A002300227F
:103B5000134603F013FB054605E001A91A460023AE
:103B600003F0A0FC0546002C38DD042C0AD1012D01
:103B700014BFBD20B420052196F828203B46FDF750
:103B8000F5F92BE0052C19D1012D18BFB5201AD15C
:103B9000B520052196F82820FDF77EF996F8280033
:103BA0000521FDF7AFFA96F828000521FDF7D8FAB0
:103BB000052096F82810FFF701FC0FE004F1B00093
:103BC000012D00D101E0092300E000231844052164
:103BD00096F82820FDF760F900E00025284605B09A
:103BE000F0BD00BF08D800202DE9F04782B007469D
:103BF00000F054FC0646234B9B6B98423AD2214D71
:103C00004FF000082BE0D468D4F800A0E46804F179
:103C10000409484602F0C6FA636A20469847E369F9
:103C2000012B1CD1A3695344534506D96360246119
:103C30006868494602F09CFA11E0CDF80080204601
:103C4000414652464346FFF76BFF40B94FF0F00341
:103C500083F31188BFF36F8FBFF34F8FFEE76A685E
:103C60001468002CCFD1074B196859601A600123E2
:103C70003B6001E000233B60024B9E63304602B094
:103C8000BDE8F08708D800202DE9F04387B05D4CEF
:103C900000255D4F63681A68002A00F0A980DB6880
:103CA0001E6800F0F1FB03A8FFF79EFF8046039B10
:103CB000002B41D186422ED800F092FC6368DB686D
:103CC000D3F80C9009F1040002F06CFAD9F81C301A
:103CD000012B1AD1D9F818104846314442463346D0
:103CE000FFF766FE012810D1009548462946324666
:103CF0002B46FFF715FF40B94FF0F00383F311880F
:103D0000BFF36F8FBFF34F8FFEE7D9F824304846DB
:103D1000984764E02E46A068C8EB060103F0E0FD7A
:103D200000F05EFC00285AD14FF080533B60BFF397
:103D30004F8FBFF36F8F52E000F052FC4FE00398BB
:103D400000284CDB059E736913B1301D02F02AFA7E
:103D500002A8FFF749FF0346039909293FD8DFE886
:103D600001F00505053E293B05053E29DDF810E07B
:103D7000B169304671441A467346FFF719FE0128AF
:103D80002DD1736A30469847F369012B27D1B26968
:103D9000009530462946049B1A442B46FFF7C0FE87
:103DA000E8B94FF0F00383F31188BFF36F8FBFF3CF
:103DB0004F8FFEE70499B16141B94FF0F00383F3EF
:103DC0001188BFF36F8FBFF34F8FFEE73046194462
:103DD0001A46FFF7EDFD02E03046FCF7A5FAA068B1
:103DE00003A92A462B4603F0F7FB0028A7D151E789
:103DF00000F04AFB03A8FFF7F7FE8046039B002B69
:103E000088D099E708D8002004ED00E010B443689A
:103E100023F0407323F480730A6813430A7943EA5A
:103E2000022343608468CA680B691A438B681A438B
:103E3000094B234013434A7943EA42038360C26A31
:103E400022F470020B7D013BDBB242EA0353C362F2
:103E50005DF8044B704700BFFDF7FFC0002303600F
:103E6000037143718360C36003610123037570476D
:103E700010B4084A5168084B0B40446801680C4371
:103E800081682143C06801430B4353605DF8044BD4
:103E9000704700BF00230140E030FCFF21B1836880
:103EA00043F0010383607047836823F0010383605C
:103EB000704700BF70B409290ED9C668A1F10A0481
:103EC00004EB44040725A54026EA050503FA04F49B
:103ED00045EA0403C3600BE0066901EB41040725D2
:103EE000A54026EA050503FA04F445EA0403036144
:103EF000062A0CD8446B013A02EB82021F2393403E
:103F000024EA030301FA02F21A4342631AE00C2A7C
:103F10000CD8046B073A02EB82021F23934024EA79
:103F2000030301FA02F21A4302630BE0C46A0D3A7A
:103F300002EB82021F23934024EA030301FA02F2F8
:103F40001A43C26270BC704721B1836843F4806336
:103F500083607047836823F480638360704700BF89
:103F6000002070470020704700B583B031238DF8E2
:103F7000043000238DF805308DF8063001238DF8CC
:103F8000073001A805F080FE07F0F6FC003018BFEE
:103F90000120404203B05DF804FB00BF38B50C4679
:103FA000154607F013FC58B94FF400732B60064B0D
:103FB000D3E91201420A42EAC1522260002000E025
:103FC000FF2040B238BD00BF780D002008B50A4B75
:103FD00093F90030002B04DA07F0CEFC0022064BE8
:103FE0001A7007F0F3FB18B1FF20034B187000E0C4
:103FF000002040B208BD00BF44D8002000B583B007
:104000004FF40070009001930846002306F044FF2F
:1040100020B907F0DBFB0028FBD101E0FF2000E026
:10402000002040B203B05DF804FB00BF00B583B0D0
:104030004FF40070009001930846002307F0D6F873
:1040400020B907F0C3FB0028FBD101E0FF2000E00E
:10405000002040B203B05DF804FB00BF084B9B6A30
:104060001B6823B94FF0FF32064B1A607047044BB0
:104070009B6ADB68DB685A68024B1A60704700BFB6
:104080004CD80020D000002010B504460C4BDA6A52
:1040900050601B6B984206D2094B586BD96A0431A9
:1040A00002F066F810BD064B986AD96A043102F036
:1040B0005FF8044B1B689C423CBF024B1C6010BD68
:1040C0004CD80020D00000202DE9F84F0F46904634
:1040D00099460A9D0C9E824640B94FF0F00383F347
:1040E0001188BFF36F8FBFF34F8FFEE70B2D08D9F9
:1040F0004FF0F00383F31188BFF36F8FBFF34F8F3F
:10410000FEE736B99000FCF769F80646002800F093
:10411000A0805C20FCF762F80446A8B10663304634
:10412000A5214FEA880222F007FA08F1804808F139
:10413000FF38236B03EB880323F0070B3B7884F8ED
:1041400034303B7823B90FE03046FCF7EDF880E0DF
:1041500001233A4617F8010FE11881F8340052782C
:1041600012B10133102BF4D1002684F843600B2DDB
:1041700034BF2F460B27E762E764266504F1040885
:10418000404601F0E5FF04F1180001F0E1FF246171
:10419000C7F10C07A7616462666584F858605846E9
:1041A00051464A4603F0EEFB20600B9B03B11C60B6
:1041B00003F00CFC4D4B9A6B01329A63DB6A4BBBEC
:1041C0004A4BDC629B6B012B4CD1484B03F13C0604
:1041D00003F59677304601F0AFFF1436BE42F9D1B1
:1041E000424E06F59679484601F0A6FF06F5A077FF
:1041F000384601F0A1FF06F1140001F09DFF06F51D
:10420000AA7001F099FF304601F096FFC6F8289099
:10421000776327E0354BD3F868311BBB334BDB6A40
:10422000DB6A9D421ED3314BDC621BE02F4BDB6A05
:10423000DB6A9D420AD94FF080522D4B1A60BFF3C2
:104240004F8FBFF36F8F0120BDE8F88F0120BDE8CD
:10425000F88F432003210022FCF71EFE4FF0FF30B1
:10426000BDE8F88F214ED6F86C310133C6F86C31B9
:1042700063640320FEF7EEFFA064204601F0D2FB4A
:104280000146032004F13402FFF7CCF8204601F088
:10429000C9FB0146032094F82C20FCF7A5FF20461B
:1042A00001F0C0FB02461B200321FCF7F5FD204670
:1042B00001F0B8FBFCF746FDE36AD6F87021012156
:1042C00099400A43C6F8702106F13C0003EB8303D2
:1042D00000EB8300414601F03FFF03F099FBD6F865
:1042E0006831002BA2D10120BDE8F88F4CD8002006
:1042F00004ED00E070B5044603F068FB0CB9444BD4
:10430000DC6A261D304601F04DFF88B9E36A03EBF5
:1043100083013F4A02EB8102D26B4AB93C4AD2F890
:104320007011012000FA03F321EA0303C2F870318F
:10433000A36A1BB104F1180001F034FF344D05F5F8
:10434000AA70314601F008FFD5F874310133C5F881
:104350007431D5F86C310133C5F86C31EFF3108549
:10436000012383F31088204601F05CFB0246832082
:104370000321FCF791FD204601F054FB0321FCF7DB
:10438000C1FE204601F04EFB0321FCF7E9FE20466A
:1043900001F048FB0146032094F82C20FCF724FF91
:1043A000204601F03FFB014603200022FCF76EFF90
:1043B000204601F037FB01460320FEF7FFFF85F39F
:1043C000108803F025FB124BD3F86831FBB1104B7A
:1043D000DB6A9C4215D10E4BD3F8783143B14FF0D4
:1043E000F00383F31188BFF36F8FBFF34F8FFEE7A6
:1043F0004FF08052074B1A60BFF34F8FBFF36F8FA0
:1044000070BD03F0E3FAFFF729FE03F001FB70BD76
:104410004CD8002004ED00E000B585B000230093E7
:10442000019302930393154815494FF40072FFF767
:104430004BFE012814D1FFF70BFB012810D14FF0E0
:10444000F00383F31188BFF36F8FBFF34F8F0D4BD2
:104450000122C3F8682100221A6303F04BFB09E034
:1044600040B94FF0F00383F31188BFF36F8FBFF3B0
:104470004F8FFEE705B05DF804FB00BF79470008E9
:10448000A8BC02084CD80020034BD3F87821013295
:10449000C3F87821704700BF4CD80020014B186B3F
:1044A000704700BF4CD800202DE9F047494BD3F8A6
:1044B0007831012B03D0474BD3F87C3133B9464BCD
:1044C0001A6801321A60002005F0A8FB414BD3F8AE
:1044D0007821D3F87831002B6BD13E4B1A6B013227
:1044E0001A631F6BBFB99B6A1B6843B14FF0F0039F
:1044F00083F31188BFF36F8FBFF34F8FFEE7354B08
:104500009A6A596B99625A63D3F880210132C3F8D1
:104510008021FFF7A3FD314B1B689F423CD3002451
:104520002C4E4FF0010A06F13C09B36A1B6823B90F
:104530004FF0FF32294B1A602FE0B36ADB68DD6869
:104540006B689F4202D2254A136026E005F10408F9
:10455000404601F027FEAB6A1BB105F1180001F0DF
:1045600021FE284601F05EFAFCF7ECFBEB6AD6F878
:1045700070210AFA03F10A43C6F8702103EB8300A5
:1045800009EB8000414601F0E7FDF36AEA6ADB6A65
:104590009A4228BF0124C8E700240E4AD36ADB6A86
:1045A00003EB830302EB8303DB6B022B28BF0124A5
:1045B00006E0084BD3F87C210132C3F87C210024AB
:1045C000044BD3F88431002B0CBF20460120BDE8FA
:1045D000F08700BF4CD800205CDC0020D000002019
:1045E0002DE9F0413E4BD3F8783143B94FF0F00359
:1045F00083F31188BFF36F8FBFF34F8FFEE703F094
:10460000E5F9374BD3F87821013AC3F87821D3F88C
:104610007831002B59D1324B9B6B002B57D0304C4B
:1046200004F13C0725E0236ADD6805F1180001F07C
:10463000B9FD2E1D304601F0B5FD284601F0F2F916
:10464000FCF780FBEB6AD4F8702108FA03F10A4307
:10465000C4F8702103EB830007EB8000314601F0C2
:104660007BFDE36AEA6ADB6A9A4204D30123C4F859
:1046700084314FF001086369002BD4D1184BD3F873
:104680007C319BB1164BD3F87C317BB1144C0125A6
:10469000FFF70AFF08B1C4F88451D4F87C31013B1C
:1046A000C4F87C31D4F87C31002BF1D10C4BD3F819
:1046B0008431012B0DD14FF080520A4B1A60BFF3A9
:1046C0004F8FBFF36F8F012404E0002402E0002429
:1046D00000E0002403F09CF92046BDE8F08100BF13
:1046E0004CD8002004ED00E038B50546002836D04F
:1046F0001F4BD3F8783143B14FF0F00383F31188A7
:10470000BFF36F8FBFF34F8FFEE7FFF7BDFE89202A
:104710002946FCF7A1FC164CE06A01F083F9FCF78E
:1047200061FE01F085F901F07DF9FCF75BFE236B7A
:104730001D44E06A043001F035FD50B9E16AD4F857
:104740007021C96A012000FA01F122EA0102C4F8CD
:1047500070212846FFF798FCFFF742FF38B94FF069
:104760008052044B1A60BFF34F8FBFF36F8F38BD79
:104770004CD8002004ED00E008B5134C1EE0FFF714
:1047800083FED4F85451FFF72BFFBDB103F01EF99F
:10479000D4F86031DD68281D01F004FDA36B013BF6
:1047A000A363D4F87431013BC4F8743103F030F9D9
:1047B000286BFBF7B9FD2846FBF7B6FDD4F874313A
:1047C000002BDCD1FAE700BF4CD8002008B51E4B07
:1047D000D3F8783123B101221B4BC3F8842108BDE3
:1047E000194A0023C2F88431D2F87031B3FA83F346
:1047F000DBB2C3F11F0303EB830102EB8102D26B37
:1048000042B94FF0F00383F31188BFF36F8FBFF30A
:104810004F8FFEE703EB83030C4A02EB83035A68D6
:1048200052685A6003F108018A4204BF52685A6014
:104830005B68DA68044BDA6201F0FAF801F0F2F82A
:10484000FCF776FD08BD00BF4CD8002088D80020BA
:1048500038B50C4640B94FF0F00383F31188BFF32D
:104860006F8FBFF34F8FFEE7114DE96A183101F0EA
:104870007FFCE86A043001F095FC50B9E96AD5F88C
:104880007021C96A012000FA01F122EA0102C5F88B
:104890007021B4F1FF3F05D10548C16A043101F030
:1048A0005BFC38BD024B186B2044FFF7EDFB38BDB5
:1048B0004CD8002038B50C4640B94FF0F00383F3D4
:1048C0001188BFF36F8FBFF34F8FFEE7154DE96A75
:1048D000183101F041FCE86A043001F063FC50B982
:1048E000E96AD5F87021C96A012000FA01F122EACB
:1048F0000102C5F870210B4D2B6B1C44882021460A
:10490000FCF7AAFBE86A01F08DF8FCF76BFD01F0FB
:104910008FF801F087F8FCF765FD2046FFF7B4FB40
:1049200038BD00BF4CD8002038B5C368DC6844B936
:104930004FF0F00383F31188BFF36F8FBFF34F8FF6
:10494000FEE704F11805284601F02CFC174BD3F8BC
:104950007831DBB9251D284601F024FC204601F002
:1049600061F8FCF7EFF9E36A104AD2F87011012000
:1049700098400143C2F8701102F13C0003EB83033D
:1049800000EB8300294601F0E7FB03E008482946D5
:1049900001F0E2FB054BDB6AE26ADB6A9A4283BF05
:1049A0000120024BC3F88401002038BD4CD8002000
:1049B00060D8002040B94FF0F00383F31188BFF3B3
:1049C0006F8FBFF34F8FFEE7034AD2F8801101606B
:1049D000126B4260704700BF4CD8002038B50D46BE
:1049E000044640B94FF0F00383F31188BFF36F8F93
:1049F000BFF34F8FFEE741B94FF0F00383F3118807
:104A0000BFF36F8FBFF34F8FFEE702F0DFFF124B54
:104A10001A6B2B68B3F1FF3F14D00F49D1F8800116
:104A20002168814202D061688A420DD26168501AC1
:104A300083420BD98A1A13442B602046FFF7BAFF32
:104A4000002404E0002402E0012400E0012402F03C
:104A5000DFFF204638BD00BF4CD800200122024BAA
:104A6000C3F88421704700BF4CD8002008B1806C87
:104A700070470020704700BF014BD86A704700BFE5
:104A80004CD80020064BD3F868313BB1044BD3F827
:104A90007831002B14BF002002207047012070479E
:104AA0004CD8002070B50446002868D0C36A344A48
:104AB000D26AD26A934262D28269002A05DB304A06
:104AC000D26AD26AC2F10C02826103EB83032D4ADF
:104AD00002EB830362699A4231D1261D304601F010
:104AE00061FB88B9E36A03EB8301254A02EB81028B
:104AF000D26B4AB9224AD2F87011012000FA03F3AE
:104B000021EA0303C2F870311D4DEB6ADB6AE362F0
:104B1000204600F087FFFCF715F9E36AD5F870111D
:104B200001229A400A43C5F8702105F13C0003EBCD
:104B3000830300EB8300314601F00EFB03E0104BD2
:104B4000DB6ADB6AE362204600F06CFF0546204624
:104B500000F068FF01460320FCF76EFB03468E2041
:104B600003212A46FCF702FA204600F05BFF0146CB
:104B7000034BDB6A032093F82C20FCF735FB70BD58
:104B80004CD8002088D8002070B5044600286FD08B
:104B90003A4BDB6A984208D04FF0F00383F3118858
:104BA000BFF36F8FBFF34F8FFEE7036D43B94FF035
:104BB000F00383F31188BFF36F8FBFF34F8FFEE7CE
:104BC000013B0365C16AC26C914253D0002B53D1A3
:104BD000051D284601F0E6FA88B9E36A03EB830174
:104BE000264A02EB8102D26B4AB9244AD2F87011EC
:104BF000012000FA03F321EA0303C2F870312046D2
:104C000000F010FF0646204600F00CFF014603208E
:104C1000FCF712FB03468F2003213246FCF7A6F96E
:104C2000204600F0FFFE0146032094F84C20FCF7DC
:104C3000DBFAE36CE362C3F10C03A361204600F0EE
:104C4000F1FEFCF77FF8E36A0C4AD2F870110124F8
:104C500004FA03F00143C2F8701102F13C0003EBC7
:104C6000830300EB8300294601F076FA204670BDED
:104C7000002070BD002070BD002070BD4CD8002009
:104C8000054BDB6A23B1044BDB6A1A6D01321A65EE
:104C9000014BD86A704700BF4CD80020094B1B78E5
:104CA000094800F8331000EBC300120242600133E0
:104CB000DBB2042B02D0034A137070470022014B71
:104CC0001A707047142B0120F02A012070B582B0B1
:104CD0000E461446914B186013785A2B00F2A382AB
:104CE000DFE813F05B00A102A1027800A102A1029B
:104CF000A102A102A102A102A102A102A102A1029C
:104D0000A102A102A102A102AB00A102A102A10283
:104D1000A102A102A102A102D300CB00A102A10223
:104D2000CF00A102A102A102A102EB00A102320167
:104D3000A102A1025B01A102D901A102A102A1026B
:104D4000A1028802A102A102A102A102A102A10264
:104D5000A102A102A102A102A102A102A102A1023B
:104D6000A102A102A102A102A102A102A102A1022B
:104D7000A102A102A102A102A102A102A102A1021B
:104D8000A102A102A102A102A102A102A102A1020B
:104D9000A102A102A102A102DF00614B9B683BB10D
:104DA0005F4B587B05212022FFF778FFFF2548E263
:104DB0005C4B1B689B6808469847054630B13046F7
:104DC00002213A22FFF76AFFFF253AE20022564B02
:104DD0001A8036E2554B03F11201002203F8012F2D
:104DE0008B42FBD1524B70221A700C22DA71514B5C
:104DF0001B78514A12789A4214D04D4A4F4911F803
:104E00003300907001EBC301487910730979517335
:104E10000133DBB2042B02D0464A137002E00022B9
:104E2000444B1A701222404B1A802379934200F2AD
:104E300001823D4A1380002503E2637813F0010FDD
:104E400040F00182374B1B6801EBC106DB6903EBC5
:104E500086063279053223799A4238BF1346324AA0
:104E60001380002B40F0F3810025EAE1013B9BB267
:104E7000F25CCA54002BF9D1DEE100252A4B1D80DB
:104E8000DFE10025284B1D80DBE10823264A138043
:104E900027482B49013B9BB2CA5CC254002BF9D175
:104EA000CCE10823204A138021482649013B9BB2CC
:104EB000CA5CC254002BF9D1C2E11C4B03F10C01B6
:104EC000002203F8012F8B42FBD1164B1B685B6855
:104ED000304601A96A469847054630B1304602215E
:104EE0003A22FFF7DBFEFF25ABE1114B0822DA7017
:104EF00001994A1E100E1871100C5871120A9A71FD
:104F00000139D97102221A72009A110C5972110AD0
:104F10009972DA720C22044B1A8092E1102B012054
:104F2000F43D0120AC000020263E0120EF2D0120A1
:104F3000F02D0120EC2A0120142B0120F02A012061
:104F40003CED020834ED0208A24B1B68A24A5B68E4
:104F50000846114604329847054630B130460221D2
:104F60003A22FFF79BFEFF256BE19B490868421E32
:104F70009A4B140E1C70140C5C70120A9A70013853
:104F8000D8704A68110E1971110C5971110A997172
:104F9000DA710822924B1A8053E1924B1B78002B56
:104FA0003ED1914B93F90C30002B07DB8E4B587B95
:104FB00005212022FFF772FEFF2542E1854B1B6889
:104FC0009B680846984730B1304602213A22FFF7E5
:104FD00065FEFF2535E1A178E3781B0443EA016112
:104FE00063790B43217943EA01217B4B9960E07996
:104FF000227A42EA0022DA6011441B68994240F2A8
:105000002881304605212122FFF748FEFF2518E1BF
:10501000754B587B05212022FFF740FEFF2510E14C
:105020004FF480526E4B1A806B4AD468B4F5805F9F
:1050300028BF4FF48054674B196853680D69304698
:1050400066499268B4FBF3F3A847002806DA3046B5
:1050500004211122FFF722FEFF25F2E0634B1868BE
:1050600081215E4A234604F0FFFE5B4B5A68B4FB85
:10507000F2F19A680A449A60DA68121BDA605C4BB3
:105080009968091B996022B90322564B1A700025B2
:10509000D7E00025D5E0534B1B78002B5BD1524B5A
:1050A00093F90C30002B07DA4F4B587B0521202257
:1050B000FFF7F4FDFF25C4E0464B1B689B680846DC
:1050C000984730B1304602213A22FFF7E7FDFF252D
:1050D000B7E0404B1B68DB6830469847054630B167
:1050E000304602212722FFF7D9FDFF25A9E0A1784C
:1050F000E3781B0443EA016163790B43217943EAB6
:105100000121354A9160E079237A43EA0023D36094
:1051100019441268914240F2AA80304605212122AA
:10512000FFF7BCFDFF258CE02F4B587B052120228B
:10513000FFF7B4FDFF2584E001212A4A1170B3F581
:10514000805F28BF4FF48053284A1068234A9BB2DF
:1051500004F06EFE75E0204AD468B4F5805F28BF85
:105160004FF480541B4B196853684D6930461B49F6
:105170009268B4FBF3F3A847002806DA304604210E
:105180000322FFF78BFDFF255BE0134B5A68B4FB4E
:10519000F2F19A680A449A60DA68121BDA60144BDA
:1051A0009968091B996032B9104B1868002107F003
:1051B00085F9002545E0B2F5805F34BF13464FF412
:1051C00080530A4A10680121044A9BB204F030FE61
:1051D000002536E0AC000020D4D90020F02D0120BD
:1051E000263E0120243E0120F43D0120102B012009
:1051F000143E0120637813F0020F06D00846052103
:105200002422FFF74BFDFF251BE0214B99899A686B
:105210000A441B689A4235D9304605212122FFF7FE
:105220003DFDFF250DE0084605212022FFF736FD54
:10523000FF2506E0002504E0002502E0002500E04F
:10524000002568B222E00723124A1380124E134948
:105250000CE60221124B19700D4B596801FB02F24A
:10526000DA60104B9B689A423FF4DAAED0E6084A07
:10527000516801FB03F3D3600A4A926893423FF4FA
:105280005BAF51E70025034B1D80DAE702B070BD2C
:10529000D4D90020263E012044ED0208F02D012043
:1052A000243E0120F43D012012230B80004870476A
:1052B000D400002004230B8000487047E800002041
:1052C00008B50A4620B90548054901F003FE03E088
:1052D0000448034901F0FEFD014808BDB0BC0208C6
:1052E000242B0120D0BC020810B50A46034C044808
:1052F000214601F0EFFD204610BD00BF242B012008
:10530000F8BC020808B50A4620B90548054901F06D
:10531000E1FD03E00448034901F0DCFD014808BD5C
:105320000CBD0208242B01201CBD020808B50A464A
:105330000248034901F0CEFD014808BD2CBD02081A
:10534000242B012008B50A460248034901F0C2FD9A
:10535000014808BD38BD0208242B012010B40368A1
:10536000816842681143C26811430269114342696E
:10537000114382691143C2691143026A1143426AAF
:105380001143826A1143C26A1143026B0A434FF010
:10539000204141F823208368082B06D103689B0035
:1053A0000B441A6842F040021A6003685C1C436BAD
:1053B00099691A6811435A6841EA02119A6841EAE8
:1053C0000221DA6841EA02411A6941EA02525B6944
:1053D00042EA03624FF0204141F82420C36AB3F54A
:1053E000804F14D10468836B99691A6811435A6815
:1053F00041EA02119A6841EA02211A6941EA02521D
:105400005B6942EA0362064B43F8242005E0026828
:105410006FF07041024B43F822105DF8044B704767
:10542000040100A039B1800000F12040036843F07E
:10543000010303607047800000F120400268024BC6
:1054400013400360704700BFFEFF0F002DE9F047D7
:1054500088B004464FF0FF33069346680368262B56
:1054600004D0302B47D0012B7BD150E080680FF067
:10547000BBFEE368022B07D0032B38D0012B72D17F
:1054800001223A4B1A606EE0384B1B68002B6AD041
:10549000A0F5B87008A941F8080D354B18680A2224
:1054A000002301F06BFE069B012B0DD10623009318
:1054B000304B01930023029303932F482F494FF45D
:1054C0000072FEF701FE0EE0022B0CD106230093C2
:1054D0002B4B01930023029303932A482A494FF44C
:1054E0000072FEF7F1FD0022204B1A603BE0002223
:1054F0001E4B1A6037E0C26813682BB1012B32D102
:1055000000221A4B1A602EE03C2313622BE0304637
:105510000FF050FC8146002307934FF002081D4610
:105520001A4FC3EB03110096CDF80480029503F5E2
:10553000B873039304240494284689004A463C2304
:105540000CF08EF9824639460BF092FF504607A9BF
:1055500022460CF049FA079B013307930A2B02D825
:10556000DFE712F03BFA08B0BDE8F087E4D900208D
:1055700008E4002018EB00201D2400088CB6020867
:105580001CEB0020B11E0008F8CF02089955000856
:1055900008B512F023FA08BDF0B585B00468436879
:1055A000052B5CD120460BF07FFF074620460FF00D
:1055B00001FC054620460FF01BFC0646204603A9C9
:1055C00004220CF015FA002F264808BF6FF07F4028
:1055D00017F04CFB19F09CFA234C039B03EB43039D
:1055E00054F8230017F04EFB0C2700970A200621E1
:1055F000392235231BF098F86FF07F4017F042FBFB
:10560000039B03EB430304EB8303586812210E2230
:1056100018F076FD002017F035FB144817F0EAFA71
:10562000384617F0C9FA039B03EB430304EB8303EB
:10563000986850211E2218F0AFFF0D4817F022FB8A
:10564000701E50216A1E18F0C9F9183E06EBD6727A
:1056500004F17800A5F12801521018F051FD002046
:1056600005B0F0BDCCCCCC0048BD020854F4020813
:10567000C8C7CC002DE9F04184B0FEF70FFF14F04D
:10568000DBFE054614F0ECFE06460FF025FF29462A
:1056900032460CF06BFF4FF00208CDF80080134F3C
:1056A00001970024029420463C214FF4A072B423B9
:1056B00011F074FC0090CDF804800297039420460A
:1056C00021462A46334611F071FB0090084B0193A6
:1056D000084B02930394204621462A464FF4167342
:1056E00011F064FB17F05AFDFCE700BF915500086C
:1056F000020004004D54000808B5FEF7CFFE08BDB7
:1057000008B5FEF7F1FF08BD704700BF08B50120DE
:1057100001F064FE124B186040B94FF0F00383F3C0
:105720001188BFF36F8FBFF34F8FFEE70120002179
:10573000032201F0C3FC0A4B586038B100210A462D
:105740000B4601F01BFD064B5B6843B94FF0F003BD
:1057500083F31188BFF36F8FBFF34F8FFEE708BD50
:10576000E8D9002008B5044B186800210A460B460A
:1057700001F004FD08BD00BFE8D9002008B5074BC3
:105780001B680BB9FFF7C2FF044B186800214FF0EC
:10579000FF320B4601F020FF08BD00BFE8D9002012
:1057A00008B5FFF769F908BD0020704710B5044639
:1057B000FDF704FC0123C4F8F437002010BD00BF3E
:1057C00010B50446FDF700FC0020C4F8F40710BD36
:1057D00070B586B004466FF0010305934568036811
:1057E0000F2B64D002DC012B07D0C2E0262B2DD07A
:1057F00040F21312934216D0BBE0009502230193AE
:105800000024029440F6180303930A200F21322249
:1058100028230CF06FF8284621464FF47A7223466D
:105820000CF01EFDA8E0554B1B680133052B02D080
:10583000524A136002E00022504B1A60284611F0D1
:1058400059FAE06800210CF04BFD95E0C3684B4A23
:105850005360012B40F090804FF0FF330593484B8D
:105860001B68B3F1FF3F00F0878006230093454B90
:105870000193002302930393434844494FF4007279
:10588000FEF722FC3E4B1B68022B03D1404B1868ED
:10589000FEF730FD3A4B1B68012B03D13D4B1868D6
:1058A000FEF728FD4FF0FF32354B1A6064E02846C2
:1058B0000FF080FA0446384817F0E4F9651E00201E
:1058C00001462A46392317F03BFC344817F0DAF931
:1058D00000203A212A463B2317F032FCA4F11E0592
:1058E0002F4E30462946032218F00AFC234B1B6832
:1058F00006EB830670692946032218F001FC29484B
:1059000017F078F9002017F0BDF9022017F044F9DC
:10591000254B186805A90A22002301F05DFE059BAE
:1059200013F1020F02D1164B1B680593059B012B47
:105930000CD0022B12D0B3F1FF3F16D104EBD4717F
:1059400012484910142218F00DFE0EE004EBD47139
:1059500016484910142218F005FE06E004EBD47135
:1059600013484910142218F0FDFD059B044A1360EA
:1059700002E0204612F032F806B070BDF0D90020E7
:1059800024010020D4E0002075560008A8B60208C3
:105990001CEB002018EB0020F8F8F800B2B2B200BF
:1059A00054D002082028030808E400208CB602081E
:1059B000B8D5020808B512F011F808BD30B585B0A9
:1059C000FEF76CFD022500950F4B01930024029415
:1059D000204621464FF4A0723C2311F0DFFA0090DC
:1059E00001950A4B02930394204621464FF4A0727E
:1059F0003C2311F0DBF9054664242046FEF774FED3
:105A000028460DF0BDFAF8E7B5590008D15700084F
:105A100008B501F035FFC0B208BD00BF08B501F000
:105A200031FF08BD08B5FFF721F8C0B208BD00BFBF
:105A300008B5FFF721F808BD294B1B680722DA6576
:105A40000A2283F8642083F8652083F866200F22F9
:105A500083F86720052183F86810022183F8691014
:105A600083F86A1083F86C2083F86D2083F86E2029
:105A700083F86F2083F8702083F8712083F87220F8
:105A8000102283F8742083F8752083F87620132180
:105A900083F87710112083F8780083F8792083F851
:105AA0007A100022A3F87C20A022A3F87E204FF4D5
:105AB000A072A3F880204FF4F072A3F8822040F285
:105AC000FD22A3F8842040F25232A3F8862040F24F
:105AD0007232A3F888204FF466721A66704700BFCE
