:020000040800F2
:1000000070FC0120392100081D3500082135000849
:1000100025350008293500082D35000800000000AE
:100020000000000000000000000000008D710008CA
:1000300031350008000000001D7200087D720008C4
:100040003521000835210008352100083521000838
:100050003521000835210008352100083521000828
:100060003521000835210008352100083521000818
:100070003521000835210008352100083521000808
:1000800035210008352100083521000835210008F8
:10009000352100083521000835210008D55E00080B
:1000A00035210008352100083521000835210008D8
:1000B0003521000855350008352100083521000894
:1000C00035210008352100083521000835210008B8
:1000D00035210008352100083521000835210008A8
:1000E0003521000835210008352100083521000898
:1000F0003521000835210008352100083521000888
:100100003521000899B20008352100083521000882
:100110003521000835210008352100083521000867
:100120003521000835210008352100083521000857
:100130003521000835210008352100083521000847
:100140003521000835210008352100083535000823
:100150003521000835210008352100083521000827
:100160003521000835210008352100083521000817
:100170003521000835210008352100083521000807
:100180003521000835210008C3684FF0FF325A605E
:10019000C3686FF080425A61C368014A9A61704730
:1001A0000008008070B582B005460023019303204B
:1001B00005F0DEFFEB681A690192144C032607E094
:1001C000304605F0D5FFEB681A690192013C19D061
:1001D000019A002AF4DA019A42F001020192019A8E
:1001E0001A61EB681B690193084B04E0EA68126925
:1001F0000192013B03D0019A12F0010FF6D10320C6
:1002000005F0B6FF002002B070BD00BF400D030036
:1002100010B4C4786CB9033300EB8200D0F8D0403E
:100220009B1006D0002251F8040B2060013293424B
:10023000F9D100205DF8044B704700BF70B4033261
:10024000D0F8D060951009D00A460023346842F8EF
:10025000044B01339D42F9D101EB8501084670BC86
:10026000704700BF70B40023C37001238370402324
:10027000838001290DD10123C37208230370042355
:1002800043704FF4A073C380022303724FF0A04564
:100290000CE051B90023C3720C2303700623437092
:1002A0004FF4A063C380204D00E00025C56005F534
:1002B00000630361467866B105F5106203460021CC
:1002C0009A6102F500745C650131203204338E427C
:1002D000F6D805F58063436105F58863C0F8CC3036
:1002E0000678D6B1344605F5A06102460023C2F86F
:1002F00090100133203104329C42F8D86EB105F5DC
:10030000805305EB063101F580510246C2F8D0302A
:1003100003F5805304328B42F8D105F56065C0F8CF
:100320000C51002070BC70470000044038B50446F2
:100330000025037A012B21D1C268936B6FF3104320
:10034000417A09B143F480139363E268D3686FF391
:1003500086136FF396536FF351436FF3D343D36018
:100360002046FFF71FFFE378012B25D1052363F318
:10037000440545F02005E3689D6012E0C268D3683B
:1003800043F04003D360FFF70DFF637A002B0CBFEF
:100390004FF434134FF47413E2689363142005F0A0
:1003A000EDFEE378012B07D1E3689D68052262F337
:1003B000440545F020059D60002038BDC3689A685B
:1003C00042F001029A600020704700BFC3689A683B
:1003D00022F001029A600020704700BF00B583B090
:1003E00000230193019B43F020030193019B61F3E0
:1003F0008A130193C368019A1A61C3681B69019348
:10040000084B04E0C26812690192013B03D0019AD3
:1004100012F0200FF6D1032005F0AAFE002003B051
:100420005DF804FB400D030000B583B00023019389
:10043000019B43F010030193C368019A1A61C368DA
:100440001B690193084B04E0C26812690192013BE9
:1004500003D0019A12F0100FF6D1032005F088FEA8
:10046000002003B05DF804FB400D030008B5C2682E
:10047000D3686FF35D736FF39E73012902D143F06C
:10048000005302E009B943F08043D360322005F005
:1004900075FE002008BD00BFC3685B6913F0010F43
:1004A00014BF002001207047C368586900F00100A4
:1004B000704700BFC3685A6998691040704700BF11
:1004C00043691A6861F301021A607047D0F8CC30B2
:1004D000186820F02E00704743695869704700BFC4
:1004E00038B50546FFF7F2FF40F48074D5F8CC30FC
:1004F0001C600A2005F042FE6FF30824D5F8CC30CA
:100500001C60142005F03AFE012038BD86B000EBD7
:100510008101D1F89020136843F0404313F4802FF9
:1005200007D1C168C96AC1F3074149B96FF3DF73E5
:1005300006E041690969C1F3074109B96FF3DF7347
:100540001360002006B0704710B400234FF0004243
:10055000012464F3DC4200EB8101D1F890000261D8
:10056000D1F89020116841F0004163F39E71116051
:1005700018465DF8044B704703691A6861F301027D
:100580001A60704738B505460024C3689C61C3688B
:100590006FF080425A61FFF7F7FDEB78A34208BF86
:1005A000102444F4701444F4605444F00804EB68DC
:1005B0009A6914439C61002038BD00BF70B50446A1
:1005C00000252E46D0F80C311D6003691A6865F3CA
:1005D000CC221A60C37A012B1FD10321FFF7CCFF75
:1005E000E26880235362C0F2400563F30F05E268BE
:1005F0009562C02262F30F0663F31F46E368C3F8F7
:1006000004614FF4A07363F30F066FF31F46E368B2
:10061000C3F80861E368C3F80C6120461021FFF7B6
:10062000DDFE2046FFF700FF2269002313612269E7
:10063000536122694FF0FF3191612269D361637880
:10064000002B2ED0234600221646FF259969096803
:10065000C90F00290CBF00204FF090409969086035
:1006600099690E6199698D60013261780433914214
:10067000ECD8B1B1234600221646FF25596D096812
:10068000C90F00290CBF00204FF09040596D086041
:10069000596D0E61596D8D6001320433617891425C
:1006A000ECD823691A6942F480721A61E378012B4D
:1006B00009D10323402262F38A0343F4803362F3B7
:1006C0005943226913632046FFF75CFF002070BD89
:1006D00003699B68C3F34103022B05D0032B05D0AC
:1006E000012B03D003207047012070470220704780
:1006F0000369996883691A68C1F34101022912BF2D
:100700006FF30A02032161F30A021A6003695A684F
:1007100042F480725A600020704700BF30B400225B
:100720004B78012B09D10B7800EB8304A4690125D8
:1007300005FA03F363F30F0208E00B7800EB830480
:10074000646D012505FA03F363F31F42236813F474
:10075000004F0DD18D6865F30A03CD7865F393439F
:10076000C98861F3995343F0805343F400432360F5
:100770000369D9690A43DA61002030BC704700BFC1
:1007800030B400231A464C78012C09D1097800EBCB
:100790008104A469012505FA01F161F30F0208E063
:1007A000097800EB8104646D012505FA01F161F31C
:1007B0001F426FF3CF3323600369D96921EA020234
:1007C000DA61002030BC704770B50B464A78012AC8
:1007D00053D10A7800EB820291690A6809695C6961
:1007E0002CB96FF31201012464F3DC410DE064F3D2
:1007F00012019D682C44013CB4FBF5F565F3DC4126
:10080000DC78012C08BF64F35E711C7800EB840473
:10081000A4692161C178012906D1197800EB810111
:100820008C69196961610CE0D97801290CD059698A
:1008300099B101694D6B1C78012606FA04F42C432A
:100840004C63D978012908D10169896811F4807F46
:100850000CBF42F0005242F0805242F0044219783C
:1008600000EB810189690A60DA78012A40D1D968F0
:100870001A789B8AFFF7CCFC3AE00A7800EB8202F8
:10088000516D0A6809695C6934B99C6864F31201A6
:10089000012464F3DC410CE09D682C44013CB4FB72
:1008A000F5F4C4F3090464F3DC4105FB04F565F3D6
:1008B00012011C7800EB8404646D2161C178012968
:1008C00005D1197800EB81014C6D19696161D97806
:1008D000012906D1597911B142F0005201E042F0EC
:1008E000805242F004421B7800EB8300436D1A6093
:1008F000002070BD30B482B04B78012B48D18269A2
:100900001368146900944C696CB99DF800406FF34A
:1009100006048DF800409DF80240012565F3C404EB
:100920008DF8024017E08D68AC4207D94D619DF803
:10093000004065F306048DF8004005E09DF8005086
:1009400064F306058DF800509DF80240012565F31B
:10095000C4048DF80240009C1461C478012C05D1B8
:100960000C7800EB8404A5690C696C6143F00443C6
:100970001360C378002B48D14B69002B45D0036925
:10098000586B0A78012101FA02F202435A633CE0F3
:100990000B7800EB83035A6D1368126900924A6961
:1009A00072B98C689DF8002064F306028DF800206F
:1009B0009DF80220012464F3C4028DF802200EE0A9
:1009C0008C684C619DF8002064F306028DF80020CD
:1009D0009DF80220012464F3C4028DF802200A78F5
:1009E00000EB8202546D009A2261C278012A05D17F
:1009F0000A7800EB8202546D0A69626143F0044395
:100A00000A7800EB8200426D1360002002B030BC17
:100A1000704700BF4B78012B0CD10B7800EB8300A3
:100A200082691368002BB8BF43F0804343F400137E
:100A3000136007E00B7800EB8300426D136843F40A
:100A400000131360002070474B78012B0B7800EBEC
:100A500083000CBF8269426D13686FF35553C978E8
:100A60000239C9B2012998BF43F0805313600020B6
:100A7000704700BF03699A69D8691040000C70473D
:100A800000EB81014B6D9B6802695069184070470B
:100A900003699869DB69184080B2704782B000230F
:100AA0000093C0238DF803304FF00003012262F35E
:100AB000C4038DF8023018238DF80030436D009A7E
:100AC0001A61C378012B08D1436D00F2CC525A61F0
:100AD000436D1A684FF080221A6002B0704700BF61
:100AE00038B504460D46FF2808D04FF6FF739842EC
:100AF00004D00D4802F0A0F8284638BDAC4210D210
:100B000002F072F950B10122027025EA0402C2F328
:100B100007214170120C428002F0CCFA04EA050071
:100B200038BD284638BD00BF3462020870B504469F
:100B300000283DD01F4B1B68002B39D00F2803D94C
:100B40001D4802F079F870BD1C4B1B681BB11C4896
:100B500002F072F870BDEFF31085012383F3108863
:100B6000164B1A6801321A60164B1B681B6BCBB10F
:100B700000F12103DA1014498A5C03F0070342FAFA
:100B800003F313F0010F0DD14FF6FF7002F0A6FA38
:100B9000064602F029F928B102220270468044700C
:100BA00002F088FA054B1A68013A1A6085F310883A
:100BB00070BD00BF00000020706202082C0E0020F3
:100BC000B0620208A00D00201C0E00202DE9F843A1
:100BD00006460F46274B1B68002B49D082EAE27875
:100BE000A8EBE278EFF31085012181F31088224C05
:100BF000216801312160214C21680A4422601B6B6D
:100C000083B394F904300BB963795BBBFF2002F026
:100C100065FA81464FF6FF704146FFF761FF804657
:100C200002F0E2F80446E8B180F801900023037076
:100C3000A0F8028002F03EFA4FF6FF703946FFF747
:100C40004FFF074602F0D0F860B1478000224270A3
:100C5000721C0270267002F02DFA064B1A68074BC0
:100C60001B681365044B1A68013A1A6085F31088F3
:100C7000BDE8F883A00D00202C0E0020900C002071
:100C8000F8B50446FE2803D92A4801F0D5FFF8BD7F
:100C9000062903D9284801F0CFFFF8BD274B1B6870
:100CA000581890F86400904203D2254801F0C4FF20
:100CB000F8BD2448006818B1234801F0BDFFF8BD15
:100CC00022488079002834D0EFF31085012080F38A
:100CD00010881C480668013606601B6B1BB31B4B53
:100CE00093F9043013B9194B5B79E3B9D6B20846CE
:100CF000314604F0B7FCB0B9E308154AD25C04F001
:100D0000070342FA03F313F0010F0CD14FF6FF7003
:100D100002F0E4F9074602F067F820B1478004705A
:100D2000467002F0C7F9074B1A68013A1A6085F35A
:100D30001088F8BD2063020854630208A00D00204B
:100D4000986302082C0E0020DC630208900C00203F
:100D5000300E00202DE9F04104461E46FE2804D93D
:100D60002F4801F069FFBDE8F081062904D92D481C
:100D700001F062FFBDE8F0812B480068451895F846
:100D80006450954204D2294801F056FFBDE8F08135
:100D9000274B1B6823B1274801F04EFFBDE8F081C7
:100DA000EFF31085012383F31088214B1F6801376F
:100DB0001F60036B63B3204B9B794BB31E4B5B7976
:100DC0001BB11D4B93F9043013B3D7B20846394613
:100DD00004F048FCE0B9E308184AD25C04F00703C9
:100DE00042FA03F313F0010F12D1FF2002F076F95B
:100DF0008046FF203146FFF773FE064601F0F4FF00
:100E000030B180F8038004704770867002F052F9A8
:100E1000074B1A68013A1A6085F31088BDE8F08123
:100E2000146402084C640208A00D002098640208B3
:100E30002C0E0020E8640208900C0020300E0020E8
:100E4000F8B504460E46FE2803D9224801F0F4FE08
:100E5000F8BD214B1B681BB1204801F0EDFEF8BD29
:100E6000EFF31085012383F310881B4B1A680132BE
:100E70001A601B4B1B681B6B2BB31A4B9B7913B36C
:100E8000184B5B791BB1174B93F90430DBB1E308C6
:100E9000154AD25C04F0070342FA03F313F0010F82
:100EA00011D1FF2002F01AF907464FF6FF703146C4
:100EB000FFF716FE064601F097FF20B14770047059
:100EC000468002F0F7F8044B1A68013A1A6085F37D
:100ED0001088F8BD206502082C0E002074650208F9
:100EE000A00D0020900C0020300E002070B50646AA
:100EF0000C46062903D9114801F09EFE70BD104B27
:100F00001D686B1893F86430834203D20D4801F0DA
:100F100093FE70BD2B6B83B101F080FF28448C30B1
:100F2000002102F007FA054601F05EFF28B10834FF
:100F300004704670458002F0BDF870BDAC650208D3
:100F4000A00D0020FC65020870B505460C46062978
:100F500003D91C4801F070FE70BD1B4B1B685A186A
:100F600092F86420824203D2184801F065FE70BDF9
:100F70001B6B33B301F038FF064610B3032C0ED1C0
:100F80002846032101F04AFF0F4B1B681A1992F8FB
:100F90006C201844024492F88D3073700DE028469E
:100FA000214601F03BFF084B1B681A1992F86C2090
:100FB0001844024492F88C3073701034347002F08C
:100FC00079F870BD48660208A00D0020A0660208EE
:100FD00038B504461546062803D90E4801F02CFE04
:100FE00038BD0D4B1B68034493F864308B4203D229
:100FF0000A4801F021FE38BD0846214601F00EFFE7
:10100000054B1B681C4494F86C201844024482F879
:101010008D5038BDF0660208A00D00203867020828
:1010200010B50446062804D90F4801F005FE00203B
:1010300010BD0E4B1B68034493F864308B4204D2FE
:101040000B4801F0F9FD002010BD0846214601F0D3
:10105000E5FE064B1B681C4494F86C2018440244BF
:1010600092F88D0010BD00BF78670208A00D002027
:10107000C067020838B504461546062803D90E484D
:1010800001F0DAFD38BD0D4B1B68034493F8643062
:101090008B4203D20A4801F0CFFD38BD08462146F5
:1010A00001F0BCFE054B1B681C4494F86C201844EE
:1010B000024482F88C5038BD00680208A00D002060
:1010C0004468020810B50446062804D90F4801F008
:1010D000B3FD002010BD0E4B1B68034493F8643031
:1010E0008B4204D20B4801F0A7FD002010BD08463A
:1010F000214601F093FE064B1B681C4494F86C20BB
:101100001844024492F88C0010BD00BF80680208A9
:10111000A00D0020C4680208F8B504460F2803D9C2
:10112000254801F089FDF8BD00F12103DA102349BB
:101130008A5C03F0070342FA03F313F0010F14BFB4
:10114000012100211E4B5971EFF31085012383F318
:1011500010881C4B1A6801321A60194B9B79834224
:1011600023D0194B1B681B6BFBB1F1B94FF6FF7015
:1011700001F0B4FF0746124B9C7101F035FE0646A4
:1011800098B103200E4B9979FFF79CFF01280CBF03
:10119000072306233370778074700320084B9979F6
:1011A0000122FFF767FF01F085FF064B1A68013A3D
:1011B0001A6085F31088F8BD006902081C0E002033
:1011C000900C00202C0E0020A00D002008B50B4B29
:1011D0001B6893F86730834203D2094801F02CFD65
:1011E00008BD032101F01AFE044B1B6893F86F2021
:1011F00018440244002382F88C3008BDA00D002062
:1012000044690208836801390D2914D8DFE801F028
:10121000090B0D0F131313110716160707070020EC
:1012200070475868704798687047D8687047186961
:101230007047986970474FF0FF3070470120704742
:101240000129024818BF0020704700BF40940208DF
:10125000836800220A804A80DA68013A8A801B6922
:10126000013BCB80704700BF0939072911D8DFE85F
:1012700001F004120608100A0C0E084870470848CE
:101280007047084870470848704708487047084842
:101290007047002070470748704700BFA913000837
:1012A0005913000841130008ED120008DD12000870
:1012B000B91200089113000800B583B00023019310
:1012C0008DF8041002AB43F8082D806904216A46AA
:1012D00000F02AFF03B05DF804FB00BF08B5806989
:1012E0000621002200F020FF08BD00BF08B580697C
:1012F0000521002200F018FF08BD00BF00B583B033
:1013000000910192806903216A4600F00DFF03B04D
:101310005DF804FB38B50446836853B91C201BF004
:10132000E1F90546A06023699B68984716F04CF9DF
:10133000A861A068D0F1010038BF002038BD00BF0F
:1013400038B50546FFF7E6FF0446A86901210022EB
:1013500000F0EAFE204338BD70B582B005460C4669
:101360001646002300930193FFF7D4FFAB686BB1DF
:101370005A69002A08BF22465A615C609E60009448
:101380000196A86907216A4600F0CEFE02B070BD42
:1013900070B505460C461646FFF7BCFFAB6813B1A7
:1013A000DC601E615C6170BD30B583B004460D46E3
:1013B00000230193FFF7AEFFA3683BB11D6002AAB3
:1013C00042F8045DA069022100F0AEFE03B030BD1A
:1013D00008B5084611461A4604F09EFA08BD00BF3B
:1013E00010B50C46134608461146224604F0B8FADA
:1013F0002E224FF000431A7003F580331A781B78C1
:101400003223013BFDD1094B1978C9B23223013B8C
:10141000FDD1064B1A78D2B23223013BFDD1034BEA
:1014200018780B0243EA0243184310BD0000018004
:10143000F8B507460D461446FFF7D2FF06463B694E
:101440009B68984780EA06022846214604F064FA21
:10145000F8BD00BF2DE9F0470746894615461E46F0
:10146000DDF820A0184B1B68DA6BD2F800801B7CDB
:1014700013F0010F03D1554523DC0F461DE0554500
:101480001FDC88460AE0384621462A46FFF7D0FF8F
:101490000134A642F7DA0135AA4512DBB145FADC80
:1014A0004446F0E720462946424604F035FA013426
:1014B000A642F7DA0135AA4503DBB145FADC3C4622
:1014C000F0E7BDE8F08700BFC002002000B583B0A0
:1014D00000930B46FFF7BEFF03B05DF804FB00BFAF
:1014E00000B583B00092FFF7B5FF03B05DF804FBD1
:1014F0002DE9F04F87B00490039101931099DDF826
:101500004CB0119B013B1F2B00F2B582DFE813F0BA
:1015100034003000B3022C00B302B302B30228003F
:10152000B302B302B302B302B302B302B3022400A4
:10153000B302B302B302B302B302B302B302B30203
:10154000B302B302B302B302B302B302B302200088
:10155000002900F373828EE2002900F351828AE2AF
:10156000002900F3E78186E2002900F3338182E25B
:10157000002900F381807EE2002940F37C82174637
:10158000114405914FF0800ACDF800B0B946159A84
:10159000D2F800B0D2F80480039E149B1E44AC48DD
:1015A00003681B7C03F00303032B5CD8DFE803F024
:1015B00002381D38019D149CDDF800904AFA04F3AE
:1015C00099F800201A4030463946002A0CBF5A4686
:1015D000424604F0A1F90134082C04BF09F10109C5
:1015E00000240136013DE9D13DE0019D149CDDF868
:1015F00000904FF0000B99F800204AFA04F31A42C9
:1016000004D030463946424604F086F901360134AA
:10161000082C04BF09F101095C46013DEBD122E031
:10162000049803699B6898478346019D149CDDF8E4
:10163000008098F800204AFA04F31A420AD004986D
:1016400031464A46FFF7CCFE80EA0B023046394667
:1016500004F062F901360134082C04BF08F10108D6
:101660000024013DE5D1009A129B1A4400920137F3
:10167000059887428AD1FEE1904611440491039B6C
:10168000149A134403930593CDF800B0DDF854B0D9
:1016900000980578039F6E4A13681B7C13F00303C0
:1016A00002D0022B46D08AE0BBF1000F22D0059F6A
:1016B000149C019EDDF800A04FF0C009C4F10303A3
:1016C0005B00C3F1060249FA02F22A4022FA03F350
:1016D000384641465BF8232004F01EF90134042CFF
:1016E00004D19AF801500AF1010A00240137013EA1
:1016F000E4D164E0059F149C019EDDF800A04FF04A
:10170000C009C4F103035B00C3F1060249FA02F207
:101710002A4038464146DA4004F0FEF80134042CF1
:1017200004D19AF801500AF1010A00240137013E60
:10173000E7D144E0BBF1000F22D0149C019EDDF8FC
:1017400000A04FF0C009C4F103035B00C3F106021F
:1017500049FA02F22A4032FA03F305D038464146EC
:101760005BF8232004F0D8F801370134042C04D1AD
:101770009AF801500AF1010A0024013EE3D11EE06B
:10178000149C019EDDF800A04FF0C009C4F10303D2
:101790005B00C3F1060249FA02F22A40DA4003D0A4
:1017A0003846414604F0B8F801370134042C04D11E
:1017B0009AF801500AF1010A0024013EE6D1009B8B
:1017C00012980344009308F10108049A90457FF4AD
:1017D0005FAF50E19046511804910398149B184450
:1017E00003900590CDF800B0DDF854B0009A15785C
:1017F000039F174803681B7C13F0030302D0022BDE
:1018000048D08CE0BBF1000F24D0059F149C019EB2
:10181000DDF800A04FF0F009C4F101039B00C3F113
:10182000040249FA02F22A4022FA03F338464146FA
:101830005BF8232004F070F80134022C04D19AF8EC
:1018400001500AF1010A00240137013EE4D166E0AB
:10185000C0020020059F149C019EDDF800A04FF0FF
:10186000F009C4F101039B00C3F1040249FA02F23A
:101870002A4038464146DA4004F04EF80134022C42
:1018800004D19AF801500AF1010A00240137013EFF
:10189000E7D144E0BBF1000F22D0149C019EDDF89B
:1018A00000A04FF0F009C4F101039B00C3F1040252
:1018B00049FA02F22A4032FA03F305D0384641468B
:1018C0005BF8232004F028F801370134022C04D1FE
:1018D0009AF801500AF1010A0024013EE3D11EE00A
:1018E000149C019EDDF800A04FF0F009C4F1010343
:1018F0009B00C3F1040249FA02F22A40DA4003D005
:101900003846414604F008F801370134022C04D16E
:101910009AF801500AF1010A0024013EE6D1009A2A
:10192000129B1A44009208F10108049880457FF444
:101930005DAFA0E0154601EB0209DFF84081039F8F
:101940003E46019A1644CDF80890B946159FD8F83E
:1019500000301B7C13F0030302D0022B24D048E09C
:101960001FB9019B002B12DC43E00198002840DDE9
:101970004C46C9EB0B0A1AF804302046294657F8A2
:10198000232003F0C9FF0134B442F4D131E04C46C6
:10199000C9EB0B0A204629461AF8042003F0BCFFC5
:1019A0000134B442F6D124E01FB9019A002A13DCB5
:1019B0001FE0019B002B1CDD4C46C9EB0B0A1AF8FB
:1019C00004302BB12046294657F8232003F0A4FF0A
:1019D0000134B442F3D10CE04C46C9EB0B0A1AF8BF
:1019E00004201AB12046294603F096FF0134B44280
:1019F000F5D1129883440135029A9542A7D13AE075
:101A0000174601EB0209DDF80C80019B9844039E08
:101A1000DDF848A0019800280BDDABF10205344643
:101A20002046394635F8022F03F076FF013444454D
:101A3000F6D1D34401374F45ECD11CE0174601EBFA
:101A40000209DDF80C80019A9044039EDDF848A05D
:101A5000019B002B0BDDABF10405344620463946D3
:101A600055F8042F03F058FF01344445F6D1D34410
:101A700001374F45ECD107B0BDE8F08FC002002020
:101A800008B54FF40060012101F03AFD4FF4006009
:101A9000002101F035FD08BD10B40B4A53684468BD
:101AA00081680C43C1680C4301680C430169214300
:101AB00023F4FD4323F07F030B43007D0343536076
:101AC0005DF8044B704700BF002C0140014B1860CB
:101AD000704700BFA0802542014B1860704700BFCF
:101AE000002C0140024B186800F00300704700BF53
:101AF000002C014010B40268094B9A60DA6822F4A5
:101B0000FF6222F00702846841680C43C1682143E8
:101B1000006901430A43DA605DF8044B704700BF77
:101B2000002C0140014B1869C0B27047002C0140E5
:101B300082B000230193034B03440193019B186877
:101B400002B07047142C014010B40268094B5A626D
:101B500042689A62DC6A24F0F704C2688168114323
:101B600002690A43406902432243DA625DF8044B8A
:101B7000704700BF002C0140014BD3F88000704734
:101B8000002C0140014BC3F880007047002C01403D
:101B900021B1054BDA6B1043D8637047024BDA6B07
:101BA00022EA0000D8637047002C0140034B5B6BB6
:101BB00018420CBF00200120704700BF002C0140DC
:101BC000014B9863704700BF002C0140034B5B6BD7
:101BD00018420CBF00200120704700BF002C0140BC
:101BE000014B9863704700BF002C014038B5044694
:101BF00003681D2B02D0262B2CD02FE040681949FA
:101C00000BF072FC606840F60B0110F087FC054693
:101C100015490BF071FE28466FF07F410BF004FE72
:101C2000606840F60E0110F079FC05460F490BF094
:101C300063FE2846FF210BF0F7FD28460E210BF02E
:101C40000FFE606840F6120110F068FC4A210CF0AB
:101C5000D5F838BD806810F035FB38BD12F000FFB4
:101C600038BD00BF07070700DCB40208249902084A
:101C700000B583B010F090FC034600220092019260
:101C800003480921034A0CF0E1FD03B05DF804FBB1
:101C9000C0690208ED1B00082DE9F04FADF2DC4DE4
:101CA00002F0D2F90024ADF8D64405F07FFA15A869
:101CB0009549224606F096FFA2A8944907F022F91A
:101CC000934B1393FF231493079400E00134A2A8CD
:101CD0000DA907F059F918B99DF83D30002BF5D141
:101CE0000794E1B209918B4CA61E079A16440D4643
:101CF00090461CE00020414600F084FF08F1FF33CD
:101D0000002B0BDDBDF8D634621E12F8011F814294
:101D100008BF0123B242F8D1ADF8D634BDF8D634AD
:101D200013B9E0553D4602E00023ADF8D6346F1EEE
:101D3000FFB2002DDED109950024ADF8D64405F0A0
:101D400057FA754817F072FDFFF792FF8246714B04
:101D50006D2283F8FC20752283F8FD20732283F81E
:101D6000FE20692283F8FF20632283F800212F22BE
:101D700083F8012140F60B0110F0D0FB059050468E
:101D800040F6120110F0CAFB504640F60A0110F06E
:101D9000C5FB504640F6080110F0C0FB8046504697
:101DA00040F6090110F0BAFB0746504640F6110113
:101DB00010F0B4FB064602940123069308940194A4
:101DC0000393DFF86091DFF84CB10BF201110B9136
:101DD00055E0002009F0A2FC05F0E8F9ACA80BF5ED
:101DE000B4714FF480620DF2D64306F0CDFF50BBC4
:101DF00020460CF02FF80A90012009F09BFCBDF85A
:101E0000D6347BB10025454C0BF5B473585D09F011
:101E10009FFC236913F4807FFBD00135BDF8D634D5
:101E2000AB42F1DC002009F085FC0A9BDAB20B2002
:101E3000114609F0BFFCBDF8D634B3F5806F0399A5
:101E400038BF0121039109F0E5FC09F00DFE4FF4C4
:101E50007A7303FB00F00028B8BF0730C010089A5F
:101E600092FBF0F4042009F041FD642101FB00F134
:101E7000049891FBF4F10CF0F7FA05F0B9F9D9F8F0
:101E8000103013F0100F19D1D9F8103013F0100FD3
:101E9000FAD0069B43B122490B8B9BB243F40073EB
:101EA0000B830022069209E01D494B8B9BB243F441
:101EB00000734B8303F00EFD0122069240460CF0A6
:101EC000D9FE30B140460CF0D5FE0028FAD10123EE
:101ED000039330460CF0CEFE40B130460CF0CAFE03
:101EE0000028FAD1019981F00101019138460CF0E6
:101EF000C1FEC8B138460CF0BDFE0028FAD1029AE6
:101F0000023A029213E000BF246E0208BC6A020883
:101F1000980C002000000068DCB4020800000240B9
:101F20000004024000100240039B012B5ED105F02B
:101F30003DF902990131079A914208BF00210291AF
:101F4000404B1393FF2314930BF265110B9B00225C
:101F500003F8012F8B42FBD1A2A83B4906F0D2FF28
:101F600002991BF801305BB1099C0D46A2A80DA98E
:101F700007F00AF80134E4B21BF80530A342F5D1AA
:101F8000A2A80DA907F000F8D8B99DF83D30C3B15B
:101F900005F02EF9139A13784BB101320B9901F821
:101FA000013F139212F8013B002BF8D109E0062300
:101FB0000BF1FC020DA91944C97899540133132B74
:101FC000F6D109F03FFC05F0F1F8ACA80BF1FC01EB
:101FD000012206F039FEAF9A089205F009F905983A
:101FE0000BF581710BF056FC00230393282002F0BF
:101FF00051F9504640F60B0110F090FA059050460A
:1020000040F6120110F08AFA0446504640F60A01E2
:1020100010F084FA0490504640F6080110F07EFA61
:102020008046504640F6090110F078FA07465046BF
:1020300040F6110110F072FA0646019900293FF4AA
:102040001EAFC6E6980C0020BC6A020808B504481A
:102050004FF4FA211AF014FD024819F0A7F908BD4F
:1020600068050068D8B7020808B502481FF07AFD75
:1020700008BD00BF086B020808B510B1012804D0E4
:1020800007E006481FF06EFD08BD05481FF06AFD19
:1020900008BD04481FF066FD08BD00BF1C6B0208A8
:1020A000306B0208446B020808B502481FF05AFD65
:1020B00008BD00BF5C6B020808B502481FF052FD66
:1020C00008BD00BF746B020808B502481FF04AFD46
:1020D00008BD00BF886B020808B502481FF042FD2A
:1020E00008BD00BF9C6B020808B502481FF03AFD0E
:1020F00008BD00BFB06B020808B5094809490022B5
:10210000134619F013F800204FF4A071F02214F0D8
:10211000BFFF00204FF4A071F02214F09FFF08BD14
:102120008C69020850E7020801290CBF00204FF01B
:10213000FF307047FEE700BF10B5124B124A9A42BB
:102140000DD2131D114CE41A24F0030404340023AF
:1021500010460F495A581A500433A342FAD10D4879
:102160000D494FF000028842B8BF40F8042BFFF63B
:10217000FAAFDFF82800016841F47001016000F057
:102180007DFC10BDDC0B002000000020DF0B0020D8
:10219000C4EB0208900C00206C3C012088ED00E0AC
:1021A00020230B80004870472000002010B5044613
:1021B000812107F013FA2046012107F00FFA20468B
:1021C00009F066FD002010BD10B50446FFF7EEFFD4
:1021D000204681214022022307F0D6F92046012122
:1021E0004022022307F0D0F9204609F01DFD00200F
:1021F00010BD00BF70B506460C460B7813F06005A5
:102200003FD0202D61D14A78FE2A02D0FF2A23D068
:1022100033E04A88D2B9CA88012A17D113F0800F57
:1022200014D02B4B1B689B699847C0B2294B187080
:1022300030B130461946012209F086FC002545E000
:102240003046214603F0DEFF02253FE030462146BE
:1022500003F0D8FF022539E04A8842B9CA8832B96A
:1022600013F0800F03D109F001FD00252EE0304668
:10227000214603F0C7FF022528E003F0C3FF022533
:1022800024E04B780A2B04D00B2B07D0012B1DD157
:1022900008E01149012209F057FC17E04A880D4B6C
:1022A0005A7013E0097907F029FA3046217907F0CE
:1022B00095F9A1883046C9B24022022307F064F99B
:1022C0003046217909F09CFD00E00025284670BDCC
:1022D000AC000020980D0020990D002008B509F0F1
:1022E000F9FC002008BD00BF08B509F011FD002071
:1022F00008BD00BF10B50446D0F8E8351B69984703
:10230000032384F81231002010BD00BF08B590F8F7
:10231000123180F81331042380F81231D0F8E835F7
:10232000DB689847002008BD08B5D0F8E435DB69C4
:1023300003B19847002008BD08B5D0F8E4351B6A02
:102340009847002008BD00BF08B5D0F8E4355B6AA7
:102350009847002008BD00BF10B504460021402268
:102360000B4607F011F9204680214022002307F098
:102370000BF9012384F81231D4F8E8355B68A078B2
:102380009847002010BD00BF10B582B004466946D2
:1023900003F016FF9DF8001001F01F03012B08D079
:1023A00013B1022B0AD00EE02046694603F038FF35
:1023B0000EE02046694604F0D1F809E0204669465F
:1023C00004F0E8F804E0204601F0800107F056F937
:1023D000002002B010BD00BF10B504460A46002917
:1023E00048D190F81131022B38D1D0F83821D0F8EB
:1023F00024319A4211D9D21AC0F83821C178012962
:1024000004D1D0F828110B44C0F828312046D4F864
:10241000281192B209F0AAFB20E0D0F83C21B2FBCF
:10242000F3F103FB112161B993420AD8D0F840318E
:102430009A4206D20A4609F099FB0023C4F84031BB
:102440000CE0D4F8E435DB682BB194F81221032AB0
:1024500001D120469847204609F0ACFB94F816318C
:10246000012B11D12369094A12685A60002384F8AC
:10247000163109E0D0F8E4355B692BB190F8121100
:10248000032901D111469847002010BDC00F01203B
:1024900010B504460A4659BB90F81131032B31D1CF
:1024A000D0F89023D0F87C339A4214D9D21AC0F8CD
:1024B0009023C178012904D1D0F880131944C0F8C1
:1024C00080139A4228BF1A462046D4F8801392B24D
:1024D00009F056FB16E0D0F8E4351B6923B190F8FB
:1024E0001221032A00D19847204609F053FB09E046
:1024F000D0F8E4359B692BB190F81211032901D172
:1025000011469847002010BDF8B504460D46164602
:102510001F4603F0CBFDC4F8E475069BC4F8E8350C
:10252000C4F8EC652046294606F0E0FFD4F8E8350B
:102530001B689847204603F003FEF8BD10B504461B
:10254000D0F8E4351B689847D4F8E8359B6898477D
:10255000002010BD08B5D0F8E4355B68984700202E
:1025600008BD00BF08B504F021FE06F07BFD04F0B5
:102570003FFE08BD10B501F067FD0A2001210022D1
:1025800004F08CF9034B18606424204616F0E4FF35
:10259000FBE700BF60E200200B4B4FF47A721A8514
:1025A0000122DA625A63198B89B241F068011983FA
:1025B000198C89B241F006011984198C89B2114332
:1025C00019841A80704700BF000C0040384B4FF050
:1025D000AC629A601A6842F480321A601A46136834
:1025E00013F4003FFBD040F20472324B1A60A3F5A3
:1025F0008063314A5A601A6842F080721A601A4643
:10260000136813F0007FFBD0294A936843F4144306
:1026100043F002039360936813F0080FFBD0274B3D
:10262000D3F8882042F47002C3F88820204B1A6B3C
:1026300042F001021A631A6B42F002021A631A6B2B
:1026400042F004021A631A6B42F008021A631A6B12
:1026500042F010021A631A6B42F020021A631A6BDE
:1026600042F040021A631A6C42F080521A641A6BEC
:1026700042F480021A639A6B42F001029A631A6C68
:1026800042F008021A641A6C42F480021A645A6C0E
:1026900042F480425A641A6B42F480521A635A6BB5
:1026A00042F040025A635A6C42F400625A64704726
:1026B00000380240003C02400854400700ED00E0B2
:1026C00008B54FF4407006F0C5FE08BD2DE9F04195
:1026D00082B0B34C236843F480532360A36843F46F
:1026E0004053A360636943F040036361236843F090
:1026F00002032360A36843F00303A3602046002184
:102700000C2203F069F8236843F008032360A368F0
:1027100043F00C03A360204601210C2203F05CF877
:10272000236843F400732360A36843F44073A360F9
:10273000204604210C2203F04FF8236843F4006381
:102740002360A36843F44063A360204605210C2264
:1027500003F042F8236843F400432360A36843F482
:102760004043A360204607210C2203F035F823687C
:1027700043F400032360A36843F44003A3602046AE
:102780000B210C2203F028F8236843F00053236048
:10279000A36843F04053A36020460E210C2203F0AF
:1027A0001BF8236843F000432360A36843F04043D1
:1027B000A36020460F210C2203F00EF8794E3368F7
:1027C00043F400433360B36843F44043B36030469E
:1027D00007210C2203F000F8336843F40033336020
:1027E000B36843F44033B360304608210C2202F052
:1027F000F3FF336843F400233360B36843F44023AA
:10280000B360304609210C2202F0E6FF336843F43E
:1028100000133360B36843F44013B36030460A21B9
:102820000C2202F0D9FF604F3B6843F004033B6089
:102830007B6843F002037B60BB6843F00C03BB6022
:102840007B6943F002037B617B8B9BB243F0020305
:102850007B833B6843F010033B60BB6843F030036D
:10286000BB607B6943F004037B613B6843F0020378
:102870003B60BB6843F00303BB603B6A43F0020369
:102880003B624A4D2B6843F480232B60AB6843F4D2
:102890000023AB606B6943F400736B616B8B9BB27D
:1028A00043F400736B832B6843F040032B60AB68E9
:1028B00043F08003AB606B6943F008036B612B8BC3
:1028C0009BB243F008032B83394B1A6842F48022F1
:1028D0001A609A6842F400229A605A6942F40072BF
:1028E0005A615A8B92B242F400725A83336843F0B1
:1028F00010033360B36843F02003B360736943F09F
:102900000403736130460221002202F05FFFDFF80A
:10291000A480D8F8003043F04003C8F80030D8F85D
:10292000083043F08003C8F80830D8F8143043F07A
:102930000803C8F81430B8F81A309BB243F0080303
:10294000A8F81A30AB6843F04053AB60EB6843F033
:102950008053EB602B6843F400532B60AB6843F467
:102960004053AB6028460621022202F035FFB368CF
:1029700043F44073B360F36843F48073F360B36867
:1029800043F0C003B360F36843F04003F3602B6887
:1029900043F400132B60AB6843F44013AB600BE0CF
:1029A000000C0240001002400000024000040240FF
:1029B000001402400008024028460A21042202F0C6
:1029C0000BFF2B6843F400032B60AB6843F4400318
:1029D000AB6028460B21042202F0FEFED8F8083036
:1029E00043F48063C8F80830D8F80C3043F48063AF
:1029F000C8F80C304FF48073009300238DF8043036
:102A00008DF807303846694602F092FE638B9BB220
:102A100043F04003638302B0BDE8F08130B58BB072
:102A20000024069407940894099406A800F0F6FF81
:102A300000948DF8044001258DF80550029403940C
:102A400004948DF81450684600F0DEFF04F18044D1
:102A500004F590342046694600F0AEFF2046092177
:102A60002A46072300F0FCFF2046294601F042F8E1
:102A70002046294600F0E8FF0BB030BD30B587B0E6
:102A800002F0D8FFFFF7A2FDFFF71AFEFFF71EFEC8
:102A9000FFF782FD424B1A8B92B242F040021A833A
:102AA00008F0EEFC02F0C4FE02F014FF012006F074
:102AB00049FC03F061F803F055F908F03FFF08F016
:102AC000C1FE08F0D7FE374B1B6913F0100F08D179
:102AD000354B009335480121354A364BFFF714FD3D
:102AE000FEE703F08BFA04200DF012FA18F0B4FCA4
:102AF00001200FF07BFA0CF089FA4FF4807001216D
:102B000000F0E2FC0223049303228DF814208DF8D8
:102B10001730294804A902F00BFEFFF77FFF0723B7
:102B20000093264B019300240294039424482549E2
:102B30004FF40062234601F09DF806250095224BD4
:102B4000019302940394214821494FF48062234663
:102B500001F090F800951F4B0193029403941E48D6
:102B60001E494FF48062234601F084F81C4B009309
:102B70001C4814210122134600F06AFD04461A4B3A
:102B8000186040B101F060FA02460023009320462D
:102B9000012100F09BFD01F015FA002007B030BDC7
:102BA000000C024000100240040000207C020120C2
:102BB000F80000204000002000040240A4DE0020B5
:102BC00075250008C86B02082CDF0020F1510008B1
:102BD000D46B0208DCE700209D540008DC6B02087F
:102BE00065250008E46B020864E200200122014B25
:102BF0001A7070479A0D00200122014B5A707047DD
:102C00009A0D002070B506460D460124204606F0B8
:102C1000AFFB0028FAD006F0A5FB0446012006F021
:102C2000B1FBB4FBF5F305FB1340304470BD00BFAE
:102C3000FEE700BFFEE700BF10B5014618B90E4819
:102C4000FFF7FAFF10BD0D4B186818B90C48FFF7D5
:102C5000F3FF10BD00220263084A526852B9074CC4
:102C6000616000F2DC7050221FF08AF823680122B4
:102C7000C3F8D42710BD00BFEC6B0208A00D0020E4
:102C8000146C02082DE9F84F504B1B68504A12682B
:102C90001A44504B1A60504D504C2C602046002175
:102CA0004FF4BF521EF010FF4FF001036370022378
:102CB000A3700323E370702323714FF0710984F82C
:102CC00005904FF0720884F806807327E771F023AF
:102CD0002372F12666724FF0F20B84F80AB04FF0BF
:102CE000F30A84F80BA041F6A123A3810423A37364
:102CF0004FF4BF5323614FF47A73A3614FF0F03365
:102D0000636502F009FC28684FF0F133C0F8243401
:102D10004FF44873C0F828340123C0F82C3400F570
:102D2000FA634FF07E521A604FF0F233C0F8D83792
:102D300000F2DC702A4950221FF022F82B684FF075
:102D4000F332C3F82C280A2141F2D47299540B2192
:102D500041F2D57299540C2141F2D67299540D2149
:102D600041F2D772995441F2D87203F8029041F2BD
:102D7000D97203F8028041F2DA729F54742141F251
:102D8000DB72995441F2DC729E5441F2DD7203F819
:102D900002B041F2DE7203F802A0F42141F2DF72C8
:102DA000995402F00FFC29680B7843B90B460C319B
:102DB0001A78013203F8012B8B42F9D102E009485D
:102DC000FFF73AFF06F0E6FABDE8F88F041000E0DE
:102DD000A0120020A4270120A00D0020C40F012074
:102DE000486C02085C6C020808B50A4B1B681A6B39
:102DF0006AB1D869B0F57A7F04D30748FFF71CFFA2
:102E0000002008BD03EB800000F5036008BD002032
:102E100008BD00BFA00D0020886C020808B5062977
:102E200004D90F48FFF708FF002008BD30B10D4B53
:102E30001B685A1892F86420824204D20A48FFF7AD
:102E4000FBFE002008BD5A1892F87420013803EBED
:102E50004103B3F87C3002FB003080B208BD00BFF4
:102E6000B06C0208A00D0020F06C020838B50628EE
:102E700004D95648FFF7E0FE002038BD544A02EB63
:102E800040031B8993671A4492F8402042B9504A84
:102E9000D1185D1C02EB4002947D2A1B81F8402072
:102EA0004B4AD11891F8401002EB4002928C9A42A2
:102EB00005D202F0AFFBFFF7BFFE002038BD0133A3
:102EC0009BB2434A02EB40042381E48A1B1B02EBC2
:102ED0004002528E934204DD3D4A02EB4002DBB2D7
:102EE000538606286FD8DFE800F0041426386E4AAF
:102EF0005C00374B03EBD10301F00702012000FA1D
:102F000002F293F87C0020EA020283F87C20084653
:102F100038BD01F10B022E4B03EBE20302F0070276
:102F2000012000FA02F293F87C0020EA020283F802
:102F30007C20084638BD01F11602254B03EBE20365
:102F400002F00702012000FA02F293F87C0020EA66
:102F5000020283F87C20084638BD01F121021C4B97
:102F600003EBE20302F00702012000FA02F293F8F9
:102F70007C0020EA020283F87C20084638BD01F17B
:102F80003102134B03EBE20302F00702012000FAC7
:102F900002F293F87C0020EA020283F87C200846C3
:102FA00038BD01F134020A4B03EBE20302F00702E1
:102FB000012000FA02F293F87C0020EA020283F872
:102FC0007C20084638BD084638BD00BF306D020879
:102FD000A00D002010B5062803D91448FFF72CFED9
:102FE00010BD31B1124B1B68034493F864308B421F
:102FF00003D21048FFF720FE10BD0D4B03EB40023B
:103000001289541E03EB4003DB8A9C4203DA0A4810
:10301000FFF712FE10BD013A92B2054B03EB4000E0
:1030200002811A4482F8401010BD00BF746D02087E
:10303000A00D0020B86D0208F86D020838B50446EE
:1030400015461AB91748FFF7F7FD38BD062803D90A
:103050001548FFF7F1FD38BD19B91448FFF7ECFD2D
:1030600038BD134B1B68034493F864308B4204D281
:1030700002F0D0FAFFF7E0FD38BD08462146FFF721
:10308000CDFE0B4BA3F884005B684BB9084B1B6863
:10309000184423448C30294693F86C201EF070FEAF
:1030A00038BD00BF286E0208586E0208846E020800
:1030B000A00D002008B5084B1B681A6B52B15A6965
:1030C00001325A61DA690132DA61B2F57A7F01D3ED
:1030D00002F098FF08BD00BFA00D002030B583B0FE
:1030E000044600230193FF2808D04FF6FF7398424F
:1030F00004D02848FFF7A0FD002049E001A806F011
:103100007DF9019A244BD3F88850551BC3F88820C9
:103110001B68596AD9B18D420AD9B5FBF1F2D86A58
:103120001044D86201FB1251986A0844986202E088
:103130009A6A2A449A62184B1B68996A5A6A9142A1
:1031400006D3D86A0130D8628A1A9A6200E09A627D
:10315000A5421BD9FFF748FEC0B14FF6FF7294425B
:1031600006D1A92202702A0C4280002242700BE094
:10317000FF2C06D1A82202702A0A42802A0E427031
:1031800002E00648FFF758FDFFF794FF04EA050048
:1031900003B030BD086F0208A00D0020486F020880
:1031A0002DE9F0479146244A166801F56A7136F810
:1031B0001140824628B92148FFF73EFD0020BDE8B6
:1031C000F087B9F1000F03D044B92046BDE8F0877D
:1031D0001B48FFF731FD0020BDE8F0874FEA1328B8
:1031E000DFB22546331993F83234BB4212D133197A
:1031F00093F8333443450DD1231DF2184A4492F815
:1032000030243AB904F23440304451464A461EF064
:103210005DFD50B1354495F8314495F8303403EBF9
:103220000424A4B2002CDCD102E02046BDE8F087E3
:103230002046BDE8F08700BFA00D00206C6F02089B
:10324000A86F0208F8B51446864620B92148FFF752
:10325000F3FC0020F8BD22B91F48FFF7EDFC002069
:10326000F8BD1E4A1268D2F82C542E1D3719B7F536
:10327000487F04D31A48FFF7DFFC0020F8BD01F5B2
:103280006A7732F81710154485F83014090A85F862
:10329000311485F832341B0A85F8333406F586601C
:1032A0001044714622461EF06BFD0C4B1B68D3F890
:1032B0002C24A0181918002581F8345423F817205D
:1032C0000530C3F82C04C4F57F44FB34204480B29D
:1032D000F8BD00BFE06F02081C700208A00D0020BE
:1032E0005470020838B518B90F48FFF7A5FC38BD6F
:1032F00019B90E48FFF7A0FC38BD1AB90C48FFF702
:103300009BFC38BD037843B1002501241D440134E2
:1033100010F8013F002BF9D101E00025012405F050
:103320003F050D70147038BD94700208C870020813
:10333000F870020870B582B00D4600228DF80720A3
:103340008DF80620044620B91948FFF775FC0020C7
:103350002CE00DF106010DF10702FFF7C3FFEFF3BB
:103360001086012383F31088124AD2F88C3001337F
:10337000C2F88C3020469DF806109DF807202B4699
:10338000FFF70EFF024640B920469DF806109DF853
:1033900007202B46FFF756FF0246064BD3F88C104A
:1033A0000139C3F88C1086F31088104602B070BD46
:1033B0002C710208A00D002010B4244B9B6803F070
:1033C0000C03042B05D0082B06D003BB204B036055
:1033D0001FE01F4B03601CE01C4B59685A6802F049
:1033E0003F0211F4800F08BF184B5968C1F38811D0
:1033F000174BB3FBF2F303FB01F3144A5268C2F319
:10340000014201325200B3FBF2F3036001E0104BC2
:1034100003600E498B68C3F303130E4AD35CDBB21F
:10342000046824FA03F343608C68C4F38224145DB7
:10343000E4B223FA04F484608968C1F34231525C37
:10344000D2B2D340C3605DF8044B704700380240ED
:103450000024F4009C00002021B1054B1A6B10439E
:1034600018637047024B1A6B22EA0000186370471A
:103470000038024021B1054B5A6B10435863704726
:10348000024B5A6B22EA0000586370470038024032
:1034900021B1054B9A6B104398637047024B9A6BAE
:1034A00022EA0000986370470038024021B1054BC2
:1034B0001A6C104318647047024B1A6C22EA000021
:1034C000186470470038024021B1054B5A6C104314
:1034D00058647047024B5A6C22EA000058647047E7
:1034E0000038024021B1054B1A6A10431862704738
:1034F000024B1A6A22EA0000186270470038024044
:1035000021B1054B5A6A104358627047024B5A6A00
:1035100022EA00005862704700380240704700BF3E
:10352000FEE700BFFEE700BFFEE700BFFEE700BF0B
:10353000704700BF08B50648FCF7B6FF18B104484D
:1035400009F0AAFE08BD024803F068FF08BD00BFED
:103550007C02012008B502F017FE08BD10B5044634
:103560004160206191420AD8D21A81698A4211D2FF
:103570000A4B1868211D02F031FA002010BD9A4252
:1035800001D2994208D2054B5868211D02F026FA53
:10359000002010BD012010BD012010BD540E0020E0
:1035A00070B503F003FE134B9B68FBB9114C04F19B
:1035B0000C06304602F0F6F904F12005284602F028
:1035C000F1F9666025600A200C21002203F066F9FB
:1035D000A06040B94FF0F00383F31188BFF36F8F01
:1035E000BFF34F8FFEE7044903F040FD03F000FEF8
:1035F00070BD00BF540E00205C71020800B585B09C
:10360000FFF7CEFF0E4B9B686BB10B2300930D4B66
:1036100001930023029303930B480C494FF400726B
:1036200000F028FB40B94FF0F00383F31188BFF39B
:103630006F8FBFF34F8FFEE705B05DF804FB00BF4F
:10364000540E0020880E00203538000864710208EE
:103650002DE9F041804616461D460F4649B32C2001
:1036600008F0E6FB0446D8B1FFF79AFFC4F80080E3
:10367000A761E6612562069B6362201D02F09EF948
:103680000520FFF7F3FB0146A06205202268FFF743
:10369000D5FCB020052194F82820FDF7F1FA11E0BF
:1036A000B9200521002393F82820FDF7E9FA09E065
:1036B000FEE74FF0F00383F31188BFF36F8FBFF382
:1036C0004F8FF5E72046BDE8F08100BFF0B585B02B
:1036D00006460C4617462E498868002853D00194A8
:1036E00002920396052C0EDC00F0B0FF0228284B56
:1036F000986801A907BF0A9A00230022134603F025
:103700002DF9054605E001A91A46002303F0BAFA8F
:103710000546002C38DD042C0AD1012D14BFBD2034
:10372000B420052196F828203B46FDF713FB2BE03B
:10373000052C19D1012D18BFB5201AD1B5200521AE
:1037400096F82820FDF79CFA96F828000521FDF749
:10375000CDFB96F828000521FDF7F6FB052096F82D
:103760002810FFF737FC0FE004F1B000012D00D165
:1037700001E0092300E000231844052196F82820E1
:10378000FDF77EFA00E00025284605B0F0BD00BF39
:10379000540E00202DE9F04782B0074600F054FC9B
:1037A0000646234B9B6B98423AD2214D4FF00008BE
:1037B0002BE0D468D4F800A0E46804F1040948467A
:1037C00002F026F9636A20469847E369012B1CD171
:1037D000A3695344534506D9636024616868494628
:1037E00002F0FCF811E0CDF8008020464146524638
:1037F0004346FFF76BFF40B94FF0F00383F31188A6
:10380000BFF36F8FBFF34F8FFEE76A681468002C19
:10381000CFD1074B196859601A6001233B6001E062
:1038200000233B60024B9E63304602B0BDE8F08748
:10383000540E00202DE9F04387B05D4C00255D4F0C
:1038400063681A68002A00F0A980DB681E6800F02F
:10385000F1FB03A8FFF79EFF8046039B002B41D19D
:1038600086422ED800F092FC6368DB68D3F80C9097
:1038700009F1040002F0CCF8D9F81C30012B1AD160
:10388000D9F818104846314442463346FFF766FEE1
:10389000012810D100954846294632462B46FFF7AD
:1038A00015FF40B94FF0F00383F31188BFF36F8F1A
:1038B000BFF34F8FFEE7D9F824304846984764E0BD
:1038C0002E46A068C8EB060103F0FAFB00F05EFC90
:1038D00000285AD14FF080533B60BFF34F8FBFF3A6
:1038E0006F8F52E000F052FC4FE0039800284CDB51
:1038F000059E736913B1301D02F08AF802A8FFF724
:1039000049FF0346039909293FD8DFE801F005057F
:10391000053E293B05053E29DDF810E0B16930463A
:1039200071441A467346FFF719FE01282DD1736AB8
:1039300030469847F369012B27D1B269009530468C
:103940002946049B1A442B46FFF7C0FEE8B94FF006
:10395000F00383F31188BFF36F8FBFF34F8FFEE740
:103960000499B16141B94FF0F00383F31188BFF3BB
:103970006F8FBFF34F8FFEE7304619441A46FFF7AB
:10398000EDFD02E0304608F0C1FAA06803A92A461E
:103990002B4603F011FA0028A7D151E700F04AFBAB
:1039A00003A8FFF7F7FE8046039B002B88D099E71A
:1039B000540E002004ED00E010B4436823F040737F
:1039C00023F480730A6813430A7943EA02234360AD
:1039D0008468CA680B691A438B681A43094B2340F1
:1039E00013434A7943EA42038360C26A22F47002B5
:1039F0000B7D013BDBB242EA0353C3625DF8044B2B
:103A0000704700BFFDF7FFC00023036003714371DF
:103A10008360C360036101230375704710B4084AD3
:103A20005168084B0B40446801680C43816821438E
:103A3000C06801430B4353605DF8044B704700BFFF
:103A400000230140E030FCFF21B1836843F0010313
:103A500083607047836823F001038360704700BF71
:103A600070B409290ED9C668A1F10A0404EB440414
:103A70000725A54026EA050503FA04F445EA0403F0
:103A8000C3600BE0066901EB41040725A54026EA67
:103A9000050503FA04F445EA04030361062A0CD879
:103AA000446B013A02EB82021F23934024EA030392
:103AB00001FA02F21A4342631AE00C2A0CD8046B92
:103AC000073A02EB82021F23934024EA030301FA20
:103AD00002F21A4302630BE0C46A0D3A02EB82025F
:103AE0001F23934024EA030301FA02F21A43C2623D
:103AF00070BC704721B1836843F480638360704772
:103B0000836823F480638360704700BF00207047A0
:103B10000020704700B583B031238DF804300023B6
:103B20008DF805308DF8063001238DF8073001A897
:103B300005F09AFC07F010FB003018BF012040424E
:103B400003B05DF804FB00BF38B50C46154607F01E
:103B50002DFA58B94FF400732B60064BD3E91201CC
:103B6000420A42EAC1522260002000E0FF2040B237
:103B700038BD00BF280C002008B50A4B93F900306F
:103B8000002B04DA07F0E8FA0022064B1A7007F05F
:103B90000DFA18B1FF20034B187000E0002040B26E
:103BA00008BD00BF900E002000B583B04FF4007038
:103BB000009001930846002306F05EFD20B907F04F
:103BC000F5F90028FBD101E0FF2000E0002040B221
:103BD00003B05DF804FB00BF00B583B04FF4007084
:103BE000009001930846002306F0F0FE20B907F08C
:103BF000DDF90028FBD101E0FF2000E0002040B209
:103C000003B05DF804FB00BF084B9B6A1B6823B937
:103C10004FF0FF32064B1A607047044B9B6ADB681B
:103C2000DB685A68024B1A60704700BF980E00208C
:103C3000D000002010B504460C4BDA6A50601B6BB4
:103C4000984206D2094B586BD96A043101F0C6FE7E
:103C500010BD064B986AD96A043101F0BFFE044BCF
:103C60001B689C423CBF024B1C6010BD980E00209C
:103C7000D00000202DE9F84F0F46904699460A9D46
:103C80000C9E824640B94FF0F00383F31188BFF3D6
:103C90006F8FBFF34F8FFEE70B2D08D94FF0F00366
:103CA00083F31188BFF36F8FBFF34F8FFEE736B9F1
:103CB000900008F0BDF80646002800F0A0805C20C7
:103CC00008F0B6F80446A8B106633046A5214FEACD
:103CD00088021DF0F9FE08F1804808F1FF38236BD7
:103CE00003EB880323F0070B3B7884F834303B78F0
:103CF00023B90FE0304608F009F980E001233A4685
:103D000017F8010FE11881F83400527812B101332D
:103D1000102BF4D1002684F843600B2D34BF2F46BE
:103D20000B27E762E764266504F10408404601F0CA
:103D300045FE04F1180001F041FE2461C7F10C07B3
:103D4000A7616462666584F85860584651464A46E1
:103D500003F008FA20600B9B03B11C6003F026FA05
:103D60004D4B9A6B01329A63DB6A4BBB4A4BDC6268
:103D70009B6B012B4CD1484B03F13C0603F5967726
:103D8000304601F00FFE1436BE42F9D1424E06F520
:103D90009679484601F006FE06F5A077384601F010
:103DA00001FE06F1140001F0FDFD06F5AA7001F018
:103DB000F9FD304601F0F6FDC6F82890776327E05C
:103DC000354BD3F868311BBB334BDB6ADB6A9D4252
:103DD0001ED3314BDC621BE02F4BDB6ADB6A9D425A
:103DE0000AD94FF080522D4B1A60BFF34F8FBFF3AB
:103DF0006F8F0120BDE8F88F0120BDE8F88F4320C8
:103E000003210022FCF73CFF4FF0FF30BDE8F88FA4
:103E1000214ED6F86C310133C6F86C31636403204F
:103E2000FFF724F8A064204601F06CFB0146032054
:103E300004F13402FFF702F9204601F063FB01466A
:103E4000032094F82C20FDF7C3F8204601F05AFB1C
:103E500002461B200321FCF713FF204601F052FB12
:103E6000FCF764FEE36AD6F87021012199400A4309
:103E7000C6F8702106F13C0003EB830300EB8300DE
:103E8000414601F09FFD03F0B3F9D6F86831002BED
:103E9000A2D10120BDE8F88F980E002004ED00E0CB
:103EA00070B5044603F082F90CB9444BDC6A261D58
:103EB000304601F0ADFD88B9E36A03EB83013F4A68
:103EC00002EB8102D26B4AB93C4AD2F87011012050
:103ED00000FA03F321EA0303C2F87031A36A1BB1AD
:103EE00004F1180001F094FD344D05F5AA70314637
:103EF00001F068FDD5F874310133C5F87431D5F897
:103F00006C310133C5F86C31EFF31085012383F375
:103F10001088204601F0F6FA024683200321FCF7C0
:103F2000AFFE204601F0EEFA0321FCF7DFFF20464A
:103F300001F0E8FA0321FDF707F8204601F0E2FA64
:103F40000146032094F82C20FDF742F8204601F0AA
:103F5000D9FA014603200022FDF78CF8204601F033
:103F6000D1FA01460320FFF735F885F3108803F0F6
:103F70003FF9124BD3F86831FBB1104BDB6A9C421E
:103F800015D10E4BD3F8783143B14FF0F00383F3E2
:103F90001188BFF36F8FBFF34F8FFEE74FF0805252
:103FA000074B1A60BFF34F8FBFF36F8F70BD03F0E5
:103FB000FDF8FFF729FE03F01BF970BD980E0020F5
:103FC00004ED00E000B585B0002300930193029357
:103FD0000393154815494FF40072FFF74BFE012873
:103FE00014D1FFF70BFB012810D14FF0F00383F33E
:103FF0001188BFF36F8FBFF34F8F0D4B0122C3F8B2
:10400000682100221A6303F065F909E040B94FF016
:10401000F00383F31188BFF36F8FBFF34F8FFEE779
:1040200005B05DF804FB00BF25430008907102084D
:10403000980E0020034BD3F878210132C3F8782181
:10404000704700BF980E0020014B186B704700BFEF
:10405000980E00202DE9F047494BD3F87831012B19
:1040600003D0474BD3F87C3133B9464B1A68013241
:104070001A60002005F0C2F9414BD3F87821D3F83B
:104080007831002B6BD13E4B1A6B01321A631F6BD8
:10409000BFB99B6A1B6843B14FF0F00383F31188EB
:1040A000BFF36F8FBFF34F8FFEE7354B9A6A596BA3
:1040B00099625A63D3F880210132C3F88021FFF757
:1040C000A3FD314B1B689F423CD300242C4E4FF084
:1040D000010A06F13C09B36A1B6823B94FF0FF32AD
:1040E000294B1A602FE0B36ADB68DD686B689F427A
:1040F00002D2254A136026E005F10408404601F08B
:1041000087FCAB6A1BB105F1180001F081FC284661
:1041100001F0F8F9FCF70AFDEB6AD6F870210AFA0B
:1041200003F10A43C6F8702103EB830009EB80001A
:10413000414601F047FCF36AEA6ADB6A9A4228BF0B
:104140000124C8E700240E4AD36ADB6A03EB830329
:1041500002EB8303DB6B022B28BF012406E0084B34
:10416000D3F87C210132C3F87C210024044BD3F81E
:104170008431002B0CBF20460120BDE8F08700BF32
:10418000980E0020A8120020D00000202DE9F04158
:104190003E4BD3F8783143B94FF0F00383F31188E5
:1041A000BFF36F8FBFF34F8FFEE702F0FFFF374B78
:1041B000D3F87821013AC3F87821D3F87831002B6D
:1041C00059D1324B9B6B002B57D0304C04F13C073C
:1041D00025E0236ADD6805F1180001F019FC2E1DA9
:1041E000304601F015FC284601F08CF9FCF79EFCE6
:1041F000EB6AD4F8702108FA03F10A43C4F870217D
:1042000003EB830007EB8000314601F0DBFBE36A40
:10421000EA6ADB6A9A4204D30123C4F884314FF07E
:1042200001086369002BD4D1184BD3F87C319BB1C2
:10423000164BD3F87C317BB1144C0125FFF70AFFF4
:1042400008B1C4F88451D4F87C31013BC4F87C3106
:10425000D4F87C31002BF1D10C4BD3F88431012BF5
:104260000DD14FF080520A4B1A60BFF34F8FBFF34E
:104270006F8F012404E0002402E0002400E0002409
:1042800002F0B6FF2046BDE8F08100BF980E002086
:1042900004ED00E038B50546002836D01F4BD3F8B2
:1042A000783143B14FF0F00383F31188BFF36F8F80
:1042B000BFF34F8FFEE7FFF7BDFE89202946FCF7CD
:1042C000BFFD164CE06A01F01DF9FCF77FFF01F01D
:1042D0001FF901F017F9FCF779FF236B1D44E06A21
:1042E000043001F095FB50B9E16AD4F87021C96A35
:1042F000012000FA01F122EA0102C4F870212846E7
:10430000FFF798FCFFF742FF38B94FF08052044B9B
:104310001A60BFF34F8FBFF36F8F38BD980E002028
:1043200004ED00E080B5194C194F4FF080561EE0A7
:10433000FFF780FED4F85451FFF728FFBDB102F01B
:1043400035FFD4F86031DD68281D01F061FBA36BF7
:10435000013BA363D4F87431013BC4F8743102F01B
:1043600047FF286B07F0D2FD284607F0CFFDD4F8B1
:104370007431002BDCD1E36B012B04D93E60BFF319
:104380004F8FBFF36F8FFEF755FCF0E7980E0020BC
:1043900004ED00E008B51E4BD3F8783123B10122BB
:1043A0001B4BC3F8842108BD194A0023C2F884318D
:1043B000D2F87031B3FA83F3DBB2C3F11F0303EB1E
:1043C000830102EB8102D26B42B94FF0F00383F319
:1043D0001188BFF36F8FBFF34F8FFEE703EB8303AB
:1043E0000C4A02EB83035A6852685A6003F10801D1
:1043F0008A4204BF52685A605B68DA68044BDA622A
:1044000001F086F801F07EF8FCF786FE08BD00BFDB
:10441000980E0020D40E002038B50C4640B94FF05D
:10442000F00383F31188BFF36F8FBFF34F8FFEE765
:10443000114DE96A183101F0D1FAE86A043001F04F
:10444000E7FA50B9E96AD5F87021C96A012000FA83
:1044500001F122EA0102C5F87021B4F1FF3F05D154
:104460000548C16A043101F0ADFA38BD024B186B42
:104470002044FFF7DFFB38BD980E002038B50C460E
:1044800040B94FF0F00383F31188BFF36F8FBFF390
:104490004F8FFEE7154DE96A183101F093FAE86A8B
:1044A000043001F0B5FA50B9E96AD5F87021C96A4B
:1044B000012000FA01F122EA0102C5F870210B4D3A
:1044C0002B6B1C4488202146FCF7BAFCE86A01F0FB
:1044D00019F8FCF77BFE01F01BF801F013F8FCF76C
:1044E00075FE2046FFF7A6FB38BD00BF980E0020E2
:1044F00038B5C368DC6844B94FF0F00383F3118822
:10450000BFF36F8FBFF34F8FFEE704F11805284606
:1045100001F07EFA174BD3F87831DBB9251D284618
:1045200001F076FA204600F0EDFFFCF7FFFAE36AAF
:10453000104AD2F87011012098400143C2F870115E
:1045400002F13C0003EB830300EB8300294601F0FA
:1045500039FA03E00848294601F034FA054BDB6AD2
:10456000E26ADB6A9A4283BF0120024BC3F88401EE
:10457000002038BD980E0020AC0E002040B94FF04E
:10458000F00383F31188BFF36F8FBFF34F8FFEE704
:10459000034AD2F880110160126B4260704700BF7D
:1045A000980E002038B50D46044640B94FF0F00390
:1045B00083F31188BFF36F8FBFF34F8FFEE741B9CD
:1045C0004FF0F00383F31188BFF36F8FBFF34F8F6A
:1045D000FEE702F0EBFD124B1A6B2B68B3F1FF3FC5
:1045E00014D00F49D1F880012168814202D061685E
:1045F0008A420DD26168501A83420BD98A1A134439
:104600002B602046FFF7BAFF002404E0002402E0FC
:10461000012400E0012402F0EBFD204638BD00BF7C
:10462000980E00200122024BC3F88421704700BF7E
:10463000980E002008B1806C70470020704700BFC2
:10464000014BD86A704700BF980E0020064BD3F884
:1046500068313BB1044BD3F87831002B14BF0020F4
:104660000220704701207047980E002070B5044664
:10467000002868D0C36A344AD26AD26A934262D2AE
:104680008269002A05DB304AD26AD26AC2F10C0282
:10469000826103EB83032D4A02EB830362699A4232
:1046A00031D1261D304601F0B3F988B9E36A03EB36
:1046B0008301254A02EB8102D26B4AB9224AD2F821
:1046C0007011012000FA03F321EA0303C2F87031EC
:1046D0001D4DEB6ADB6AE362204600F013FFFCF736
:1046E00025FAE36AD5F8701101229A400A43C5F809
:1046F000702105F13C0003EB830300EB830031469E
:1047000001F060F903E0104BDB6ADB6AE3622046EC
:1047100000F0F8FE0546204600F0F4FE01460320B6
:10472000FCF77EFC03468E2003212A46FCF712FB91
:10473000204600F0E7FE0146034BDB6A032093F8B6
:104740002C20FCF745FC70BD980E0020D40E0020F4
:1047500070B5044600286FD03A4BDB6A984208D007
:104760004FF0F00383F31188BFF36F8FBFF34F8FC8
:10477000FEE7036D43B94FF0F00383F31188BFF3F5
:104780006F8FBFF34F8FFEE7013B0365C16AC26CB9
:10479000914253D0002B53D1051D284601F038F922
:1047A00088B9E36A03EB8301264A02EB8102D26BEC
:1047B0004AB9244AD2F87011012000FA03F321EA21
:1047C0000303C2F87031204600F09CFE06462046E6
:1047D00000F098FE01460320FCF722FC03468F20E0
:1047E00003213246FCF7B6FA204600F08BFE014664
:1047F000032094F84C20FCF7EBFBE36CE362C3F17D
:104800000C03A361204600F07DFEFCF78FF9E36AFC
:104810000C4AD2F87011012404FA03F00143C2F8E3
:10482000701102F13C0003EB830300EB8300294687
:1048300001F0C8F8204670BD002070BD002070BD9A
:10484000002070BD980E0020054BDB6A23B1044B9D
:10485000DB6A1A6D01321A65014BD86A704700BFD6
:10486000980E0020094B1B78094800F8331000EB24
:10487000C300120242600133DBB2042B02D0034AB0
:10488000137070470022014B1A707047D027012027
:10489000AC27012070B582B00E461446914B1860CB
:1048A00013785A2B00F2A382DFE813F05B00A10219
:1048B000A1027800A102A102A102A102A102A1020B
:1048C000A102A102A102A102A102A102A102A102D0
:1048D000AB00A102A102A102A102A102A102A102B8
:1048E000D300CB00A102A102CF00A102A102A1022C
:1048F000A102EB00A1023201A102A1025B01A1020F
:10490000D901A102A102A102A1028802A102A10271
:10491000A102A102A102A102A102A102A102A1027F
:10492000A102A102A102A102A102A102A102A1026F
:10493000A102A102A102A102A102A102A102A1025F
:10494000A102A102A102A102A102A102A102A1024F
:10495000A102A102A102A102A102A102A102A1023F
:10496000DF00614B9B683BB15F4B587B05212022E8
:10497000FFF778FFFF2548E25C4B1B689B68084601
:104980009847054630B1304602213A22FFF76AFFC8
:10499000FF253AE20022564B1A8036E2554B03F1CE
:1049A0001201002203F8012F8B42FBD1524B7022DF
:1049B0001A700C22DA71514B1B78514A12789A42C4
:1049C00014D04D4A4F4911F83300907001EBC301E8
:1049D00048791073097951730133DBB2042B02D08B
:1049E000464A137002E00022444B1A701222404BD8
:1049F0001A802379934200F201823D4A13800025F8
:104A000003E2637813F0010F40F00182374B1B681B
:104A100001EBC106DB6903EB8606327905322379A7
:104A20009A4238BF1346324A1380002B40F0F3817C
:104A30000025EAE1013B9BB2F25CCA54002BF9D19C
:104A4000DEE100252A4B1D80DFE10025284B1D807B
:104A5000DBE10823264A138027482B49013B9BB200
:104A6000CA5CC254002BF9D1CCE10823204A138040
:104A700021482649013B9BB2CA5CC254002BF9D1A4
:104A8000C2E11C4B03F10C01002203F8012F8B4201
:104A9000FBD1164B1B685B68304601A96A469847F4
:104AA000054630B1304602213A22FFF7DBFEFF25F2
:104AB000ABE1114B0822DA7001994A1E100E1871F1
:104AC000100C5871120A9A710139D97102221A72A6
:104AD000009A110C5972110A9972DA720C22044B65
:104AE0001A8092E1CC270120B03A0120AC000020CE
:104AF000E23A0120AB2A0120AC2A0120A82701209C
:104B0000D0270120AC2701200C9202080492020851
:104B1000A24B1B68A24A5B680846114604329847BC
:104B2000054630B1304602213A22FFF79BFEFF25B1
:104B30006BE19B490868421E9A4B140E1C70140CC2
:104B40005C70120A9A700138D8704A68110E197197
:104B5000110C5971110A9971DA710822924B1A805D
:104B600053E1924B1B78002B3ED1914B93F90C30C3
:104B7000002B07DB8E4B587B05212022FFF772FEAE
:104B8000FF2542E1854B1B689B680846984730B17A
:104B9000304602213A22FFF765FEFF2535E1A17874
:104BA000E3781B0443EA016163790B43217943EA0B
:104BB00001217B4B9960E079227A42EA0022DA6097
:104BC00011441B68994240F2288130460521212278
:104BD000FFF748FEFF2518E1754B587B0521202281
:104BE000FFF740FEFF2510E14FF480526E4B1A8014
:104BF0006B4AD468B4F5805F28BF4FF48054674B8C
:104C0000196853680D69304666499268B4FBF3F33E
:104C1000A847002806DA304604211122FFF722FEB9
:104C2000FF25F2E0634B186881215E4A234604F0B9
:104C30000BFD5B4B5A68B4FBF2F19A680A449A6028
:104C4000DA68121BDA605C4B9968091B996022B91B
:104C50000322564B1A700025D7E00025D5E0534BB0
:104C60001B78002B5BD1524B93F90C30002B07DAE9
:104C70004F4B587B05212022FFF7F4FDFF25C4E0B0
:104C8000464B1B689B680846984730B13046022166
:104C90003A22FFF7E7FDFF25B7E0404B1B68DB68D2
:104CA00030469847054630B1304602212722FFF7AB
:104CB000D9FDFF25A9E0A178E3781B0443EA01614F
:104CC00063790B43217943EA0121354A9160E07908
:104CD000237A43EA0023D36019441268914240F2D8
:104CE000AA80304605212122FFF7BCFDFF258CE07C
:104CF0002F4B587B05212022FFF7B4FDFF2584E0D0
:104D000001212A4A1170B3F5805F28BF4FF4805308
:104D1000284A1068234A9BB204F07AFC75E0204AC6
:104D2000D468B4F5805F28BF4FF480541B4B1968DA
:104D300053684D6930461B499268B4FBF3F3A847AA
:104D4000002806DA304604210322FFF78BFDFF25F9
:104D50005BE0134B5A68B4FBF2F19A680A449A601C
:104D6000DA68121BDA60144B9968091B996032B932
:104D7000104B1868002106F091FF002545E0B2F5C0
:104D8000805F34BF13464FF480530A4A10680121F4
:104D9000044A9BB204F03CFC002536E0AC00002045
:104DA00020100020AC2A0120E23A0120E03A012044
:104DB000B03A0120CC270120D03A0120637813F0CB
:104DC000020F06D0084605212422FFF74BFDFF25E0
:104DD0001BE0214B99899A680A441B689A4235D98D
:104DE000304605212122FFF73DFDFF250DE0084655
:104DF00005212022FFF736FDFF2506E0002504E00F
:104E0000002502E0002500E0002568B222E007232B
:104E1000124A1380124E13490CE60221124B1970EC
:104E20000D4B596801FB02F2DA60104B9B689A4205
:104E30003FF4DAAED0E6084A516801FB03F3D360D1
:104E40000A4A926893423FF45BAF51E70025034B57
:104E50001D80DAE702B070BD20100020E23A012088
:104E600014920208AC2A0120E03A0120B03A012055
:104E700012230B8000487047D400002004230B80CD
:104E800000487047E800002008B50A4620B90548E8
:104E9000054901F00FFC03E00448034901F00AFC56
:104EA000014808BD98710208E0270120B871020886
:104EB00010B50A46034C0448214601F0FBFB20468E
:104EC00010BD00BFE0270120E071020808B50A46C6
:104ED00020B90548054901F0EDFB03E0044803490A
:104EE00001F0E8FB014808BDF4710208E027012049
:104EF0000472020808B50A460248034901F0DAFBC9
:104F0000014808BD14720208E027012008B50A46CE
:104F10000248034901F0CEFB014808BD2072020897
:104F2000E027012010B40368816842681143C26819
:104F30001143026911434269114382691143C269F5
:104F40001143026A1143426A1143826A1143C26AE1
:104F50001143026B0A434FF0204141F8232083683C
:104F6000082B06D103689B000B441A6842F04002EC
:104F70001A6003685C1C436B99691A6811435A688C
:104F800041EA02119A6841EA0221DA6841EA0241E3
:104F90001A6941EA02525B6942EA03624FF020411A
:104FA00041F82420C36AB3F5804F14D10468836BA1
:104FB00099691A6811435A6841EA02119A6841EAEC
:104FC00002211A6941EA02525B6942EA0362064B16
:104FD00043F8242005E002686FF07041024B43F86B
:104FE00022105DF8044B7047040100A039B1800025
:104FF00000F12040036843F0010303607047800024
:1050000000F120400268024B13400360704700BF6C
:10501000FEFF0F002DE9F04788B00446466803689C
:10502000262B04D0302B2CD0012B60D135E08068AA
:105030000DF048F9E368022B07D0032B1DD0012B9C
:1050400057D101222C4B1A6053E02B4B1B68002BCD
:105050004FD0B0F5B97F0CD106230093274B0193B5
:10506000002302930393264826494FF48062FEF7FB
:1050700001FE0022204B1A603BE000221E4B1A600A
:1050800037E0C26813682BB1012B32D100221A4BD2
:105090001A602EE03C2313622BE030460DF0A6F898
:1050A0008146002307934FF002081D46164FC3EBBD
:1050B00003110096CDF80480029503F5B8730393AD
:1050C00004240494284689004A463C2309F0AEFF94
:1050D0008246394609F0B2FD504607A922460AF039
:1050E00069F8079B013307930A2B02D8DFE70FF01B
:1050F000B7FC08B0BDE8F08730100020D8E70020EA
:10510000991C0008E08402081551000808B50FF04A
:10511000A7FC08BDF0B585B004684368052B5CD1D9
:10512000204609F0A7FD074620460DF05FF805462A
:1051300020460DF079F80646204603A904220AF01D
:105140003DF8002F264808BF6FF07F4014F0AAFBFF
:1051500016F032F9234C039B03EB430354F823006E
:1051600014F0ACFB0C2700970A20062139223523C6
:1051700017F00AFF6FF07F4014F0A0FB039B03EBD6
:10518000430304EB8303586812210E2215F042FCFE
:10519000002014F093FB144814F048FB384614F038
:1051A00027FB039B03EB430304EB83039868502125
:1051B0001E2215F07BFE0D4814F080FB701E50215E
:1051C0006A1E15F0DFF9183E06EBD67204F178007E
:1051D000A5F12801521015F01DFC002005B0F0BD0E
:1051E000CCCCCC003072020824990208C8C7CC008D
:1051F0002DE9F04184B0FEF727FF12F05FF9054674
:1052000012F070F906460DF0C7F9294632460AF049
:105210006FFD4FF00208CDF80080134F0197002476
:10522000029420463C214FF4A072B4230EF006FFF6
:105230000090CDF8048002970394204621462A4628
:1052400033460EF003FE0090084B0193084B029387
:105250000394204621462A464FF416730EF0F6FDBD
:1052600014F09AFDFCE700BF0D5100080200040095
:105270001550000808B5FEF7E7FE08BD08B5FFF7B2
:1052800009F808BD704700BF08B5012001F096FC81
:10529000124B186040B94FF0F00383F31188BFF34D
:1052A0006F8FBFF34F8FFEE701200021032201F033
:1052B000F5FA0A4B586038B100210A460B4601F056
:1052C0004DFB064B5B6843B94FF0F00383F3118845
:1052D000BFF36F8FBFF34F8FFEE708BD3410002080
:1052E00008B5044B186800210A460B4601F036FB4E
:1052F00008BD00BF3410002008B5074B1B680BB970
:10530000FFF7C2FF044B186800214FF0FF320B4635
:1053100001F052FD08BD00BF3410002008B5FFF7B2
:105320008FF908BD0020704710B50446FDF75EFCFC
:105330000123C4F8F437002010BD00BF10B50446A7
:10534000FDF75AFC0020C4F8F40710BD70B584B016
:105350000446456803680F2B4AD002DC012B07D0B6
:105360007FE0262B2DD040F21312934216D078E026
:105370000095022301930024029440F6180303933E
:105380000A200F213222282309F09AFE28462146BE
:105390004FF47A7223460AF025FB65E0334B1B6815
:1053A0000133052B02D0314A136002E000222F4B5B
:1053B0001A6028460EF0EEFCE06800210AF052FB6D
:1053C00052E0C368294A5360012B4DD10623009354
:1053D000274B0193002302930393264826494FF459
:1053E0008062FEF747FC254B1868FEF759FD3BE04D
:1053F00028460CF0FBFE0446214814F05FFA651EB7
:10540000002001462A46392314F098FC1D4814F068
:1054100055FA00203A212A463B2314F08FFCA4F1D0
:105420001E05194E30462946032215F0F3FA0F4B9C
:105430001B6806EB830670692946032215F0EAFA19
:10544000124814F0F3F9002014F038FA022014F096
:10545000BFF904EBD4710E484910142215F00CFD6D
:1054600002E020460FF0FCFA04B070BD3C100020B2
:105470002CDF0020F1510008D46B0208D8E700208F
:10548000F8F8F800B2B2B2003C850208F0CC02088D
:10549000A08A020808B50FF0E3FA08BD30B585B060
:1054A000FEF7D2FD022500950F4B019300240294D4
:1054B000204621464FF4A0723C230EF0BFFD009021
:1054C00001950A4B02930394204621464FF4A072A3
:1054D0003C230EF0BBFC054664242046FEF7DAFEB2
:1054E00028460BF049F8F8E7955400084D5300089A
:1054F00008B501F0B5FDC0B208BD00BF08B501F0A8
:10550000B1FD08BD08B5FFF795F8C0B208BD00BFF2
:1055100008B5FFF795F808BD294B1B680722DA6527
:105520000A2283F8642083F8652083F866200F221E
:1055300083F86720052183F86810022183F8691039
:1055400083F86A1083F86C2083F86D2083F86E204E
:1055500083F86F2083F8702083F8712083F872201D
:10556000102283F8742083F8752083F876201321A5
:1055700083F87710112083F8780083F8792083F876
:105580007A100022A3F87C20A022A3F87E204FF4FA
:10559000A072A3F880204FF4F072A3F8822040F2AA
:1055A000FD22A3F8842040F25232A3F8862040F274
:1055B0007232A3F888204FF466721A66704700BFF3
:1055C000A00D0020124B0022DA811A800A221A82D2
:1055D0005A8014225A829A801E229A82DA802D22C0
:1055E000DA821A8132221A835A8134225A839A81AA
:1055F00009229A831322DA831D221A842C225A84C8
:1056000031229A843322DA8435221A85704700BF0A
:10561000A80D0020062811D8DFE800F00A060804CB
:10562000120C0E000748704707487047074870473C
:105630000748704707487047074870470748704752
:1056400007487047AC8A02081C8B0208608B02086E
:105650009C8B0208D88B0208148C0208588C020814
:10566000E48A020808B5062804D92C48FDF7E4FAB4
:10567000012008BD2A4B1B68034493F864308B4219
:1056800004D22848FDF7D8FA012008BD062840D8E2
:10569000DFE800F0220E18043F2B3500213101F025
:1056A000070301209840C9101F4B5B5C184008BDE0
:1056B0000B3101F0070301209840C9101A4B5B5CC5
:1056C000184008BD163101F0070301209840C910A9
:1056D000154B5B5C184008BD01F0070301209840A2
:1056E000C908114B5B5C184008BD313101F007035C
:1056F00001209840C9100C4B5B5C184008BD343148
:1057000001F0070301209840C910074B5B5C18406B
:1057100008BD0648FDF790FA012008BD888C0208F4
:10572000A00D0020D08C02081C0E0020108D020855
:10573000F0B400230125032605FA03F20C68144097
:10574000944238D107685A0006FA02F4E44327402D
:105750000760076891F804C00CFA02FC4CEA0707DE
:1057600007600F79013FFFB2012F16D887683C40D0
:10577000846087684C7994403C43846047689CB25D
:1057800005FA04FC27EA0C074760476891F806C051
:105790000CFA04F4A4B23C434460C7689CB26400B1
:1057A00006FA04F427EA0404C460C468CF7907FA4F
:1057B00002F22243C2600133102BBDD1F0BC70470E
:1057C000036919420CBF0020012070470AB1018310
:1057D00070474183704700BF10B401F007039B007E
:1057E000C90800EB8100046A0F21994024EA0101F5
:1057F0000162016A9A40114301625DF8044B7047EF
:105800000A4B5A8B92B242F004025A834FF6FF734E
:10581000013BFDD1054B1A8B92B242F004021A8370
:105820004FF6FF73013BFDD1704700BF00000240FF
:1058300010B4124B1A6842F420221A601A6822F03F
:1058400030021A601A6842F004021A600C4A1168A9
:1058500041F0040111604FF080749C604FF480208F
:105860009860012199604FF400729A60DC60D86002
:10587000D960DA605DF8044B704700BF800000A07B
:10588000600000A010B44FF000412B230B70104BB0
:1058900000221A701A701A70EF241C702A240C70DF
:1058A0001A701A7001221A703F221A702C230B7082
:1058B000C0F30724C0F307414FF49632044B18702D
:1058C0001C701970013AFAD15DF8044B704700BFA3
:1058D0000000018008B5FFF793FF01224FF000435D
:1058E0001A704FF6FF73013BFDD111224FF00043B8
:1058F0001A704FF6FF73013BFDD14FF00043292290
:105900001A7036221A70662203F580331A704FF42B
:105910007F40FFF7B7FF08BD30B44FF000442A23A3
:105920002370C0F307250D4B1D70C0B218701D7099
:1059300018702B202070C1F307201870C9B219709D
:10594000187019702C212170D1B21970C2F307217F
:105950001970C2F307421A7030BC70470000018012
:1059600070B44FF000452A242C70C0F307260C4C6D
:105970002670C0B22070C2F307202070D2B222700D
:105980002B222A70C1F307222270C9B22170C3F3FF
:1059900007222270DBB223702C232B7070BC70475F
:1059A0000000018000F1080343604FF0FF32826085
:1059B000C360036100230360704700BF00230361DD
:1059C000704700BF43684B609A688A609A6851606C
:1059D00099600861036801330360704730B40D6853
:1059E000B5F1FF3F01D1026907E000F108025368F9
:1059F0001C68A54201D31A46F9E753684B609960C9
:105A00008A605160086103680133036030BC7047ED
:105A100003694268816891608268416851605A6890
:105A2000824204BF92685A600022026118680138FD
:105A30001860704782B0394BD3F8882042F4700266
:105A4000C3F88820364B1A6842F001021A6000221F
:105A50009A60196821F0847121F48031196031490C
:105A60005960196821F480211960DA60009201926E
:105A70001A6842F480321A601A46136803F400333D
:105A80000193009B01330093019B1BB9009BB3F56D
:105A9000A06FF2D1224B1B6813F4003F14BF012307
:105AA00000230193019B012B32D11D4B1A6C42F054
:105AB00080521A641C4A116841F4804111609A684E
:105AC0009A609A6842F400429A609A6842F4A0523E
:105AD0009A60164A5A601A6842F080721A601A4632
