:020000040800F2
:1000000048F90120851D0008ED390008F139000884
:10001000F5390008F9390008FD3900080000000032
:1000200000000000000000000000000065750008EE
:10003000013A000800000000F57500085576000838
:10004000811D0008811D0008811D0008811D000818
:10005000811D0008811D0008811D0008811D000808
:10006000811D0008811D0008811D0008811D0008F8
:10007000811D0008811D0008811D0008811D0008E8
:10008000811D0008811D0008811D0008811D0008D8
:10009000811D0008811D0008811D000815620008EF
:1000A000811D0008811D0008811D0008811D0008B8
:1000B000811D0008253A0008811D0008811D0008E7
:1000C000811D0008811D0008811D0008811D000898
:1000D000811D0008811D0008811D0008811D000888
:1000E000811D0008811D0008811D0008811D000878
:1000F000811D0008811D0008811D0008811D000868
:10010000811D000871B60008811D0008811D0008CE
:10011000811D0008811D0008811D0008811D000847
:10012000811D0008811D0008811D0008811D000837
:10013000811D0008811D0008811D0008811D000827
:10014000811D0008811D0008811D0008053A000876
:10015000811D0008811D0008811D0008811D000807
:10016000811D0008811D0008811D0008811D0008F7
:10017000811D0008811D0008811D0008811D0008E7
:10018000811D0008811D0008C3684FF0FF325A60CE
:10019000C3686FF080425A61C368014A9A61704730
:1001A0000008008070B582B005460023019303204B
:1001B00006F0CAF9EB681A690192144C032607E0AD
:1001C000304606F0C1F9EB681A690192013C19D07A
:1001D000019A002AF4DA019A42F001020192019A8E
:1001E0001A61EB681B690193084B04E0EA68126925
:1001F0000192013B03D0019A12F0010FF6D10320C6
:1002000006F0A2F9002002B070BD00BF400D03004F
:1002100010B4C4786CB9033300EB8200D0F8D0403E
:100220009B1006D0002251F8040B2060013293424B
:10023000F9D100205DF8044B704700BF70B4033261
:10024000D0F8D060951009D00A460023346842F8EF
:10025000044B01339D42F9D101EB8501084670BC86
:10026000704700BF70B40023C37001238370402324
:10027000838001290DD10123C37208230370042355
:1002800043704FF4A073C380022303724FF0A04564
:100290000CE051B90023C3720C2303700623437092
:1002A0004FF4A063C380204D00E00025C56005F534
:1002B00000630361467866B105F5106203460021CC
:1002C0009A6102F500745C650131203204338E427C
:1002D000F6D805F58063436105F58863C0F8CC3036
:1002E0000678D6B1344605F5A06102460023C2F86F
:1002F00090100133203104329C42F8D86EB105F5DC
:10030000805305EB063101F580510246C2F8D0302A
:1003100003F5805304328B42F8D105F56065C0F8CF
:100320000C51002070BC70470000044038B50446F2
:100330000025037A012B21D1C268936B6FF3104320
:10034000417A09B143F480139363E268D3686FF391
:1003500086136FF396536FF351436FF3D343D36018
:100360002046FFF71FFFE378012B25D1052363F318
:10037000440545F02005E3689D6012E0C268D3683B
:1003800043F04003D360FFF70DFF637A002B0CBFEF
:100390004FF434134FF47413E2689363142006F09F
:1003A000D9F8E378012B07D1E3689D68052262F351
:1003B000440545F020059D60002038BDC3689A685B
:1003C00042F001029A600020704700BFC3689A683B
:1003D00022F001029A600020704700BF00B583B090
:1003E00000230193019B43F020030193019B61F3E0
:1003F0008A130193C368019A1A61C3681B69019348
:10040000084B04E0C26812690192013B03D0019AD3
:1004100012F0200FF6D1032006F096F8002003B06A
:100420005DF804FB400D030000B583B00023019389
:10043000019B43F010030193C368019A1A61C368DA
:100440001B690193084B04E0C26812690192013BE9
:1004500003D0019A12F0100FF6D1032006F074F8C1
:10046000002003B05DF804FB400D030008B5C2682E
:10047000D3686FF35D736FF39E73012902D143F06C
:10048000005302E009B943F08043D360322006F004
:1004900061F8002008BD00BFC3685B6913F0010F5D
:1004A00014BF002001207047C368586900F00100A4
:1004B000704700BFC3685A6998691040704700BF11
:1004C00043691A6861F301021A607047D0F8CC30B2
:1004D000186820F02E00704743695869704700BFC4
:1004E00038B50546FFF7F2FF40F48074D5F8CC30FC
:1004F0001C600A2006F02EF86FF30824D5F8CC30E3
:100500001C60142006F026F8012038BD86B000EBF0
:100510008101D1F89020136843F0404313F4802FF9
:1005200007D1C168C96AC1F3074149B96FF3DF73E5
:1005300006E041690969C1F3074109B96FF3DF7347
:100540001360002006B0704710B400234FF0004243
:10055000012464F3DC4200EB8101D1F890000261D8
:10056000D1F89020116841F0004163F39E71116051
:1005700018465DF8044B704703691A6861F301027D
:100580001A60704738B505460024C3689C61C3688B
:100590006FF080425A61FFF7F7FDEB78A34208BF86
:1005A000102444F4701444F4605444F00804EB68DC
:1005B0009A6914439C61002038BD00BF70B50446A1
:1005C00000252E46D0F80C311D6003691A6865F3CA
:1005D000CC221A60C37A012B1FD10321FFF7CCFF75
:1005E000E26880235362C0F2400563F30F05E268BE
:1005F0009562C02262F30F0663F31F46E368C3F8F7
:1006000004614FF4A07363F30F066FF31F46E368B2
:10061000C3F80861E368C3F80C6120461021FFF7B6
:10062000DDFE2046FFF700FF2269002313612269E7
:10063000536122694FF0FF3191612269D361637880
:10064000002B2ED0234600221646FF259969096803
:10065000C90F00290CBF00204FF090409969086035
:1006600099690E6199698D60013261780433914214
:10067000ECD8B1B1234600221646FF25596D096812
:10068000C90F00290CBF00204FF09040596D086041
:10069000596D0E61596D8D6001320433617891425C
:1006A000ECD823691A6942F480721A61E378012B4D
:1006B00009D10323402262F38A0343F4803362F3B7
:1006C0005943226913632046FFF75CFF002070BD89
:1006D00003699B68C3F34103022B05D0032B05D0AC
:1006E000012B03D003207047012070470220704780
:1006F0000369996883691A68C1F34101022912BF2D
:100700006FF30A02032161F30A021A6003695A684F
:1007100042F480725A600020704700BF30B400225B
:100720004B78012B09D10B7800EB8304A4690125D8
:1007300005FA03F363F30F0208E00B7800EB830480
:10074000646D012505FA03F363F31F42236813F474
:10075000004F0DD18D6865F30A03CD7865F393439F
:10076000C98861F3995343F0805343F400432360F5
:100770000369D9690A43DA61002030BC704700BFC1
:1007800030B400231A464C78012C09D1097800EBCB
:100790008104A469012505FA01F161F30F0208E063
:1007A000097800EB8104646D012505FA01F161F31C
:1007B0001F426FF3CF3323600369D96921EA020234
:1007C000DA61002030BC704770B50B464A78012AC8
:1007D00053D10A7800EB820291690A6809695C6961
:1007E0002CB96FF31201012464F3DC410DE064F3D2
:1007F00012019D682C44013CB4FBF5F565F3DC4126
:10080000DC78012C08BF64F35E711C7800EB840473
:10081000A4692161C178012906D1197800EB810111
:100820008C69196961610CE0D97801290CD059698A
:1008300099B101694D6B1C78012606FA04F42C432A
:100840004C63D978012908D10169896811F4807F46
:100850000CBF42F0005242F0805242F0044219783C
:1008600000EB810189690A60DA78012A40D1D968F0
:100870001A789B8AFFF7CCFC3AE00A7800EB8202F8
:10088000516D0A6809695C6934B99C6864F31201A6
:10089000012464F3DC410CE09D682C44013CB4FB72
:1008A000F5F4C4F3090464F3DC4105FB04F565F3D6
:1008B00012011C7800EB8404646D2161C178012968
:1008C00005D1197800EB81014C6D19696161D97806
:1008D000012906D1597911B142F0005201E042F0EC
:1008E000805242F004421B7800EB8300436D1A6093
:1008F000002070BD30B482B04B78012B48D18269A2
:100900001368146900944C696CB99DF800406FF34A
:1009100006048DF800409DF80240012565F3C404EB
:100920008DF8024017E08D68AC4207D94D619DF803
:10093000004065F306048DF8004005E09DF8005086
:1009400064F306058DF800509DF80240012565F31B
:10095000C4048DF80240009C1461C478012C05D1B8
:100960000C7800EB8404A5690C696C6143F00443C6
:100970001360C378002B48D14B69002B45D0036925
:10098000586B0A78012101FA02F202435A633CE0F3
:100990000B7800EB83035A6D1368126900924A6961
:1009A00072B98C689DF8002064F306028DF800206F
:1009B0009DF80220012464F3C4028DF802200EE0A9
:1009C0008C684C619DF8002064F306028DF80020CD
:1009D0009DF80220012464F3C4028DF802200A78F5
:1009E00000EB8202546D009A2261C278012A05D17F
:1009F0000A7800EB8202546D0A69626143F0044395
:100A00000A7800EB8200426D1360002002B030BC17
:100A1000704700BF4B78012B0CD10B7800EB8300A3
:100A200082691368002BB8BF43F0804343F400137E
:100A3000136007E00B7800EB8300426D136843F40A
:100A400000131360002070474B78012B0B7800EBEC
:100A500083000CBF8269426D13686FF35553C978E8
:100A60000239C9B2012998BF43F0805313600020B6
:100A7000704700BF03699A69D8691040000C70473D
:100A800000EB81014B6D9B6802695069184070470B
:100A900003699869DB69184080B2704782B000230F
:100AA0000093C0238DF803304FF00003012262F35E
:100AB000C4038DF8023018238DF80030436D009A7E
:100AC0001A61C378012B08D1436D00F2CC525A61F0
:100AD000436D1A684FF080221A6002B0704700BF61
:100AE00038B504460D46FF2808D04FF6FF739842EC
:100AF00004D00D4802F008FB284638BDAC4210D2A5
:100B000002F0DAFB50B10122027025EA0402C2F3BE
:100B100007214170120C428002F034FD04EA050006
:100B200038BD284638BD00BF947A020870B5044627
:100B300000283DD01F4B1B68002B39D00F2803D94C
:100B40001D4802F0E1FA70BD1C4B1B681BB11C482C
:100B500002F0DAFA70BDEFF31085012383F31088F9
:100B6000164B1A6801321A60164B1B681B6BCBB10F
:100B700000F12103DA1014498A5C03F0070342FAFA
:100B800003F313F0010F0DD14FF6FF7002F00EFDCD
:100B9000064602F091FB28B10222027046804470A2
:100BA00002F0F0FC054B1A68013A1A6085F31088D0
:100BB00070BD00BF00000020D07A0208380E00206F
:100BC000107B0208AC0D0020280E00202DE9F84310
:100BD00006460F46274B1B68002B49D082EAE27875
:100BE000A8EBE278EFF31085012181F31088224C05
:100BF000216801312160214C21680A4422601B6B6D
:100C000083B394F904300BB963795BBBFF2002F026
:100C1000CDFC81464FF6FF704146FFF761FF8046ED
:100C200002F04AFB0446E8B180F80190002303700B
:100C3000A0F8028002F0A6FC4FF6FF703946FFF7DD
:100C40004FFF074602F038FB60B147800022427038
:100C5000721C0270267002F095FC064B1A68074B56
:100C60001B681365044B1A68013A1A6085F31088F3
:100C7000BDE8F883AC0D0020380E0020900C002059
:100C8000F8B50446FE2803D92A4802F03DFAF8BD1B
:100C9000062903D9284802F037FAF8BD274B1B680C
:100CA000581890F86400904203D2254802F02CFABC
:100CB000F8BD2448006818B1234802F025FAF8BDB1
:100CC00022488079002834D0EFF31085012080F38A
:100CD00010881C480668013606601B6B1BB31B4B53
:100CE00093F9043013B9194B5B79E3B9D6B20846CE
:100CF000314604F01DFDB0B9E308154AD25C04F09A
:100D0000070342FA03F313F0010F0CD14FF6FF7003
:100D100002F04CFC074602F0CFFA20B14780047085
:100D2000467002F02FFC074B1A68013A1A6085F3EF
:100D30001088F8BD807B0208B47B0208AC0D00204F
:100D4000F87B0208380E00203C7C0208900C002042
:100D50003C0E00202DE9F04104461E46FE2804D931
:100D60002F4802F0D1F9BDE8F081062904D92D48B9
:100D700002F0CAF9BDE8F0812B480068451895F8E3
:100D80006450954204D2294802F0BEF9BDE8F081D2
:100D9000274B1B6823B1274802F0B6F9BDE8F08164
:100DA000EFF31085012383F31088214B1F6801376F
:100DB0001F60036B63B3204B9B794BB31E4B5B7976
:100DC0001BB11D4B93F9043013B3D7B20846394613
:100DD00004F0AEFCE0B9E308184AD25C04F0070363
:100DE00042FA03F313F0010F12D1FF2002F0DEFBF1
:100DF0008046FF203146FFF773FE064602F05CFA9C
:100E000030B180F8038004704770867002F0BAFB3E
:100E1000074B1A68013A1A6085F31088BDE8F08123
:100E2000747C0208AC7C0208AC0D0020F87C02083F
:100E3000380E0020487D0208900C00203C0E002057
:100E4000F8B504460E46FE2803D9224802F05CF9A4
:100E5000F8BD214B1B681BB1204802F055F9F8BDC5
:100E6000EFF31085012383F310881B4B1A680132BE
:100E70001A601B4B1B681B6B2BB31A4B9B7913B36C
:100E8000184B5B791BB1174B93F90430DBB1E308C6
:100E9000154AD25C04F0070342FA03F313F0010F82
:100EA00011D1FF2002F082FB07464FF6FF7031465A
:100EB000FFF716FE064602F0FFF920B147700470F6
:100EC000468002F05FFB044B1A68013A1A6085F312
:100ED0001088F8BD807D0208380E0020D47D0208FD
:100EE000AC0D0020900C00203C0E002070B5064692
:100EF0000C46062903D9114802F006F970BD104BC3
:100F00001D686B1893F86430834203D20D4802F0D9
:100F1000FBF870BD2B6B83B102F0E8F928448C30EC
:100F2000002102F06FFC054602F0C6F928B1083432
:100F300004704670458002F025FB70BD0C7E0208EF
:100F4000AC0D00205C7E020870B505460C460629F3
:100F500003D91C4802F0D8F870BD1B4B1B685A1807
:100F600092F86420824203D2184802F0CDF870BD96
:100F70001B6B33B302F0A0F9064610B3032C0ED15D
:100F80002846032102F0B2F90F4B1B681A1992F898
:100F90006C201844024492F88D3073700DE028469E
:100FA000214602F0A3F9084B1B681A1992F86C202D
:100FB0001844024492F88C3073701034347002F08C
:100FC000E1FA70BDA87E0208AC0D0020007F020887
:100FD00038B504461546062803D90E4802F094F8A1
:100FE00038BD0D4B1B68034493F864308B4203D229
:100FF0000A4802F089F838BD0846214602F076F921
:10100000054B1B681C4494F86C201844024482F879
:101010008D5038BD507F0208AC0D0020987F02082B
:1010200010B50446062804D90F4802F06DF80020D8
:1010300010BD0E4B1B68034493F864308B4204D2FE
:101040000B4802F061F8002010BD0846214602F06E
:101050004DF9064B1B681C4494F86C20184402445C
:1010600092F88D0010BD00BFD87F0208AC0D0020A3
:101070002080020838B504461546062803D90E48D4
:1010800002F042F838BD0D4B1B68034493F86430FE
:101090008B4203D20A4802F037F838BD0846214691
:1010A00002F024F9054B1B681C4494F86C2018448A
:1010B000024482F88C5038BD60800208AC0D0020DC
:1010C000A480020810B50446062804D90F4802F08F
:1010D0001BF8002010BD0E4B1B68034493F86430CE
:1010E0008B4204D20B4802F00FF8002010BD0846D6
:1010F000214602F0FBF8064B1B681C4494F86C2058
:101100001844024492F88C0010BD00BFE080020831
:10111000AC0D002024810208F8B504460F2803D93D
:10112000254801F0F1FFF8BD00F12103DA10234951
:101130008A5C03F0070342FA03F313F0010F14BFB4
:10114000012100211E4B5971EFF31085012383F318
:1011500010881C4B1A6801321A60194B9B79834224
:1011600023D0194B1B681B6BFBB1F1B94FF6FF7015
:1011700002F01CFA0746124B9C7102F09DF80646DD
:1011800098B103200E4B9979FFF79CFF01280CBF03
:10119000072306233370778074700320084B9979F6
:1011A0000122FFF767FF02F0EDF9064B1A68013ADA
:1011B0001A6085F31088F8BD60810208280E0020AF
:1011C000900C0020380E0020AC0D002008B50B4B11
:1011D0001B6893F86730834203D2094801F094FFFB
:1011E00008BD032102F082F8044B1B6893F86F20BE
:1011F00018440244002382F88C3008BDAC0D002056
:10120000A4810208836801390D2914D8DFE801F0B0
:10121000090B0D0F131313110716160707070020EC
:1012200070475868704798687047D8687047186961
:101230007047986970474FF0FF3070470120704742
:101240000129024818BF0020704700BFECC0020807
:10125000836800220A804A80DA68013A8A801B6922
:10126000013BCB80704700BF0939072911D8DFE85F
:1012700001F004120608100A0C0E084870470848CE
:101280007047084870470848704708487047084842
:101290007047002070470748704700BFA913000837
:1012A0005913000841130008ED120008DD12000870
:1012B000B91200089113000800B583B00023019310
:1012C0008DF8041002AB43F8082D806904216A46AA
:1012D00000F050FD03B05DF804FB00BF08B5806965
:1012E0000621002200F046FD08BD00BF08B5806958
:1012F0000521002200F03EFD08BD00BF00B583B00F
:1013000000910192806903216A4600F033FD03B029
:101310005DF804FB38B50446836853B91C201CF003
:1013200073FD0546A06023699B68984717F0D6FABD
:10133000A861A068D0F1010038BF002038BD00BF0F
:1013400038B50546FFF7E6FF0446A86901210022EB
:1013500000F010FD204338BD70B582B005460C4644
:101360001646002300930193FFF7D4FFAB686BB1DF
:101370005A69002A08BF22465A615C609E60009448
:101380000196A86907216A4600F0F4FC02B070BD1E
:1013900070B505460C461646FFF7BCFFAB6813B1A7
:1013A000DC601E615C6170BD30B583B004460D46E3
:1013B00000230193FFF7AEFFA3683BB11D6002AAB3
:1013C00042F8045DA069022100F0D4FC03B030BDF6
:1013D00008B5084611461A4604F004FB08BD00BFD4
:1013E00010B50C46134608461146224604F01EFB73
:1013F0002E224FF000431A7003F580331A781B78C1
:101400003223013BFDD1094B1978C9B23223013B8C
:10141000FDD1064B1A78D2B23223013BFDD1034BEA
:1014200018780B0243EA0243184310BD0000018004
:10143000F8B507460D461446FFF7D2FF06463B694E
:101440009B68984780EA06022846214604F0CAFABB
:10145000F8BD00BF2DE9F0470746894615461E46F0
:10146000DDF820A0184B1B68DA6BD2F800801B7CDB
:1014700013F0010F03D1554523DC0F461DE0554500
:101480001FDC88460AE0384621462A46FFF7D0FF8F
:101490000134A642F7DA0135AA4512DBB145FADC80
:1014A0004446F0E720462946424604F09BFA0134C0
:1014B000A642F7DA0135AA4503DBB145FADC3C4622
:1014C000F0E7BDE8F08700BFC002002000B583B0A0
:1014D00000930B46FFF7BEFF03B05DF804FB00BFAF
:1014E00000B583B00092FFF7B5FF03B05DF804FBD1
:1014F0002DE9F04F87B00490039101931099DDF826
:101500004CB0119B013B1F2B00F2B582DFE813F0BA
:1015100034003000B3022C00B302B302B30228003F
:10152000B302B302B302B302B302B302B3022400A4
:10153000B302B302B302B302B302B302B302B30203
:10154000B302B302B302B302B302B302B302200088
:10155000002900F373828EE2002900F351828AE2AF
:10156000002900F3E78186E2002900F3338182E25B
:10157000002900F381807EE2002940F37C82174637
:10158000114405914FF0800ACDF800B0B946159A84
:10159000D2F800B0D2F80480039E149B1E44AC48DD
:1015A00003681B7C03F00303032B5CD8DFE803F024
:1015B00002381D38019D149CDDF800904AFA04F3AE
:1015C00099F800201A4030463946002A0CBF5A4686
:1015D000424604F007FA0134082C04BF09F101095E
:1015E00000240136013DE9D13DE0019D149CDDF868
:1015F00000904FF0000B99F800204AFA04F31A42C9
:1016000004D030463946424604F0ECF90136013444
:10161000082C04BF09F101095C46013DEBD122E031
:10162000049803699B6898478346019D149CDDF8E4
:10163000008098F800204AFA04F31A420AD004986D
:1016400031464A46FFF7CCFE80EA0B023046394667
:1016500004F0C8F901360134082C04BF08F1010870
:101660000024013DE5D1009A129B1A4400920137F3
:10167000059887428AD1FEE1904611440491039B6C
:10168000149A134403930593CDF800B0DDF854B0D9
:1016900000980578039F6E4A13681B7C13F00303C0
:1016A00002D0022B46D08AE0BBF1000F22D0059F6A
:1016B000149C019EDDF800A04FF0C009C4F10303A3
:1016C0005B00C3F1060249FA02F22A4022FA03F350
:1016D000384641465BF8232004F084F90134042C99
:1016E00004D19AF801500AF1010A00240137013EA1
:1016F000E4D164E0059F149C019EDDF800A04FF04A
:10170000C009C4F103035B00C3F1060249FA02F207
:101710002A4038464146DA4004F064F90134042C8A
:1017200004D19AF801500AF1010A00240137013E60
:10173000E7D144E0BBF1000F22D0149C019EDDF8FC
:1017400000A04FF0C009C4F103035B00C3F106021F
:1017500049FA02F22A4032FA03F305D038464146EC
:101760005BF8232004F03EF901370134042C04D146
:101770009AF801500AF1010A0024013EE3D11EE06B
:10178000149C019EDDF800A04FF0C009C4F10303D2
:101790005B00C3F1060249FA02F22A40DA4003D0A4
:1017A0003846414604F01EF901370134042C04D1B7
:1017B0009AF801500AF1010A0024013EE6D1009B8B
:1017C00012980344009308F10108049A90457FF4AD
:1017D0005FAF50E19046511804910398149B184450
:1017E00003900590CDF800B0DDF854B0009A15785C
:1017F000039F174803681B7C13F0030302D0022BDE
:1018000048D08CE0BBF1000F24D0059F149C019EB2
:10181000DDF800A04FF0F009C4F101039B00C3F113
:10182000040249FA02F22A4022FA03F338464146FA
:101830005BF8232004F0D6F80134022C04D19AF886
:1018400001500AF1010A00240137013EE4D166E0AB
:10185000C0020020059F149C019EDDF800A04FF0FF
:10186000F009C4F101039B00C3F1040249FA02F23A
:101870002A4038464146DA4004F0B4F80134022CDC
:1018800004D19AF801500AF1010A00240137013EFF
:10189000E7D144E0BBF1000F22D0149C019EDDF89B
:1018A00000A04FF0F009C4F101039B00C3F1040252
:1018B00049FA02F22A4032FA03F305D0384641468B
:1018C0005BF8232004F08EF801370134022C04D198
:1018D0009AF801500AF1010A0024013EE3D11EE00A
:1018E000149C019EDDF800A04FF0F009C4F1010343
:1018F0009B00C3F1040249FA02F22A40DA4003D005
:101900003846414604F06EF801370134022C04D108
:101910009AF801500AF1010A0024013EE6D1009A2A
:10192000129B1A44009208F10108049880457FF444
:101930005DAFA0E0154601EB0209DFF84081039F8F
:101940003E46019A1644CDF80890B946159FD8F83E
:1019500000301B7C13F0030302D0022B24D048E09C
:101960001FB9019B002B12DC43E00198002840DDE9
:101970004C46C9EB0B0A1AF804302046294657F8A2
:10198000232004F02FF80134B442F4D131E04C4666
:10199000C9EB0B0A204629461AF8042004F022F865
:1019A0000134B442F6D124E01FB9019A002A13DCB5
:1019B0001FE0019B002B1CDD4C46C9EB0B0A1AF8FB
:1019C00004302BB12046294657F8232004F00AF8AA
:1019D0000134B442F3D10CE04C46C9EB0B0A1AF8BF
:1019E00004201AB12046294603F0FCFF0134B4421A
:1019F000F5D1129883440135029A9542A7D13AE075
:101A0000174601EB0209DDF80C80019B9844039E08
:101A1000DDF848A0019800280BDDABF10205344643
:101A20002046394635F8022F03F0DCFF01344445E7
:101A3000F6D1D34401374F45ECD11CE0174601EBFA
:101A40000209DDF80C80019A9044039EDDF848A05D
:101A5000019B002B0BDDABF10405344620463946D3
:101A600055F8042F03F0BEFF01344445F6D1D344AA
:101A700001374F45ECD107B0BDE8F08FC002002020
:101A800008B54FF40060012101F0A2FF4FF400609F
:101A9000002101F09DFF08BD10B40B4A5368446853
:101AA00081680C43C1680C4301680C430169214300
:101AB00023F4FD4323F07F030B43007D0343536076
:101AC0005DF8044B704700BF002C0140014B1860CB
:101AD000704700BFA0802542014B1860704700BFCF
:101AE000002C0140024B186800F00300704700BF53
:101AF000002C014010B40268094B9A60DA6822F4A5
:101B0000FF6222F00702846841680C43C1682143E8
:101B1000006901430A43DA605DF8044B704700BF77
:101B2000002C0140014B1869C0B27047002C0140E5
:101B300082B000230193034B03440193019B186877
:101B400002B07047142C014010B40268094B5A626D
:101B500042689A62DC6A24F0F704C2688168114323
:101B600002690A43406902432243DA625DF8044B8A
:101B7000704700BF002C0140014BD3F88000704734
:101B8000002C0140014BC3F880007047002C01403D
:101B900021B1054BDA6B1043D8637047024BDA6B07
:101BA00022EA0000D8637047002C0140034B5B6BB6
:101BB00018420CBF00200120704700BF002C0140DC
:101BC000014B9863704700BF002C0140034B5B6BD7
:101BD00018420CBF00200120704700BF002C0140BC
:101BE000014B9863704700BF002C014038B5044694
:101BF00003681D2B02D0262B2CD02FE040681949FA
:101C00000BF05EFE606840F60B0110F0E7FE054643
:101C100015490CF05DF828466FF07F410BF0F0FF9E
:101C2000606840F60E0110F0D9FE05460F490CF031
:101C30004FF82846FF210BF0E3FF28460E210BF05A
:101C4000FBFF606840F6120110F0C8FE4A210CF05C
:101C5000C1FA38BD806810F095FD38BD13F0D0F999
:101C600038BD00BF0707070088E10208D0C5020899
:101C700000B583B010F0F0FE0346002200920192FE
:101C800003480921034A0CF0CDFF03B05DF804FBC3
:101C900020820208ED1B000808B504484FF4FA2121
:101CA0001CF080FA02481AF013FF08BD000000681B
:101CB00084E4020808B5024821F086FB08BD00BF95
:101CC0006083020808B510B1012804D007E0064877
:101CD00021F07AFB08BD054821F076FB08BD0448D9
:101CE00021F072FB08BD00BF7483020888830208DC
:101CF0009C83020808B5024821F066FB08BD00BFBE
:101D0000B483020808B5024821F05EFB08BD00BF9D
:101D1000CC83020808B5024821F056FB08BD00BF7D
:101D2000E083020808B5024821F04EFB08BD00BF61
:101D3000F483020808B5024821F046FB08BD00BF45
:101D40000884020808B509480949002213461AF018
:101D50007FFD00204FF4A071F02216F023FB00203D
:101D60004FF4A071F02216F003FB08BDEC810208CD
:101D70002414030801290CBF00204FF0FF307047E6
:101D8000FEE700BF10B5124B124A9A420DD2131D46
:101D9000114CE41A24F003040434002310460F49C4
:101DA0005A581A500433A342FAD10D480D494FF046
:101DB00000028842B8BF40F8042BFFF6FAAFDFF804
:101DC0002800016841F47001016000F0DBFE10BDE5
:101DD000DC0B002000000020DF0B00209C18030813
:101DE000900C00204839012088ED00E020230B8072
:101DF000004870472000002010B50446812107F0FC
:101E0000D9FD2046012107F0D5FD20460AF02CF926
:101E1000002010BD10B50446FFF7EEFF20468121DB
:101E20004022022307F09CFD20460121402202238C
:101E300007F096FD20460AF0E3F8002010BD00BF31
:101E400070B506460C460B7813F060053FD0202D88
:101E500061D14A78FE2A02D0FF2A23D033E04A8893
:101E6000D2B9CA88012A17D113F0800F14D02B4B96
:101E70001B689B699847C0B2294B187030B1304637
:101E8000194601220AF04CF8002545E0304621466B
:101E900004F0A4FB02253FE03046214604F09EFBFF
:101EA000022539E04A8842B9CA8832B913F0800F56
:101EB00003D10AF0C7F800252EE03046214604F091
:101EC0008DFB022528E004F089FB022524E04B78F5
:101ED0000A2B04D00B2B07D0012B1DD108E0114990
:101EE00001220AF01DF817E04A880D4B5A7013E0E2
:101EF000097907F0EFFD3046217907F05BFDA188F5
:101F00003046C9B24022022307F02AFD304621792B
:101F10000AF062F900E00025284670BDAC00002000
:101F2000980C0020990C002008B50AF0BFF800209A
:101F300008BD00BF08B50AF0D7F8002008BD00BFF3
:101F400010B50446D0F8E8351B699847032384F898
:101F50001231002010BD00BF08B590F8123180F892
:101F60001331042380F81231D0F8E835DB68984744
:101F7000002008BD08B5D0F8E435DB6903B1984707
:101F8000002008BD08B5D0F8E4351B6A984700204A
:101F900008BD00BF08B5D0F8E4355B6A984700205B
:101FA00008BD00BF10B50446002140220B4607F0D3
:101FB000D7FC204680214022002307F0D1FC0123DA
:101FC00084F81231D4F8E8355B68A078984700208F
:101FD00010BD00BF10B582B00446694604F0DCFABB
:101FE0009DF8001001F01F03012B08D013B1022B44
:101FF0000AD00EE02046694604F0FEFA0EE02046C4
:10200000694604F097FC09E02046694604F0AEFCFE
:1020100004E0204601F0800107F01CFD002002B022
:1020200010BD00BF10B504460A46002948D190F8FB
:102030001131022B38D1D0F83821D0F824319A420E
:1020400011D9D21AC0F83821C178012904D1D0F8A9
:1020500028110B44C0F828312046D4F8281192B238
:1020600009F070FF20E0D0F83C21B2FBF3F103FB54
:10207000112161B993420AD8D0F840319A4206D270
:102080000A4609F05FFF0023C4F840310CE0D4F8A1
:10209000E435DB682BB194F81221032A01D12046E4
:1020A0009847204609F072FF94F81631012B11D1A0
:1020B0002369094A12685A60002384F8163109E03E
:1020C000D0F8E4355B692BB190F81211032901D1E6
:1020D00011469847002010BD100A012010B5044693
:1020E0000A4659BB90F81131032B31D1D0F8902317
:1020F000D0F87C339A4214D9D21AC0F89023C17810
:10210000012904D1D0F880131944C0F880139A42F1
:1021100028BF1A462046D4F8801392B209F01CFF5B
:1021200016E0D0F8E4351B6923B190F81221032A98
:1021300000D19847204609F019FF09E0D0F8E435AE
:102140009B692BB190F81211032901D111469847D0
:10215000002010BDF8B504460D4616461F4604F093
:1021600091F9C4F8E475069BC4F8E835C4F8EC6549
:102170002046294607F0A6FBD4F8E8351B689847A7
:10218000204604F0C9F9F8BD10B50446D0F8E4358E
:102190001B689847D4F8E8359B689847002010BD25
:1021A00008B5D0F8E4355B689847002008BD00BF4B
:1021B00008B505F0E7F907F041F905F005FA08BDA3
:1021C0002DE9F04184B002F0A7F916F001FB0546B5
:1021D00016F012FB064610F03FFC294632460DF081
:1021E000B7FF4FF00208CDF80080184F0197002488
:1021F000029420463C214FF4A072F02312F0ACF977
:102200000090CDF804800297039420463C212A4692
:10221000A6F13C0312F0A8F800900D4B01930D4B72
:1022200002930394204621462A464FF4167312F077
:102230009BF805464FF4B97418F038FF284621463C
:1022400010F0CCFB0CF002FFF6E700BF59220008AB
:10225000020004005523000808B512F0D1FE08BDA5
:1022600008B512F0CDFE08BDF0B585B0046843682E
:10227000052B5CD120460CF0E9FE0746204610F005
:1022800007FA0546204610F021FA0646204603A923
:1022900004220DF07FF9002F264808BF6FF07F4021
:1022A00018F08AFC1AF01AFC234C039B03EB43033F
:1022B00054F8230018F08CFC0C2700970A20062104
:1022C000392235231CF010FA6FF07F4018F080FCA3
:1022D000039B03EB430304EB8303586812210E2294
:1022E00019F02AFF002018F073FC144818F028FC9D
:1022F000384618F007FC039B03EB430304EB83030E
:10230000986850211E221AF063F90D4818F060FCFD
:10231000701E50216A1E19F0BFFA183E06EBD672E5
:1023200004F17800A5F12801521019F005FF0020F2
:1023300005B0F0BDCCCCCC0020840208D0C502088A
:10234000C8C7CC0010B502F0E7F83224204618F0D8
:102350008DFAFBE72DE9F04788B00446466803682C
:10236000262B05D0302B53D0012B40F087805BE02B
:10237000806810F007FAE368022B07D0032B43D0E4
:10238000012B7DD10122404B1A6079E03E4B1B6846
:10239000002B75D06368A0F5B87008AD45F8080D3E
:1023A000184610F0C5F910F0C3F9044610F070F9A2
:1023B0000746204610F08AF9034602220092334A6B
:1023C000019204260296002001463A4612F0C4F813
:1023D0000746294632460DF02DFA204640F2DC51E0
:1023E000002213F075FD40F2DC5018F03FFA204651
:1023F00040F2DC51002213F001FC384612F0A0F943
:102400000022214B1A603BE000221F4B1A6037E08C
:10241000C26813682BB1012B32D100221A4B1A600B
:102420002EE03C2313622BE0304610F031F9814658
:10243000002307934FF002081D46154FC3EB03110D
:102440000096CDF80480029503F5B8730393042435
:102450000494284689004A463C230CF0D3FF824668
:1024600039460CF0D7FD504607A922460DF08EF8EC
:10247000079B01330793092B02D8DFE712F0C0FD59
:1024800008B0BDE8F08700BF9C0C00209524000830
:102490006922000800B587B0426803680F2B1ED17F
:1024A000104605A904220DF0A3F9059B022B18D1B3
:1024B000062300930C4B01930023029303930B48D4
:1024C0000B494FF4806201F03DFE0A4803F086FF9D
:1024D00003F046FF084B186801F04AFF01E012F0D4
:1024E0008FFD07B05DF804FB900C0120392D00082A
:1024F00048A0020854A00208A00A01202DE9F047D4
:1025000084B002F009F802250095244B01930024C1
:102510000294204621464FF4A0723C2312F01CF88E
:10252000009001951E4B02930394204621464FF4E0
:10253000A0723C2311F018FF0546DFF86CA0DFF80D
:102540006C90DFF86C80642740F61906384602F07C
:1025500009F928460EF040FA2846314610F03EFAB6
:1025600004460CF073FD0028F0D020460CF06EFD00
:102570000028FAD106230093CDF8048000230293AB
:102580000393504649464FF4806201F0DBFD054B52
:10259000186801F0EDFE1AF0A1FAD4E761220008F4
:1025A000B5250008900C0120C12100085CA002089C
:1025B000A00A012070B584B00446456803680F2B5B
:1025C0004AD002DC012B07D081E0262B2DD040F22F
:1025D0001312934216D07AE000950223019300244F
:1025E000029440F6180303930A200F213222282375
:1025F0000CF052FF284621464FF47A7223460DF024
:1026000021FC67E0344B5B680133052B02D0324A72
:10261000536002E00022304B5A60284611F048FE19
:10262000E06800210DF04EFC54E0C3682A4A936034
:10263000012B4FD106230093284B019300230293D3
:102640000393274827494FF4806201F07BFD264B16
:10265000186801F08DFE3DE0284610F019F8044698
:10266000224818F0B5FA651E002001462A46392393
:1026700018F0EEFC1E4818F0ABFA00203A212A466A
:102680003B2318F0E5FCA4F11E051A4E06F18C0060
:102690002946032219F050FD0F4B5B6806EB8306B9
:1026A000D6F8A0002946032219F046FD124818F07A
:1026B00047FA002018F08CFA022018F013FA04EB05
:1026C000D4710E484910142219F068FF02E0204628
:1026D00012F096FC04B070BD9C0C0020A00A0120F2
:1026E000C12100085CA00208900C0120F8F8F80055
:1026F000B2B2B200208402089CF9020864A0020869
:102700000B4B4FF47A721A850122DA625A63198BE5
:1027100089B241F068011983198C89B241F0060130
:102720001984198C89B2114319841A80704700BF2B
:10273000000C0040384B4FF0AC629A601A6842F4CB
:1027400080321A601A46136813F4003FFBD040F23F
:102750000472324B1A60A3F58063314A5A601A68DA
:1027600042F080721A601A46136813F0007FFBD0A3
:10277000294A936843F4144343F002039360936837
:1027800013F0080FFBD0274BD3F8882042F47002D7
:10279000C3F88820204B1A6B42F001021A631A6BAF
:1027A00042F002021A631A6B42F004021A631A6BB7
:1027B00042F008021A631A6B42F010021A631A6B95
:1027C00042F020021A631A6B42F040021A631A6C3C
:1027D00042F080521A641A6B42F480021A639A6BB8
:1027E00042F001029A631A6C42F008021A641A6CF1
:1027F00042F480021A645A6C42F480425A641A6BA2
:1028000042F480521A635A6B42F040025A635A6C87
:1028100042F400625A64704700380240003C0240B3
:102820000854400700ED00E008B54FF4407006F092
:10283000FDFF08BDF0B583B0AF4C236843F480536F
:102840002360A36843F44053A360636943F04003EB
:102850006361236843F002032360A36843F003032A
:10286000A360204600210C2203F01CF8236843F0EB
:1028700008032360A36843F00C03A36020460121F2
:102880000C2203F00FF8236843F400732360A3685D
:1028900043F44073A360204604210C2203F002F8A5
:1028A000236843F400632360A36843F44063A36098
:1028B000204605210C2202F0F5FF236843F4004373
:1028C0002360A36843F44043A360204607210C2201
:1028D00002F0E8FF236843F400032360A36843F495
:1028E0004003A36020460B210C2202F0DBFF23688B
:1028F00043F000532360A36843F04053A360204695
:102900000E210C2202F0CEFF236843F00043236027
:10291000A36843F04043A36020460F210C2202F03D
:10292000C1FF764E336843F400433360B36843F429
:102930004043B360304607210C2202F0B3FF3368F6
:1029400043F400333360B36843F44033B36030463C
:1029500008210C2202F0A6FF336843F40023336001
:10296000B36843F44023B360304609210C2202F0DF
:1029700099FF336843F400133360B36843F44013A2
:10298000B36030460A210C2202F08CFF5C4F3B689A
:1029900043F004033B607B6843F002037B60BB6849
:1029A00043F00C03BB607B6943F002037B617B8BCC
:1029B0009BB243F002037B833B6843F010033B6010
:1029C000BB6843F03003BB607B6943F004037B6169
:1029D0003B6843F002033B60BB6843F00303BB600A
:1029E0003B6A43F002033B62464D2B6843F480236D
:1029F0002B60AB6843F40023AB606B6943F4007356
:102A00006B616B8B9BB243F400736B832B6843F059
:102A100040032B60AB6843F08003AB606B6943F00D
:102A200008036B612B8B9BB243F008032B83364B5F
:102A30001A6842F480221A609A6842F400229A606E
:102A40005A6942F400725A615A8B92B242F400728F
:102A50005A83AB6843F04053AB60EB6843F080535C
:102A6000EB602B6843F400532B60AB6843F4405396
:102A7000AB6028460621022202F014FFB36843F43B
:102A80004073B360F36843F48073F360B36843F05A
:102A9000C003B360F36843F04003F3602B6843F472
:102AA00000132B60AB6843F44013AB6028460A2147
:102AB000042202F0F7FE2B6843F400032B60AB689E
:102AC00043F44003AB6028460B21042202F0EAFEE7
:102AD0000E4B9A6842F480629A60DA6842F480622F
:102AE000DA604FF48073009300238DF804308DF882
:102AF0000730384669460BE0000C024000100240E7
:102B0000000002400004024000140240000802409D
:102B100002F074FE638B9BB243F04003638303B007
:102B2000F0BD00BF30B58BB0002406940794089424
:102B3000099406A801F0DAF900948DF80440012503
:102B40008DF805500294039404948DF8145068464F
:102B500001F0C2F904F1804404F59034204669463E
:102B600001F092F9204609212A46072301F0E0F9F5
:102B70002046294601F026FA2046294601F0CCF9E4
:102B80000BB030BD30B587B003F0F4F8FFF7D2FDDD
:102B9000FFF74AFEFFF74EFEFFF7B2FD424B1A8BDE
:102BA00092B242F040021A8308F056FE02F0A6FEEE
:102BB00002F0F6FE012006F0B1FD03F07DF903F00E
:102BC00071FA09F0A7F809F029F809F03FF8374B36
:102BD0001B6913F0100F08D1354B009335480121C4
:102BE000354A364BFFF7B6FAFEE703F0A7FB0420A1
:102BF0000DF0BEFB19F0C2FF01200FF027FC0CF016
:102C0000F1FB4FF48070012100F0C6FE0223049313
:102C100003228DF814208DF81730294804A902F0FA
:102C2000EDFDFFF77FFF07230093264B0193002460
:102C300002940394244825494FF40062234601F08E
:102C400081FA06250095224B0193029403942148B2
:102C500021494FF48062234601F074FA00951F4B1E
:102C60000193029403941E481E494FF48062234648
:102C700001F068FA1C4B00931C483C2101221346CA
:102C800000F04EFF04461A4B186040B101F044FCBE
:102C90000246002300932046012100F07FFF01F04F
:102CA000F9FB002007B030BD000C024000100240CC
:102CB000040000203CFB0020F80000204000002021
:102CC00000040240180A01204523000870A00208F1
:102CD000940C0120FD2400087CA00208A00A012019
:102CE000C12100085CA00208B121000884A00208EC
:102CF000A40A01200122014B1A7370479C0C00208A
:102D00000122014B5A7370479C0C002070B5064697
:102D10000D460124204606F017FD0028FAD006F0E3
:102D20000DFD0446012006F019FDB4FBF5F305FB8B
:102D30001340304470BD00BF2DE9F04FADF2E44DBB
:102D400001F0EAFB0024ADF8DE4404F01BFC17A8F8
:102D50009E49224606F032F9A4A89D4906F0BEFA23
:102D6000AEA89C49012206F05BF99B4B1593FF230B
:102D70001693079400E00134A4A80FA906F0F0FA16
:102D800018B99DF84530002BF5D10794E1B20A91AE
:102D9000924CA61E079A16440D4690461CE0002051
:102DA0004146FFF7B3FF08F1FF33002B0BDDBDF801
:102DB000DE34621E12F8011F814208BF0123B242B5
:102DC000F8D1ADF8DE34BDF8DE3413B9E0553D4638
:102DD00002E00023ADF8DE346F1EFFB2002DDED11D
:102DE0000A950024ADF8DE4404F0EEFB7C4817F0B1
:102DF000A7FEFEF73DFF8146784B6D2283F8FC204D
:102E0000752283F8FD20732283F8FE20692283F85F
:102E1000FF20632283F800212F2283F801210594EB
:102E200001230B93099406946C4901F5B47B6D4C16
:102E3000DFF8C8A1282001F095FC484640F60B01B8
:102E40000FF0CCFD0C90484640F612010FF0C6FD85
:102E50000546484640F60A010FF0C0FD0890484676
:102E600040F608010FF0BAFD8046484640F60901D9
:102E70000FF0B4FD0646484640F611010FF0AEFDD6
:102E80000746002008F036FE04F07CFBAEA8594649
:102E90004FF480620DF2DE4306F062F940BB284633
:102EA0000BF0C4F90D90012008F030FEBDF8DE34BF
:102EB0006BB100251BF8050008F036FE236913F4FA
:102EC000807FFBD00135BDF8DE34AB42F2DC002060
:102ED00008F01CFE0D9BDAB20B20114608F056FEDE
:102EE000BDF8DE34B3F5806F069938BF0121069135
:102EF00008F07CFE08F0A4FF4FF47A7303FB00F0A7
:102F00000028B8BF0730C010099A92FBF0F50420E2
:102F100008F0D8FE642101FB00F1089891FBF5F15F
:102F20000BF08EFC04F050FBDAF8103013F0100FA9
:102F300019D1DAF8103013F0100FFAD00B9B43B10F
:102F4000294B1A8B92B242F400721A8300210B9122
:102F500009E0254B5A8B92B242F400725A8302F078
:102F60001FFD01220B9240460CF070F830B1404634
:102F70000CF06CF80028FAD10123069338460CF0C7
:102F800065F8A8B138460CF061F80028FAD106239C
:102F90000093164B019300230293039314481549A1
:102FA0004FF4806201F0CEF8134B186801F0E0F99D
:102FB00030460CF04BF818B330460CF047F80028B8
:102FC000FAD10599023905911EE000BF34A3020829
:102FD0008CA0020894A00208AC0C002000D0076866
:102FE00088E102080000024000040240A00A01201B
:102FF000C12100085CA00208900C012000100240D2
:10300000069A012A7FF416AF04F0BCFA059B01333F
:1030100007998B4208BF002305932E4B1593FF237E
:1030200016932D4A02F2011602F265113346002270
:1030300003F8012F8B42FBD1A4A8284906F04EF9D2
:10304000254A0599535C5BB10A9D0F46A4A80FA9B8
:1030500006F086F90135EDB21F49CB5DAB42F5D1E3
:10306000A4A80FA906F07CF9D8B99DF84530C3B1E2
:1030700004F0AAFA159A137843B1013206F8013F19
:10308000159212F8013B002BF8D10AE006231249F1
:1030900001F1FC020FA91944C97899540133132B8B
:1030A000F5D108F0BBFD04F06DFAAEA80A4A02F1B2
:1030B000FC01012205F0B4FFB19B099304F084FAEE
:1030C0000C98054A02F581710AF0D0FD00230693A1
:1030D000B0E600BFAC0C002000D007688CA002084E
:1030E000FEE700BF70B582B0064E4FF47F45022464
:1030F00000950194304605210A22FF2302F09CFD31
:10310000F6E700BFA4A0020810B5014618B90E48A2
:10311000FFF7FAFF10BD0D4B186818B90C48FFF700
:10312000F3FF10BD00220263084A526852B9074CEF
:10313000616000F2DC70502220F054FA2368012212
:10314000C3F8D42710BD00BFFCA00208AC0D0020BE
:1031500024A102082DE9F84F504B1B68504A126811
:103160001A44504B1A60504D504C2C6020460021A0
:103170004FF4BF5220F0DAF84FF0010363700223DE
:10318000A3700323E370702323714FF0710984F857
:1031900005904FF0720884F806807327E771F023DA
:1031A0002372F12666724FF0F20B84F80AB04FF0EA
:1031B000F30A84F80BA041F6A123A3810423A3738F
:1031C0004FF4BF5323614FF47A73A3614FF0F03390
:1031D000636502F007FA28684FF0F133C0F8243431
:1031E0004FF44873C0F828340123C0F82C3400F59C
:1031F000FA634FF07E521A604FF0F233C0F8D837BE
:1032000000F2DC702A49502220F0ECF92B684FF0D4
:10321000F332C3F82C280A2141F2D47299540B21BD
:1032200041F2D57299540C2141F2D67299540D2174
:1032300041F2D772995441F2D87203F8029041F2E8
:10324000D97203F8028041F2DA729F54742141F27C
:10325000DB72995441F2DC729E5441F2DD7203F844
:1032600002B041F2DE7203F802A0F42141F2DF72F3
:10327000995402F00DFA29680B7843B90B460C31CA
:103280001A78013203F8012B8B42F9D102E0094888
:10329000FFF73AFF06F06AFABDE8F88F041000E085
:1032A000A012002078240120AC0D0020980C0120F1
:1032B00058A102086CA1020808B50A4B1B681A6BDA
:1032C0006AB1D869B0F57A7F04D30748FFF71CFFCD
:1032D000002008BD03EB800000F5036008BD00205E
:1032E00008BD00BFAC0D002098A1020808B5062952
:1032F00004D90F48FFF708FF002008BD30B10D4B7F
:103300001B685A1892F86420824204D20A48FFF7D8
:10331000FBFE002008BD5A1892F87420013803EB18
:103320004103B3F87C3002FB003080B208BD00BF1F
:10333000C0A10208AC0D002000A2020838B5062882
:1033400004D95648FFF7E0FE002038BD544A02EB8E
:1033500040031B8993671A4492F8402042B9504AAF
:10336000D1185D1C02EB4002947D2A1B81F840209D
:103370004B4AD11891F8401002EB4002928C9A42CD
:1033800005D202F0ADF9FFF7BFFE002038BD0133D2
:103390009BB2434A02EB40042381E48A1B1B02EBED
:1033A0004002528E934204DD3D4A02EB4002DBB202
:1033B000538606286FD8DFE800F0041426386E4ADA
:1033C0005C00374B03EBD10301F00702012000FA48
:1033D00002F293F87C0020EA020283F87C2008467F
:1033E00038BD01F10B022E4B03EBE20302F00702A2
:1033F000012000FA02F293F87C0020EA020283F82E
:103400007C20084638BD01F11602254B03EBE20390
:1034100002F00702012000FA02F293F87C0020EA91
:10342000020283F87C20084638BD01F121021C4BC2
:1034300003EBE20302F00702012000FA02F293F824
:103440007C0020EA020283F87C20084638BD01F1A6
:103450003102134B03EBE20302F00702012000FAF2
:1034600002F293F87C0020EA020283F87C200846EE
:1034700038BD01F134020A4B03EBE20302F007020C
:10348000012000FA02F293F87C0020EA020283F89D
:103490007C20084638BD084638BD00BF40A202085F
:1034A000AC0D002010B5062803D91448FFF72CFEF8
:1034B00010BD31B1124B1B68034493F864308B424A
:1034C00003D21048FFF720FE10BD0D4B03EB400266
:1034D0001289541E03EB4003DB8A9C4203DA0A483C
:1034E000FFF712FE10BD013A92B2054B03EB40000C
:1034F00002811A4482F8401010BD00BF84A2020865
:10350000AC0D0020C8A2020808A3020838B5044682
:1035100015461AB91748FFF7F7FD38BD062803D935
:103520001548FFF7F1FD38BD19B91448FFF7ECFD58
:1035300038BD134B1B68034493F864308B4204D2AC
:1035400002F0CEF8FFF7E0FD38BD08462146FFF750
:10355000CDFE0B4BA3F884005B684BB9084B1B688E
:10356000184423448C30294693F86C2020F03AF814
:1035700038BD00BF38A3020868A3020894A302085C
:10358000AC0D002008B5084B1B681A6B52B15A6984
:1035900001325A61DA690132DA61B2F57A7F01D318
:1035A00002F0D0FE08BD00BFAC0D002030B583B0E6
:1035B000044600230193FF2808D04FF6FF7398427A
:1035C00004D02848FFF7A0FD002049E001A806F03C
:1035D00001F9019A244BD3F88850551BC3F8882071
:1035E0001B68596AD9B18D420AD9B5FBF1F2D86A84
:1035F0001044D86201FB1251986A0844986202E0B4
:103600009A6A2A449A62184B1B68996A5A6A9142CC
:1036100006D3D86A0130D8628A1A9A6200E09A62A8
:10362000A5421BD9FFF748FEC0B14FF6FF72944286
:1036300006D1A92202702A0C4280002242700BE0BF
:10364000FF2C06D1A82202702A0A42802A0E42705C
:1036500002E00648FFF758FDFFF794FF04EA050073
:1036600003B030BD18A40208AC0D002058A4020815
:103670002DE9F0479146244A166801F56A7136F83B
:103680001140824628B92148FFF73EFD0020BDE8E1
:10369000F087B9F1000F03D044B92046BDE8F087A8
:1036A0001B48FFF731FD0020BDE8F0874FEA1328E3
:1036B000DFB22546331993F83234BB4212D13319A5
:1036C00093F8333443450DD1231DF2184A4492F840
:1036D00030243AB904F23440304451464A461FF08F
:1036E00027FF50B1354495F8314495F8303403EB59
:1036F0000424A4B2002CDCD102E02046BDE8F0870F
:103700002046BDE8F08700BFAC0D00207CA4020875
:10371000B8A40208F8B51446864620B92148FFF738
:10372000F3FC0020F8BD22B91F48FFF7EDFC002094
:10373000F8BD1E4A1268D2F82C542E1D3719B7F561
:10374000487F04D31A48FFF7DFFC0020F8BD01F5DD
:103750006A7732F81710154485F83014090A85F88D
:10376000311485F832341B0A85F8333406F5866047
:103770001044714622461FF035FF0C4B1B68D3F8EE
:103780002C24A0181918002581F8345423F8172088
:103790000530C3F82C04C4F57F44FB34204480B2C8
:1037A000F8BD00BFF0A402082CA50208AC0D002053
:1037B00064A5020838B518B90F48FFF7A5FC38BD55
:1037C00019B90E48FFF7A0FC38BD1AB90C48FFF72D
:1037D0009BFC38BD037843B1002501241D4401340E
:1037E00010F8013F002BF9D101E00025012405F07C
:1037F0003F050D70147038BDA4A50208D8A50208B5
:1038000008A6020870B582B00D4600228DF8072088
:103810008DF80620044620B91948FFF775FC0020F2
:103820002CE00DF106010DF10702FFF7C3FFEFF3E6
:103830001086012383F31088124AD2F88C300133AA
:10384000C2F88C3020469DF806109DF807202B46C4
:10385000FFF70EFF024640B920469DF806109DF87E
:1038600007202B46FFF756FF0246064BD3F88C1075
:103870000139C3F88C1086F31088104602B070BD71
:103880003CA60208AC0D002010B4244B9B6803F04A
:103890000C03042B05D0082B06D003BB204B036080
:1038A0001FE01F4B03601CE01C4B59685A6802F074
:1038B0003F0211F4800F08BF184B5968C1F38811FB
:1038C000174BB3FBF2F303FB01F3144A5268C2F344
:1038D000014201325200B3FBF2F3036001E0104BEE
:1038E00003600E498B68C3F303130E4AD35CDBB24B
:1038F000046824FA03F343608C68C4F38224145DE3
:10390000E4B223FA04F484608968C1F34231525C62
:10391000D2B2D340C3605DF8044B70470038024018
:103920000024F4009C00002021B1054B1A6B1043C9
:1039300018637047024B1A6B22EA00001863704745
:103940000038024021B1054B5A6B10435863704751
:10395000024B5A6B22EA000058637047003802405D
:1039600021B1054B9A6B104398637047024B9A6BD9
:1039700022EA0000986370470038024021B1054BED
:103980001A6C104318647047024B1A6C22EA00004C
:10399000186470470038024021B1054B5A6C10433F
:1039A00058647047024B5A6C22EA00005864704712
:1039B0000038024021B1054B1A6A10431862704763
:1039C000024B1A6A22EA000018627047003802406F
:1039D00021B1054B5A6A104358627047024B5A6A2C
:1039E00022EA00005862704700380240704700BF6A
:1039F000FEE700BFFEE700BFFEE700BFFEE700BF37
:103A0000704700BF08B50648FCF74EFD18B10448E2
:103A100009F02EFE08BD024803F0ECFE08BD00BF11
:103A20003CFB002008B502F09BFD08BD10B5044624
:103A30004160206191420AD8D21A81698A4211D22A
:103A40000A4B1868211D02F069F9002010BD9A4246
:103A500001D2994208D2054B5868211D02F05EF947
:103A6000002010BD012010BD012010BD600E0020FF
:103A700070B503F087FD134B9B68FBB9114C04F143
:103A80000C06304602F02EF904F12005284602F01B
:103A900029F9666025600A200C21002203F0EAF86B
:103AA000A06040B94FF0F00383F31188BFF36F8F2C
:103AB000BFF34F8FFEE7044903F0C4FC03F084FD1D
:103AC00070BD00BF600E00206CA6020800B585B076
:103AD000FFF7CEFF0E4B9B686BB10B2300930D4B92
:103AE00001930023029303930B480C494FF4007297
:103AF00000F028FB40B94FF0F00383F31188BFF3C7
:103B00006F8FBFF34F8FFEE705B05DF804FB00BF7A
:103B1000600E0020940E0020053D000874A60208E7
:103B20002DE9F041804616461D460F4649B32C202C
:103B300008F06AFB0446D8B1FFF79AFFC4F800808A
:103B4000A761E6612562069B6362201D02F0D6F83C
:103B50000520FFF7F3FB0146A06205202268FFF76E
:103B6000D5FCB020052194F82820FDF789F811E054
:103B7000B9200521002393F82820FDF781F809E0FA
:103B8000FEE74FF0F00383F31188BFF36F8FBFF3AD
:103B90004F8FF5E72046BDE8F08100BFF0B585B056
:103BA00006460C4617462E498868002853D00194D3
:103BB00002920396052C0EDC00F0B0FF0228284B81
:103BC000986801A907BF0A9A00230022134603F050
:103BD000B1F8054605E001A91A46002303F03EFAB4
:103BE0000546002C38DD042C0AD1012D14BFBD2060
:103BF000B420052196F828203B46FDF7ABF82BE0D2
:103C0000052C19D1012D18BFB5201AD1B5200521D9
:103C100096F82820FDF734F896F828000521FDF7DE
:103C200065F996F828000521FDF78EF9052096F82C
:103C30002810FFF737FC0FE004F1B000012D00D190
:103C400001E0092300E000231844052196F828200C
:103C5000FDF716F800E00025284605B0F0BD00BFCE
:103C6000600E00202DE9F04782B0074600F054FCBA
:103C70000646234B9B6B98423AD2214D4FF00008E9
:103C80002BE0D468D4F800A0E46804F104094846A5
:103C900002F05EF8636A20469847E369012B1CD165
:103CA000A3695344534506D9636024616868494653
:103CB00002F034F811E0CDF800802046414652462B
:103CC0004346FFF76BFF40B94FF0F00383F31188D1
:103CD000BFF36F8FBFF34F8FFEE76A681468002C45
:103CE000CFD1074B196859601A6001233B6001E08E
:103CF00000233B60024B9E63304602B0BDE8F08774
:103D0000600E00202DE9F04387B05D4C00255D4F2B
:103D100063681A68002A00F0A980DB681E6800F05A
:103D2000F1FB03A8FFF79EFF8046039B002B41D1C8
:103D300086422ED800F092FC6368DB68D3F80C90C2
:103D400009F1040002F004F8D9F81C30012B1AD153
:103D5000D9F818104846314442463346FFF766FE0C
:103D6000012810D100954846294632462B46FFF7D8
:103D700015FF40B94FF0F00383F31188BFF36F8F45
:103D8000BFF34F8FFEE7D9F824304846984764E0E8
:103D90002E46A068C8EB060103F07EFB00F05EFC37
:103DA00000285AD14FF080533B60BFF34F8FBFF3D1
:103DB0006F8F52E000F052FC4FE0039800284CDB7C
:103DC000059E736913B1301D01F0C2FF02A8FFF711
:103DD00049FF0346039909293FD8DFE801F00505AB
:103DE000053E293B05053E29DDF810E0B169304666
:103DF00071441A467346FFF719FE01282DD1736AE4
:103E000030469847F369012B27D1B26900953046B7
:103E10002946049B1A442B46FFF7C0FEE8B94FF031
:103E2000F00383F31188BFF36F8FBFF34F8FFEE76B
:103E30000499B16141B94FF0F00383F31188BFF3E6
:103E40006F8FBFF34F8FFEE7304619441A46FFF7D6
:103E5000EDFD02E0304608F045FAA06803A92A46C5
:103E60002B4603F095F90028A7D151E700F04AFB53
:103E700003A8FFF7F7FE8046039B002B88D099E745
:103E8000600E002004ED00E010B4436823F040739E
:103E900023F480730A6813430A7943EA02234360D8
:103EA0008468CA680B691A438B681A43094B23401C
:103EB00013434A7943EA42038360C26A22F47002E0
:103EC0000B7D013BDBB242EA0353C3625DF8044B56
:103ED000704700BFFDF7FFC000230360037143710B
:103EE0008360C360036101230375704710B4084AFF
:103EF0005168084B0B40446801680C4381682143BA
:103F0000C06801430B4353605DF8044B704700BF2A
:103F100000230140E030FCFF21B1836843F001033E
:103F200083607047836823F001038360704700BF9C
:103F300070B409290ED9C668A1F10A0404EB44043F
:103F40000725A54026EA050503FA04F445EA04031B
:103F5000C3600BE0066901EB41040725A54026EA92
:103F6000050503FA04F445EA04030361062A0CD8A4
:103F7000446B013A02EB82021F23934024EA0303BD
:103F800001FA02F21A4342631AE00C2A0CD8046BBD
:103F9000073A02EB82021F23934024EA030301FA4B
:103FA00002F21A4302630BE0C46A0D3A02EB82028A
:103FB0001F23934024EA030301FA02F21A43C26268
:103FC00070BC704721B1836843F48063836070479D
:103FD000836823F480638360704700BF00207047CC
:103FE0000020704700B583B031238DF804300023E2
:103FF0008DF805308DF8063001238DF8073001A8C3
:1040000005F01EFC07F094FA003018BF0120404272
:1040100003B05DF804FB00BF38B50C46154607F049
:10402000B1F958B94FF400732B60064BD3E9120174
:10403000420A42EAC1522260002000E0FF2040B262
:1040400038BD00BF280C002008B50A4B93F900309A
:10405000002B04DA07F06CFA0022064B1A7007F006
:1040600091F918B1FF20034B187000E0002040B216
:1040700008BD00BF9C0E002000B583B04FF4007057
:10408000009001930846002306F0E2FC20B907F0F7
:1040900079F90028FBD101E0FF2000E0002040B2C8
:1040A00003B05DF804FB00BF00B583B04FF40070AF
:1040B000009001930846002306F074FE20B907F033
:1040C00061F90028FBD101E0FF2000E0002040B2B0
:1040D00003B05DF804FB00BF084B9B6A1B6823B963
:1040E0004FF0FF32064B1A607047044B9B6ADB6847
:1040F000DB685A68024B1A60704700BFA40E0020AC
:10410000D000002010B504460C4BDA6A50601B6BDF
:10411000984206D2094B586BD96A043101F0FEFD72
:1041200010BD064B986AD96A043101F0F7FD044BC3
:104130001B689C423CBF024B1C6010BDA40E0020BB
:10414000D00000202DE9F84F0F46904699460A9D71
:104150000C9E824640B94FF0F00383F31188BFF301
:104160006F8FBFF34F8FFEE70B2D08D94FF0F00391
:1041700083F31188BFF36F8FBFF34F8FFEE736B91C
:10418000900008F041F80646002800F0A0805C206E
:1041900008F03AF80446A8B106633046A5214FEA74
:1041A00088021FF0C3F808F1804808F1FF38236B3C
:1041B00003EB880323F0070B3B7884F834303B781B
:1041C00023B90FE0304608F08DF880E001233A462D
:1041D00017F8010FE11881F83400527812B1013359
:1041E000102BF4D1002684F843600B2D34BF2F46EA
:1041F0000B27E762E764266504F10408404601F0F6
:104200007DFD04F1180001F079FD2461C7F10C0770
:10421000A7616462666584F85860584651464A460C
:1042200003F08CF920600B9B03B11C6003F0AAF92A
:104230004D4B9A6B01329A63DB6A4BBB4A4BDC6293
:104240009B6B012B4CD1484B03F13C0603F5967751
:10425000304601F047FD1436BE42F9D1424E06F514
:104260009679484601F03EFD06F5A077384601F004
:1042700039FD06F1140001F035FD06F5AA7001F0D4
:1042800031FD304601F02EFDC6F82890776327E017
:10429000354BD3F868311BBB334BDB6ADB6A9D427D
:1042A0001ED3314BDC621BE02F4BDB6ADB6A9D4285
:1042B0000AD94FF080522D4B1A60BFF34F8FBFF3D6
:1042C0006F8F0120BDE8F88F0120BDE8F88F4320F3
:1042D00003210022FCF7D4FC4FF0FF30BDE8F88F3B
:1042E000214ED6F86C310133C6F86C31636403207B
:1042F000FFF724F8A064204601F06AF90146032084
:1043000004F13402FFF702F9204601F061F9014699
:10431000032094F82C20FCF75BFE204601F058F9AE
:1043200002461B200321FCF7ABFC204601F050F9AC
:10433000FCF7FCFBE36AD6F87021012199400A439F
:10434000C6F8702106F13C0003EB830300EB830009
:10435000414601F0D7FC03F037F9D6F86831002B5D
:10436000A2D10120BDE8F88FA40E002004ED00E0EA
:1043700070B5044603F006F90CB9444BDC6A261DFF
:10438000304601F0E5FC88B9E36A03EB83013F4A5C
:1043900002EB8102D26B4AB93C4AD2F8701101207B
:1043A00000FA03F321EA0303C2F87031A36A1BB1D8
:1043B00004F1180001F0CCFC344D05F5AA7031462B
:1043C00001F0A0FCD5F874310133C5F87431D5F88B
:1043D0006C310133C5F86C31EFF31085012383F3A1
:1043E0001088204601F0F4F8024683200321FCF7F0
:1043F00047FC204601F0ECF80321FCF777FD20464E
:1044000001F0E6F80321FCF79FFD204601F0E0F8FB
:104410000146032094F82C20FCF7DAFD204601F039
:10442000D7F8014603200022FCF724FE204601F0C5
:10443000CFF801460320FFF735F885F3108803F025
:10444000C3F8124BD3F86831FBB1104BDB6A9C42C6
:1044500015D10E4BD3F8783143B14FF0F00383F30D
:104460001188BFF36F8FBFF34F8FFEE74FF080527D
:10447000074B1A60BFF34F8FBFF36F8F70BD03F010
:1044800081F8FFF729FE03F09FF870BDA40E00200D
:1044900004ED00E000B585B0002300930193029382
:1044A0000393154815494FF40072FFF74BFE01289E
:1044B00014D1FFF70BFB012810D14FF0F00383F369
:1044C0001188BFF36F8FBFF34F8F0D4B0122C3F8DD
:1044D000682100221A6303F0E9F809E040B94FF0BF
:1044E000F00383F31188BFF36F8FBFF34F8FFEE7A5
:1044F00005B05DF804FB00BFF5470008A0A6020860
:10450000A40E0020034BD3F878210132C3F87821A0
:10451000704700BFA40E0020014B186B704700BF0E
:10452000A40E00202DE9F047494BD3F87831012B38
:1045300003D0474BD3F87C3133B9464B1A6801326C
:104540001A60002005F046F9414BD3F87821D3F8E2
:104550007831002B6BD13E4B1A6B01321A631F6B03
:10456000BFB99B6A1B6843B14FF0F00383F3118816
:10457000BFF36F8FBFF34F8FFEE7354B9A6A596BCE
:1045800099625A63D3F880210132C3F88021FFF782
:10459000A3FD314B1B689F423CD300242C4E4FF0AF
:1045A000010A06F13C09B36A1B6823B94FF0FF32D8
:1045B000294B1A602FE0B36ADB68DD686B689F42A5
:1045C00002D2254A136026E005F10408404601F0B6
:1045D000BFFBAB6A1BB105F1180001F0B9FB28461F
:1045E00000F0F6FFFCF7A2FAEB6AD6F870210AFA9F
:1045F00003F10A43C6F8702103EB830009EB800046
:10460000414601F07FFBF36AEA6ADB6A9A4228BFFF
:104610000124C8E700240E4AD36ADB6A03EB830354
:1046200002EB8303DB6B022B28BF012406E0084B5F
:10463000D3F87C210132C3F87C210024044BD3F849
:104640008431002B0CBF20460120BDE8F08700BF5D
:10465000A40E0020A8120020D00000202DE9F04177
:104660003E4BD3F8783143B94FF0F00383F3118810
:10467000BFF36F8FBFF34F8FFEE702F083FF374B1F
:10468000D3F87821013AC3F87821D3F87831002B98
:1046900059D1324B9B6B002B57D0304C04F13C0767
:1046A00025E0236ADD6805F1180001F051FB2E1D9D
:1046B000304601F04DFB284600F08AFFFCF736FA41
:1046C000EB6AD4F8702108FA03F10A43C4F87021A8
:1046D00003EB830007EB8000314601F013FBE36A34
:1046E000EA6ADB6A9A4204D30123C4F884314FF0AA
:1046F00001086369002BD4D1184BD3F87C319BB1EE
:10470000164BD3F87C317BB1144C0125FFF70AFF1F
:1047100008B1C4F88451D4F87C31013BC4F87C3131
:10472000D4F87C31002BF1D10C4BD3F88431012B20
:104730000DD14FF080520A4B1A60BFF34F8FBFF379
:104740006F8F012404E0002402E0002400E0002434
:1047500002F03AFF2046BDE8F08100BFA40E002021
:1047600004ED00E038B50546002836D01F4BD3F8DD
:10477000783143B14FF0F00383F31188BFF36F8FAB
:10478000BFF34F8FFEE7FFF7BDFE89202946FCF7F8
:1047900057FB164CE06A00F01BFFFCF717FD00F01A
:1047A0001DFF00F015FFFCF711FD236B1D44E06AAF
:1047B000043001F0CDFA50B9E16AD4F87021C96A29
:1047C000012000FA01F122EA0102C4F87021284612
:1047D000FFF798FCFFF742FF38B94FF08052044BC7
:1047E0001A60BFF34F8FBFF36F8F38BDA40E002048
:1047F00004ED00E080B5194C194F4FF080561EE0D3
:10480000FFF780FED4F85451FFF728FFBDB102F046
:10481000B9FED4F86031DD68281D01F099FAA36B68
:10482000013BA363D4F87431013BC4F8743102F046
:10483000CBFE286B07F056FD284607F053FDD4F851
:104840007431002BDCD1E36B012B04D93E60BFF344
:104850004F8FBFF36F8FFEF745FCF0E7A40E0020EB
:1048600004ED00E008B51E4BD3F8783123B10122E6
:104870001B4BC3F8842108BD194A0023C2F88431B8
:10488000D2F87031B3FA83F3DBB2C3F11F0303EB49
:10489000830102EB8102D26B42B94FF0F00383F344
:1048A0001188BFF36F8FBFF34F8FFEE703EB8303D6
:1048B0000C4A02EB83035A6852685A6003F10801FC
:1048C0008A4204BF52685A605B68DA68044BDA6255
:1048D00000F084FE00F07CFEFCF71EFC08BD00BF6B
:1048E000A40E0020E00E002038B50C4640B94FF071
:1048F000F00383F31188BFF36F8FBFF34F8FFEE791
:10490000114DE96A183101F009FAE86A043001F042
:104910001FFA50B9E96AD5F87021C96A012000FA76
:1049200001F122EA0102C5F87021B4F1FF3F05D17F
:104930000548C16A043101F0E5F938BD024B186B36
:104940002044FFF7DFFB38BDA40E002038B50C462D
:1049500040B94FF0F00383F31188BFF36F8FBFF3BB
:104960004F8FFEE7154DE96A183101F0CBF9E86A7F
:10497000043001F0EDF950B9E96AD5F87021C96A3F
:10498000012000FA01F122EA0102C5F870210B4D65
:104990002B6B1C4488202146FCF752FAE86A00F091
:1049A00017FEFCF713FC00F019FE00F011FEFCF7F7
:1049B0000DFC2046FFF7A6FB38BD00BFA40E00206B
:1049C00038B5C368DC6844B94FF0F00383F311884D
:1049D000BFF36F8FBFF34F8FFEE704F11805284632
:1049E00001F0B6F9174BD3F87831DBB9251D28460D
:1049F00001F0AEF9204600F0EBFDFCF797F8E36A12
:104A0000104AD2F87011012098400143C2F8701189
:104A100002F13C0003EB830300EB8300294601F025
:104A200071F903E00848294601F06CF9054BDB6A8F
:104A3000E26ADB6A9A4283BF0120024BC3F8840119
:104A4000002038BDA40E0020B80E002040B94FF061
:104A5000F00383F31188BFF36F8FBFF34F8FFEE72F
:104A6000034AD2F880110160126B4260704700BFA8
:104A7000A40E002038B50D46044640B94FF0F003AF
:104A800083F31188BFF36F8FBFF34F8FFEE741B9F8
:104A90004FF0F00383F31188BFF36F8FBFF34F8F95
:104AA000FEE702F06FFD124B1A6B2B68B3F1FF3F6C
:104AB00014D00F49D1F880012168814202D0616889
:104AC0008A420DD26168501A83420BD98A1A134464
:104AD0002B602046FFF7BAFF002404E0002402E028
:104AE000012400E0012402F06FFD204638BD00BF24
:104AF000A40E00200122024BC3F88421704700BF9E
:104B0000A40E002008B1806C70470020704700BFE1
:104B1000014BD86A704700BFA40E0020064BD3F8A3
:104B200068313BB1044BD3F87831002B14BF00201F
:104B30000220704701207047A40E002070B5044683
:104B4000002868D0C36A344AD26AD26A934262D2D9
:104B50008269002A05DB304AD26AD26AC2F10C02AD
:104B6000826103EB83032D4A02EB830362699A425D
:104B700031D1261D304601F0EBF888B9E36A03EB2A
:104B80008301254A02EB8102D26B4AB9224AD2F84C
:104B90007011012000FA03F321EA0303C2F8703117
:104BA0001D4DEB6ADB6AE362204600F011FDFBF766
:104BB000BDFFE36AD5F8701101229A400A43C5F897
:104BC000702105F13C0003EB830300EB83003146C9
:104BD00001F098F803E0104BDB6ADB6AE3622046E1
:104BE00000F0F6FC0546204600F0F2FC01460320EA
:104BF000FCF716FA03468E2003212A46FCF7AAF892
:104C0000204600F0E5FC0146034BDB6A032093F8E5
:104C10002C20FCF7DDF970BDA40E0020E00E002072
:104C200070B5044600286FD03A4BDB6A984208D032
:104C30004FF0F00383F31188BFF36F8FBFF34F8FF3
:104C4000FEE7036D43B94FF0F00383F31188BFF320
:104C50006F8FBFF34F8FFEE7013B0365C16AC26CE4
:104C6000914253D0002B53D1051D284601F070F816
:104C700088B9E36A03EB8301264A02EB8102D26B17
:104C80004AB9244AD2F87011012000FA03F321EA4C
:104C90000303C2F87031204600F09AFC0646204615
:104CA00000F096FC01460320FCF7BAF903468F207A
:104CB00003213246FCF74EF8204600F089FC0146FD
:104CC000032094F84C20FCF783F9E36CE362C3F112
:104CD0000C03A361204600F07BFCFBF727FFE36A8F
:104CE0000C4AD2F87011012404FA03F00143C2F80F
:104CF000701102F13C0003EB830300EB83002946B3
:104D000001F000F8204670BD002070BD002070BD8D
:104D1000002070BDA40E0020054BDB6A23B1044BBC
:104D2000DB6A1A6D01321A65014BD86A704700BF01
:104D3000A40E0020094B1B78094800F8331000EB43
:104D4000C300120242600133DBB2042B02D0034ADB
:104D5000137070470022014B1A707047A424012081
:104D60008024012070B582B00E461446914B186025
:104D700013785A2B00F2A382DFE813F05B00A10244
:104D8000A1027800A102A102A102A102A102A10236
:104D9000A102A102A102A102A102A102A102A102FB
:104DA000AB00A102A102A102A102A102A102A102E3
:104DB000D300CB00A102A102CF00A102A102A10257
:104DC000A102EB00A1023201A102A1025B01A1023A
:104DD000D901A102A102A102A1028802A102A1029D
:104DE000A102A102A102A102A102A102A102A102AB
:104DF000A102A102A102A102A102A102A102A1029B
:104E0000A102A102A102A102A102A102A102A1028A
:104E1000A102A102A102A102A102A102A102A1027A
:104E2000A102A102A102A102A102A102A102A1026A
:104E3000DF00614B9B683BB15F4B587B0521202213
:104E4000FFF778FFFF2548E25C4B1B689B6808462C
:104E50009847054630B1304602213A22FFF76AFFF3
:104E6000FF253AE20022564B1A8036E2554B03F1F9
:104E70001201002203F8012F8B42FBD1524B70220A
:104E80001A700C22DA71514B1B78514A12789A42EF
:104E900014D04D4A4F4911F83300907001EBC30113
:104EA00048791073097951730133DBB2042B02D0B6
:104EB000464A137002E00022444B1A701222404B03
:104EC0001A802379934200F201823D4A1380002523
:104ED00003E2637813F0010F40F00182374B1B6847
:104EE00001EBC106DB6903EB8606327905322379D3
:104EF0009A4238BF1346324A1380002B40F0F381A8
:104F00000025EAE1013B9BB2F25CCA54002BF9D1C7
:104F1000DEE100252A4B1D80DFE10025284B1D80A6
:104F2000DBE10823264A138027482B49013B9BB22B
:104F3000CA5CC254002BF9D1CCE10823204A13806B
:104F400021482649013B9BB2CA5CC254002BF9D1CF
:104F5000C2E11C4B03F10C01002203F8012F8B422C
:104F6000FBD1164B1B685B68304601A96A4698471F
:104F7000054630B1304602213A22FFF7DBFEFF251D
:104F8000ABE1114B0822DA7001994A1E100E18711C
:104F9000100C5871120A9A710139D97102221A72D1
:104FA000009A110C5972110A9972DA720C22044B90
:104FB0001A8092E1A024012084370120AC00002057
:104FC000B63701207F270120802701207C24012083
:104FD000A424012080240120B8BE0208B0BE02082B
:104FE000A24B1B68A24A5B680846114604329847E8
:104FF000054630B1304602213A22FFF79BFEFF25DD
:105000006BE19B490868421E9A4B140E1C70140CED
:105010005C70120A9A700138D8704A68110E1971C2
:10502000110C5971110A9971DA710822924B1A8088
:1050300053E1924B1B78002B3ED1914B93F90C30EE
:10504000002B07DB8E4B587B05212022FFF772FED9
:10505000FF2542E1854B1B689B680846984730B1A5
:10506000304602213A22FFF765FEFF2535E1A1789F
:10507000E3781B0443EA016163790B43217943EA36
:1050800001217B4B9960E079227A42EA0022DA60C2
:1050900011441B68994240F22881304605212122A3
:1050A000FFF748FEFF2518E1754B587B05212022AC
:1050B000FFF740FEFF2510E14FF480526E4B1A803F
:1050C0006B4AD468B4F5805F28BF4FF48054674BB7
:1050D000196853680D69304666499268B4FBF3F36A
:1050E000A847002806DA304604211122FFF722FEE5
:1050F000FF25F2E0634B186881215E4A234604F0E5
:105100008FFC5B4B5A68B4FBF2F19A680A449A60D0
:10511000DA68121BDA605C4B9968091B996022B946
:105120000322564B1A700025D7E00025D5E0534BDB
:105130001B78002B5BD1524B93F90C30002B07DA14
:105140004F4B587B05212022FFF7F4FDFF25C4E0DB
:10515000464B1B689B680846984730B13046022191
:105160003A22FFF7E7FDFF25B7E0404B1B68DB68FD
:1051700030469847054630B1304602212722FFF7D6
:10518000D9FDFF25A9E0A178E3781B0443EA01617A
:1051900063790B43217943EA0121354A9160E07933
:1051A000237A43EA0023D36019441268914240F203
:1051B000AA80304605212122FFF7BCFDFF258CE0A7
:1051C0002F4B587B05212022FFF7B4FDFF2584E0FB
:1051D00001212A4A1170B3F5805F28BF4FF4805334
:1051E000284A1068234A9BB204F0FEFB75E0204A6F
:1051F000D468B4F5805F28BF4FF480541B4B196806
:1052000053684D6930461B499268B4FBF3F3A847D5
:10521000002806DA304604210322FFF78BFDFF2524
:105220005BE0134B5A68B4FBF2F19A680A449A6047
:10523000DA68121BDA60144B9968091B996032B95D
:10524000104B1868002106F015FF002545E0B2F567
:10525000805F34BF13464FF480530A4A106801211F
:10526000044A9BB204F0C0FB002536E0AC000020ED
:105270002C10002080270120B6370120B4370120F0
:1052800084370120A0240120A4370120637813F083
:10529000020F06D0084605212422FFF74BFDFF250B
:1052A0001BE0214B99899A680A441B689A4235D9B8
:1052B000304605212122FFF73DFDFF250DE0084680
:1052C00005212022FFF736FDFF2506E0002504E03A
:1052D000002502E0002500E0002568B222E0072357
:1052E000124A1380124E13490CE60221124B197018
:1052F0000D4B596801FB02F2DA60104B9B689A4231
:105300003FF4DAAED0E6084A516801FB03F3D360FC
:105310000A4A926893423FF45BAF51E70025034B82
:105320001D80DAE702B070BD2C100020B6370120D6
:10533000C0BE020880270120B43701208437012035
:1053400012230B8000487047D400002004230B80F8
:1053500000487047E800002008B50A4620B9054813
:10536000054901F093FB03E00448034901F08EFB7B
:10537000014808BDA8A60208B4240120C8A6020856
:1053800010B50A46034C0448214601F07FFB204635
:1053900010BD00BFB4240120F0A6020808B50A46DB
:1053A00020B90548054901F071FB03E004480349B1
:1053B00001F06CFB014808BD04A70208B4240120D9
:1053C00014A7020808B50A460248034901F05EFB2B
:1053D000014808BD24A70208B424012008B50A46E4
:1053E0000248034901F052FB014808BD30A70208FA
:1053F000B424012010B40368816842681143C26874
:105400001143026911434269114382691143C26920
:105410001143026A1143426A1143826A1143C26A0C
:105420001143026B0A434FF0204141F82320836867
:10543000082B06D103689B000B441A6842F0400217
:105440001A6003685C1C436B99691A6811435A68B7
:1054500041EA02119A6841EA0221DA6841EA02410E
:105460001A6941EA02525B6942EA03624FF0204145
:1054700041F82420C36AB3F5804F14D10468836BCC
:1054800099691A6811435A6841EA02119A6841EA17
:1054900002211A6941EA02525B6942EA0362064B41
:1054A00043F8242005E002686FF07041024B43F896
:1054B00022105DF8044B7047040100A039B1800050
:1054C00000F12040036843F001030360704780004F
:1054D00000F120400268024B13400360704700BF98
:1054E000FEFF0F0008B5FFF717F808BD08B5FFF776
:1054F00039F908BD704700BF08B5012001F04AFD29
:10550000124B186040B94FF0F00383F31188BFF3DA
:105510006F8FBFF34F8FFEE701200021032201F0C0
:10552000A9FB0A4B586038B100210A460B4601F02E
:1055300001FC064B5B6843B94FF0F00383F311881D
:10554000BFF36F8FBFF34F8FFEE708BD3C10002005
:1055500008B5044B186800210A460B4601F0EAFB27
:1055600008BD00BF3C10002008B5074B1B680BB9F5
:10557000FFF7C2FF044B186800214FF0FF320B46C3
:1055800001F006FE08BD00BF3C10002008B5FFF783
:10559000BFFA08BD0020704710B50446FDF7AAFB0E
:1055A0000123C4F8F437002010BD00BF10B5044635
:1055B000FDF7A6FB0020C4F8F40710BD08B501F004
:1055C0003BFFC0B208BD00BF08B501F037FF08BD02
:1055D00008B5FFF797FAC0B208BD00BF08B5FFF7DE
:1055E00097FA08BD294B1B680722DA650A2283F85F
:1055F000642083F8652083F866200F2283F86720F3
:10560000052183F86810022183F8691083F86A1075
:1056100083F86C2083F86D2083F86E2083F86F2068
:1056200083F8702083F8712083F87220102283F8A9
:10563000742083F8752083F87620132183F877107F
:10564000112083F8780083F8792083F87A100022FB
:10565000A3F87C20A022A3F87E204FF4A072A3F828
:1056600080204FF4F072A3F8822040F2FD22A3F8CC
:10567000842040F25232A3F8862040F27232A3F81E
:1056800088204FF466721A66704700BFAC0D002088
:10569000124B0022DA811A800A221A825A801422BE
:1056A0005A829A801E229A82DA802D22DA821A8108
:1056B00032221A835A8134225A839A8109229A8388
:1056C0001322DA831D221A842C225A8431229A84CE
:1056D0003322DA8435221A85704700BFB40D0020CA
:1056E000062811D8DFE800F00A060804120C0E00A4
:1056F0000748704707487047074870470748704792
:105700000748704707487047074870470748704781
:1057100040A70208B0A70208F4A7020830A80208B0
:105720006CA80208A8A80208ECA8020878A702083A
:1057300008B5062804D92C48FDF7E6FC012008BD71
:105740002A4B1B68034493F864308B4204D22848E8
:10575000FDF7DAFC012008BD062840D8DFE800F09C
:10576000220E18043F2B3500213101F007030120E0
:105770009840C9101F4B5B5C184008BD0B3101F00D
:10578000070301209840C9101A4B5B5C184008BD04
:10579000163101F0070301209840C910154B5B5CDE
:1057A000184008BD01F0070301209840C908114BBB
:1057B0005B5C184008BD313101F0070301209840BF
:1057C000C9100C4B5B5C184008BD343101F0070375
:1057D00001209840C910074B5B5C184008BD064883
:1057E000FDF792FC012008BD1CA90208AC0D0020A9
:1057F00064A90208280E0020A4A90208F0B400231E
:105800000125032605FA03F20C681440944238D1AE
:1058100007685A0006FA02F4E44327400760076865
:1058200091F804C00CFA02FC4CEA070707600F79F4
:10583000013FFFB2012F16D887683C40846087681B
:105840004C7994403C43846047689CB205FA04FC60
:1058500027EA0C074760476891F806C00CFA04F481
:10586000A4B23C434460C7689CB2640006FA04F4E6
:1058700027EA0404C460C468CF7907FA02F222431D
:10588000C2600133102BBDD1F0BC704703691942CF
:105890000CBF0020012070470AB10183704741838B
:1058A000704700BF10B401F007039B00C90800EB6C
:1058B0008100046A0F21994024EA01010162016A12
:1058C0009A40114301625DF8044B70470A4B5A8BB2
:1058D00092B242F004025A834FF6FF73013BFDD1AE
:1058E000054B1A8B92B242F004021A834FF6FF73F3
:1058F000013BFDD1704700BF0000024010B4124BC5
:105900001A6842F420221A601A6822F030021A60E3
:105910001A6842F004021A600C4A116841F004014E
:1059200011604FF080749C604FF4802098600121DA
:1059300099604FF400729A60DC60D860D960DA60D8
:105940005DF8044B704700BF800000A0600000A01D
:1059500010B44FF000412B230B70104B00221A7033
:105960001A701A70EF241C702A240C701A701A70A6
:1059700001221A703F221A702C230B70C0F30724E7
:10598000C0F307414FF49632044B18701C70197025
:10599000013AFAD15DF8044B704700BF0000018066
:1059A00008B5FFF793FF01224FF000431A704FF63E
:1059B000FF73013BFDD111224FF000431A704FF6E7
:1059C000FF73013BFDD14FF0004329221A703622AC
:1059D0001A70662203F580331A704FF47F40FFF788
:1059E000B7FF08BD30B44FF000442A232370C0F342
:1059F00007250D4B1D70C0B218701D7018702B203C
:105A00002070C1F307201870C9B21970187019708E
:105A10002C212170D1B21970C2F307211970C2F381
:105A200007421A7030BC70470000018070B44FF01C
:105A300000452A242C70C0F307260C4C2670C0B2F7
:105A40002070C2F307202070D2B222702B222A705D
:105A5000C1F307222270C9B22170C3F3072222705A
:105A6000DBB223702C232B7070BC704700000180C8
:105A70002DE9F0479EB015469A46269C5708C7EB7D
:105A800000095E08C6EB010807440E44484641463B
:105A90003A463346FFF7CAFF012C06D00AF101004F
:105AA00005FB0000002843D156E02E224FF00043B2
:105AB0001A7003F580331B780AFB05F5002D45D0DD
:105AC000002327491A460C7818460DF8034014465F
:105AD0000134B4F5807FFBD191F800E014AC04F8F8
