:020000040800F2
:1000000048F4012061160008C12A0008C52A00082A
:10001000C92A0008CD2A0008D12A000800000000E3
:10002000000000000000000000000000655C000807
:10003000D52A000800000000115D0008615D00087D
:100040005D1600085D1600085D1600085D160008C4
:100050005D1600085D1600085D1600085D160008B4
:100060005D1600085D1600085D1600085D160008A4
:100070005D1600085D1600085D1600085D16000894
:100080005D1600085D1600085D1600085D16000884
:100090005D1600085D1600085D160008D54A0008C8
:1000A0005D1600085D1600085D1600085D16000864
:1000B0005D160008F92A00085D1600085D160008A4
:1000C0005D1600085D1600085D1600085D16000844
:1000D0005D1600085D1600085D1600085D16000834
:1000E0005D1600085D1600085D1600085D16000824
:1000F0005D1600085D1600085D1600085D16000814
:100100005D160008659600085D1600085D1600087B
:100110005D1600085D1600085D1600085D160008F3
:100120005D1600085D1600085D1600085D160008E3
:100130005D1600085D1600085D1600085D160008D3
:100140005D1600085D1600085D160008D92A000833
:100150005D1600085D1600085D1600085D160008B3
:100160005D1600085D1600085D1600085D160008A3
:100170005D1600085D1600085D1600085D16000893
:100180005D1600085D160008C3684FF0FF325A6024
:10019000C3686FF080425A61C368014A9A61704730
:1001A0000008008070B582B005460023019303204B
:1001B00004F0CCFDEB681A690192144C032607E0A9
:1001C000304604F0C3FDEB681A690192013C19D076
:1001D000019A002AF4DA019A42F001020192019A8E
:1001E0001A61EB681B690193084B04E0EA68126925
:1001F0000192013B03D0019A12F0010FF6D10320C6
:1002000004F0A4FD002002B070BD00BF400D03004B
:1002100010B4C4786CB9033300EB8200D0F8D0403E
:100220009B1006D0002251F8040B2060013293424B
:10023000F9D100205DF8044B704700BF70B4033261
:10024000D0F8D060951009D00A460023346842F8EF
:10025000044B01339D42F9D101EB8501084670BC86
:10026000704700BF70B40023C37001238370402324
:10027000838001290DD10123C37208230370042355
:1002800043704FF4A073C380022303724FF0A04564
:100290000CE051B90023C3720C2303700623437092
:1002A0004FF4A063C380204D00E00025C56005F534
:1002B00000630361467866B105F5106203460021CC
:1002C0009A6102F500745C650131203204338E427C
:1002D000F6D805F58063436105F58863C0F8CC3036
:1002E0000678D6B1344605F5A06102460023C2F86F
:1002F00090100133203104329C42F8D86EB105F5DC
:10030000805305EB063101F580510246C2F8D0302A
:1003100003F5805304328B42F8D105F56065C0F8CF
:100320000C51002070BC70470000044038B50446F2
:100330000025037A012B21D1C268936B6FF3104320
:10034000417A09B143F480139363E268D3686FF391
:1003500086136FF396536FF351436FF3D343D36018
:100360002046FFF71FFFE378012B25D1052363F318
:10037000440545F02005E3689D6012E0C268D3683B
:1003800043F04003D360FFF70DFF637A002B0CBFEF
:100390004FF434134FF47413E2689363142004F0A1
:1003A000DBFCE378012B07D1E3689D68052262F34B
:1003B000440545F020059D60002038BDC3689A685B
:1003C00042F001029A600020704700BFC3689A683B
:1003D00022F001029A600020704700BF00B583B090
:1003E00000230193019B43F020030193019B61F3E0
:1003F0008A130193C368019A1A61C3681B69019348
:10040000084B04E0C26812690192013B03D0019AD3
:1004100012F0200FF6D1032004F098FC002003B066
:100420005DF804FB400D030000B583B00023019389
:10043000019B43F010030193C368019A1A61C368DA
:100440001B690193084B04E0C26812690192013BE9
:1004500003D0019A12F0100FF6D1032004F076FCBD
:10046000002003B05DF804FB400D030008B5C2682E
:10047000D3686FF35D736FF39E73012902D143F06C
:10048000005302E009B943F08043D360322004F006
:1004900063FC002008BD00BFC3685B6913F0010F57
:1004A00014BF002001207047C368586900F00100A4
:1004B000704700BFC3685A6998691040704700BF11
:1004C00043691A6861F301021A607047D0F8CC30B2
:1004D000186820F02E00704743695869704700BFC4
:1004E00038B50546FFF7F2FF40F48074D5F8CC30FC
:1004F0001C600A2004F030FC6FF30824D5F8CC30DF
:100500001C60142004F028FC012038BD86B000EBEC
:100510008101D1F89020136843F0404313F4802FF9
:1005200007D1C168C96AC1F3074149B96FF3DF73E5
:1005300006E041690969C1F3074109B96FF3DF7347
:100540001360002006B0704710B400234FF0004243
:10055000012464F3DC4200EB8101D1F890000261D8
:10056000D1F89020116841F0004163F39E71116051
:1005700018465DF8044B704703691A6861F301027D
:100580001A60704738B505460024C3689C61C3688B
:100590006FF080425A61FFF7F7FDEB78A34208BF86
:1005A000102444F4701444F4605444F00804EB68DC
:1005B0009A6914439C61002038BD00BF70B50446A1
:1005C00000252E46D0F80C311D6003691A6865F3CA
:1005D000CC221A60C37A012B1FD10321FFF7CCFF75
:1005E000E26880235362C0F2400563F30F05E268BE
:1005F0009562C02262F30F0663F31F46E368C3F8F7
:1006000004614FF4A07363F30F066FF31F46E368B2
:10061000C3F80861E368C3F80C6120461021FFF7B6
:10062000DDFE2046FFF700FF2269002313612269E7
:10063000536122694FF0FF3191612269D361637880
:10064000002B2ED0234600221646FF259969096803
:10065000C90F00290CBF00204FF090409969086035
:1006600099690E6199698D60013261780433914214
:10067000ECD8B1B1234600221646FF25596D096812
:10068000C90F00290CBF00204FF09040596D086041
:10069000596D0E61596D8D6001320433617891425C
:1006A000ECD823691A6942F480721A61E378012B4D
:1006B00009D10323402262F38A0343F4803362F3B7
:1006C0005943226913632046FFF75CFF002070BD89
:1006D00003699B68C3F34103022B05D0032B05D0AC
:1006E000012B03D003207047012070470220704780
:1006F0000369996883691A68C1F34101022912BF2D
:100700006FF30A02032161F30A021A6003695A684F
:1007100042F480725A600020704700BF30B400225B
:100720004B78012B09D10B7800EB8304A4690125D8
:1007300005FA03F363F30F0208E00B7800EB830480
:10074000646D012505FA03F363F31F42236813F474
:10075000004F0DD18D6865F30A03CD7865F393439F
:10076000C98861F3995343F0805343F400432360F5
:100770000369D9690A43DA61002030BC704700BFC1
:1007800030B400231A464C78012C09D1097800EBCB
:100790008104A469012505FA01F161F30F0208E063
:1007A000097800EB8104646D012505FA01F161F31C
:1007B0001F426FF3CF3323600369D96921EA020234
:1007C000DA61002030BC704770B50B464A78012AC8
:1007D00053D10A7800EB820291690A6809695C6961
:1007E0002CB96FF31201012464F3DC410DE064F3D2
:1007F00012019D682C44013CB4FBF5F565F3DC4126
:10080000DC78012C08BF64F35E711C7800EB840473
:10081000A4692161C178012906D1197800EB810111
:100820008C69196961610CE0D97801290CD059698A
:1008300099B101694D6B1C78012606FA04F42C432A
:100840004C63D978012908D10169896811F4807F46
:100850000CBF42F0005242F0805242F0044219783C
:1008600000EB810189690A60DA78012A40D1D968F0
:100870001A789B8AFFF7CCFC3AE00A7800EB8202F8
:10088000516D0A6809695C6934B99C6864F31201A6
:10089000012464F3DC410CE09D682C44013CB4FB72
:1008A000F5F4C4F3090464F3DC4105FB04F565F3D6
:1008B00012011C7800EB8404646D2161C178012968
:1008C00005D1197800EB81014C6D19696161D97806
:1008D000012906D1597911B142F0005201E042F0EC
:1008E000805242F004421B7800EB8300436D1A6093
:1008F000002070BD30B482B04B78012B48D18269A2
:100900001368146900944C696CB99DF800406FF34A
:1009100006048DF800409DF80240012565F3C404EB
:100920008DF8024017E08D68AC4207D94D619DF803
:10093000004065F306048DF8004005E09DF8005086
:1009400064F306058DF800509DF80240012565F31B
:10095000C4048DF80240009C1461C478012C05D1B8
:100960000C7800EB8404A5690C696C6143F00443C6
:100970001360C378002B48D14B69002B45D0036925
:10098000586B0A78012101FA02F202435A633CE0F3
:100990000B7800EB83035A6D1368126900924A6961
:1009A00072B98C689DF8002064F306028DF800206F
:1009B0009DF80220012464F3C4028DF802200EE0A9
:1009C0008C684C619DF8002064F306028DF80020CD
:1009D0009DF80220012464F3C4028DF802200A78F5
:1009E00000EB8202546D009A2261C278012A05D17F
:1009F0000A7800EB8202546D0A69626143F0044395
:100A00000A7800EB8200426D1360002002B030BC17
:100A1000704700BF4B78012B0CD10B7800EB8300A3
:100A200082691368002BB8BF43F0804343F400137E
:100A3000136007E00B7800EB8300426D136843F40A
:100A400000131360002070474B78012B0B7800EBEC
:100A500083000CBF8269426D13686FF35553C978E8
:100A60000239C9B2012998BF43F0805313600020B6
:100A7000704700BF03699A69D8691040000C70473D
:100A800000EB81014B6D9B6802695069184070470B
:100A900003699869DB69184080B2704782B000230F
:100AA0000093C0238DF803304FF00003012262F35E
:100AB000C4038DF8023018238DF80030436D009A7E
:100AC0001A61C378012B08D1436D00F2CC525A61F0
:100AD000436D1A684FF080221A6002B0704700BF61
:100AE000836801390D2914D8DFE801F0090B0D0FD7
:100AF00013131311071616070707002070475868CD
:100B0000704798687047D868704718697047986947
:100B100070474FF0FF3070470120704701290248AD
:100B200018BF0020704700BF388D0208836800227C
:100B30000A804A80DA68013A8A801B69013BCB80CF
:100B4000704700BF0939072911D8DFE801F0041206
:100B50000608100A0C0E08487047084870470848F5
:100B60007047084870470848704708487047002099
:100B700070470748704700BF850C0008350C000817
:100B80001D0C0008C90B0008B90B0008950B0008E4
:100B90006D0C000800B583B0002301938DF804109C
:100BA00002AB43F8082D806904216A4600F050FD2D
:100BB00003B05DF804FB00BF08B580690621002280
:100BC00000F046FD08BD00BF08B580690521002280
:100BD00000F03EFD08BD00BF00B583B0009101925A
:100BE000806903216A4600F033FD03B05DF804FB21
:100BF00038B50446836853B91C201BF0EFF805464E
:100C0000A06023699B68984715F052FEA861A06810
:100C1000D0F1010038BF002038BD00BF38B505460F
:100C2000FFF7E6FF0446A8690121002200F010FD4D
:100C3000204338BD70B582B005460C4616460023E9
:100C400000930193FFF7D4FFAB686BB15A69002A98
:100C500008BF22465A615C609E6000940196A869B4
:100C600007216A4600F0F4FC02B070BD70B505467D
:100C70000C461646FFF7BCFFAB6813B1DC601E6183
:100C80005C6170BD30B583B004460D46002301930E
:100C9000FFF7AEFFA3683BB11D6002AA42F8045DF6
:100CA000A069022100F0D4FC03B030BD08B50846AD
:100CB00011461A4603F0F0FA08BD00BF10B50C4605
:100CC000134608461146224603F00AFB2E224FF037
:100CD00000431A7003F580331A781B783223013BE6
:100CE000FDD1094B1978C9B23223013BFDD1064B26
:100CF0001A78D2B23223013BFDD1034B18780B0294
:100D000043EA0243184310BD00000180F8B50746CE
:100D10000D461446FFF7D2FF06463B699B6898478D
:100D200080EA06022846214603F0B6FAF8BD00BF65
:100D30002DE9F0470746894615461E46DDF820A0F6
:100D4000184B1B68DA6BD2F800801B7C13F0010F84
:100D500003D1554523DC0F461DE055451FDC884671
:100D60000AE0384621462A46FFF7D0FF0134A64262
:100D7000F7DA0135AA4512DBB145FADC4446F0E763
:100D800020462946424603F087FA0134A642F7DAA4
:100D90000135AA4503DBB145FADC3C46F0E7BDE886
:100DA000F08700BFA002002000B583B000930B467F
:100DB000FFF7BEFF03B05DF804FB00BF00B583B0D2
:100DC0000092FFF7B5FF03B05DF804FB2DE9F04F8B
:100DD00087B00490039101931099DDF84CB0119BFA
:100DE000013B1F2B00F2B582DFE813F03400300026
:100DF000B3022C00B302B302B3022800B302B30261
:100E0000B302B302B302B302B3022400B302B302CB
:100E1000B302B302B302B302B302B302B302B3022A
:100E2000B302B302B302B302B3022000002900F3FD
:100E300073828EE2002900F351828AE2002900F3D6
:100E4000E78186E2002900F3338182E2002900F382
:100E500081807EE2002940F37C821746114405918F
:100E60004FF0800ACDF800B0B946159AD2F800B01C
:100E7000D2F80480039E149B1E44AC4803681B7C7C
:100E800003F00303032B5CD8DFE803F002381D38BE
:100E9000019D149CDDF800904AFA04F399F80020B3
:100EA0001A4030463946002A0CBF5A46424603F0E3
:100EB000F3F90134082C04BF09F1010900240136BB
:100EC000013DE9D13DE0019D149CDDF800904FF01B
:100ED000000B99F800204AFA04F31A4204D0304675
:100EE0003946424603F0D8F901360134082C04BFD4
:100EF00009F101095C46013DEBD122E00498036948
:100F00009B6898478346019D149CDDF8008098F803
:100F100000204AFA04F31A420AD0049831464A469D
:100F2000FFF7CCFE80EA0B023046394603F0B4F9F5
:100F300001360134082C04BF08F101080024013DEA
:100F4000E5D1009A129B1A44009201370598874216
:100F50008AD1FEE1904611440491039B149A1344F4
:100F600003930593CDF800B0DDF854B000980578F0
:100F7000039F6E4A13681B7C13F0030302D0022BFD
:100F800046D08AE0BBF1000F22D0059F149C019E41
:100F9000DDF800A04FF0C009C4F103035B00C3F10A
:100FA000060249FA02F22A4022FA03F33846414681
:100FB0005BF8232003F070F90134042C04D19AF873
:100FC00001500AF1010A00240137013EE4D164E036
:100FD000059F149C019EDDF800A04FF0C009C4F1EC
:100FE00003035B00C3F1060249FA02F22A403846C5
:100FF0004146DA4003F050F90134042C04D19AF848
:1010000001500AF1010A00240137013EE7D144E012
:10101000BBF1000F22D0149C019EDDF800A04FF020
:10102000C009C4F103035B00C3F1060249FA02F2EE
:101030002A4032FA03F305D0384641465BF82320B4
:1010400003F02AF901370134042C04D19AF8015035
:101050000AF1010A0024013EE3D11EE0149C019E26
:10106000DDF800A04FF0C009C4F103035B00C3F139
:10107000060249FA02F22A40DA4003D038464146D5
:1010800003F00AF901370134042C04D19AF8015015
:101090000AF1010A0024013EE6D1009B12980344A4
:1010A000009308F10108049A90457FF45FAF50E186
:1010B0009046511804910398149B1844039005908E
:1010C000CDF800B0DDF854B0009A1578039F1748AA
:1010D00003681B7C13F0030302D0022B48D08CE082
:1010E000BBF1000F24D0059F149C019EDDF800A0E9
:1010F0004FF0F009C4F101039B00C3F1040249FA67
:1011000002F22A4022FA03F3384641465BF82320D4
:1011100003F0C2F80134022C04D19AF801500AF10C
:10112000010A00240137013EE4D166E0A00200205C
:10113000059F149C019EDDF800A04FF0F009C4F15A
:1011400001039B00C3F1040249FA02F22A40384627
:101150004146DA4003F0A0F80134022C04D19AF899
:1011600001500AF1010A00240137013EE7D144E0B1
:10117000BBF1000F22D0149C019EDDF800A04FF0BF
:10118000F009C4F101039B00C3F1040249FA02F221
:101190002A4032FA03F305D0384641465BF8232053
:1011A00003F07AF801370134022C04D19AF8015087
:1011B0000AF1010A0024013EE3D11EE0149C019EC5
:1011C000DDF800A04FF0F009C4F101039B00C3F16A
:1011D000040249FA02F22A40DA4003D03846414676
:1011E00003F05AF801370134022C04D19AF8015067
:1011F0000AF1010A0024013EE6D1009A129B1A442A
:10120000009208F10108049880457FF45DAFA0E0EA
:10121000154601EB0209DFF84081039F3E46019A23
:101220001644CDF80890B946159FD8F800301B7CBD
:1012300013F0030302D0022B24D048E01FB9019B16
:10124000002B12DC43E00198002840DD4C46C9EB3E
:101250000B0A1AF804302046294657F8232003F0D9
:101260001BF80134B442F4D131E04C46C9EB0B0A0F
:10127000204629461AF8042003F00EF80134B4423F
:10128000F6D124E01FB9019A002A13DC1FE0019B6C
:10129000002B1CDD4C46C9EB0B0A1AF804302BB1AD
:1012A0002046294657F8232002F0F6FF0134B442C5
:1012B000F3D10CE04C46C9EB0B0A1AF804201AB122
:1012C0002046294602F0E8FF0134B442F5D11298D5
:1012D00083440135029A9542A7D13AE0174601EBC3
:1012E0000209DDF80C80019B9844039EDDF848A0BC
:1012F000019800280BDDABF1020534462046394643
:1013000035F8022F02F0C8FF01344445F6D1D3442A
:1013100001374F45ECD11CE0174601EB0209DDF81F
:101320000C80019A9044039EDDF848A0019B002B9D
:101330000BDDABF1040534462046394655F8042F41
:1013400002F0AAFF01344445F6D1D34401374F459A
:10135000ECD107B0BDE8F08FA002002008B54FF433
:101360000060012101F09EFB4FF40060002101F0BC
:1013700099FB08BD10B40B4A5368446881680C435C
:10138000C1680C4301680C430169214323F4FD4308
:1013900023F07F030B43007D034353605DF8044B50
:1013A000704700BF002C0140014B1860704700BF20
:1013B000A0802542014B1860704700BF002C0140FF
:1013C000024B186800F00300704700BF002C01407A
:1013D00010B40268094B9A60DA6822F4FF6222F0C6
:1013E0000702846841680C43C168214300690143D6
:1013F0000A43DA605DF8044B704700BF002C0140DF
:10140000014B1869C0B27047002C014082B0002324
:101410000193034B03440193019B186802B070478A
:10142000142C014010B40268094B5A6242689A6257
:10143000DC6A24F0F704C2688168114302690A4338
:10144000406902432243DA625DF8044B704700BFF3
:10145000002C0140014BD3F880007047002C014064
:10146000014BC3F880007047002C014021B1054BAF
:10147000DA6B1043D8637047024BDA6B22EA000044
:10148000D8637047002C0140034B5B6B18420CBFC4
:1014900000200120704700BF002C0140014B9863E1
:1014A000704700BF002C0140034B5B6B18420CBF20
:1014B00000200120704700BF002C0140014B9863C1
:1014C000704700BF002C014038B5044603681D2B4F
:1014D00002D0262B2CD02FE0406819490AF0DAF907
:1014E000606840F60B010FF063FA054615490AF0F3
:1014F000D9FB28466FF07F410AF06CFB606840F62C
:101500000E010FF055FA05460F490AF0CBFB2846AD
:10151000FF210AF05FFB28460E210AF077FB606886
:1015200040F612010FF044FA4A210AF03DFE38BDA0
:1015300080680FF011F938BD11F04CFD38BD00BFC7
:1015400007070700D4AD02081C92020800B583B05B
:101550000FF06CFA03460022009201920348092121
:10156000034A0BF049FB03B05DF804FBE85902089D
:10157000C914000808B504484FF4FA211AF0FCFD1C
:10158000024819F08FFA08BD00000068D0B00208C8
:1015900008B502481FF002FF08BD00BF285B020823
:1015A00008B510B1012804D007E006481FF0F6FE88
:1015B00008BD05481FF0F2FE08BD04481FF0EEFE0E
:1015C00008BD00BF3C5B0208505B0208645B020878
:1015D00008B502481FF0E2FE08BD00BF7C5B0208B0
:1015E00008B502481FF0DAFE08BD00BF945B020890
:1015F00008B502481FF0D2FE08BD00BFA85B020874
:1016000008B502481FF0CAFE08BD00BFBC5B020857
:1016100008B502481FF0C2FE08BD00BFD05B02083B
:1016200008B5094809490022134619F0FBF80020C3
:101630004FF4A071F02214F09FFE00204FF4A0712F
:10164000F02214F07FFE08BDB459020870E00208D1
:1016500001290CBF00204FF0FF307047FEE700BFAC
:1016600010B5124B124A9A420DD2131D114CE41AB6
:1016700024F003040434002310460F495A581A502A
:101680000433A342FAD10D480D494FF000028842BD
:10169000B8BF40F8042BFFF6FAAFDFF82800016866
:1016A00041F47001016000F08BFE10BDBC0B002006
:1016B00000000020BF0B0020E4E40208700C0020B2
:1016C0004420012088ED00E020230B800048704773
:1016D0001C00002010B50446812106F065F9204663
:1016E000012106F061F9204608F0B8FC002010BD89
:1016F00010B50446FFF7EEFF204681214022022369
:1017000006F028F9204601214022022306F022F9A2
:10171000204608F06FFC002010BD00BF70B50646E3
:101720000C460B7813F060053FD0202D61D14A782C
:10173000FE2A02D0FF2A23D033E04A88D2B9CA88D1
:10174000012A17D113F0800F14D02B4B1B689B6913
:101750009847C0B2294B187030B130461946012263
:1017600008F0D8FB002545E03046214603F038FB61
:1017700002253FE03046214603F032FB022539E0E6
:101780004A8842B9CA8832B913F0800F03D108F0F1
:1017900053FC00252EE03046214603F021FB0225B4
:1017A00028E003F01DFB022524E04B780A2B04D02F
:1017B0000B2B07D0012B1DD108E01149012208F0A5
:1017C000A9FB17E04A880D4B5A7013E0097906F01F
:1017D0007BF93046217906F0E7F8A1883046C9B296
:1017E0004022022306F0B6F83046217908F0EEFCDC
:1017F00000E00025284670BDA8000020700C0020E5
:10180000710C002008B508F04BFC002008BD00BF9B
:1018100008B508F063FC002008BD00BF10B5044601
:10182000D0F8E8351B699847032384F8123100206B
:1018300010BD00BF08B590F8123180F813310423B1
:1018400080F81231D0F8E835DB689847002008BDF1
:1018500008B5D0F8E435DB6903B19847002008BD2E
:1018600008B5D0F8E4351B6A9847002008BD00BFD2
:1018700008B5D0F8E4355B6A9847002008BD00BF82
:1018800010B50446002140220B4606F063F82046BE
:1018900080214022002306F05DF8012384F81231F4
:1018A000D4F8E8355B68A0789847002010BD00BFE9
:1018B00010B582B00446694603F070FA9DF8001036
:1018C00001F01F03012B08D013B1022B0AD00EE048
:1018D0002046694603F092FA0EE02046694603F07E
:1018E0002BFC09E02046694603F042FC04E0204658
:1018F00001F0800106F0A8F8002002B010BD00BF82
:1019000010B504460A46002948D190F81131022B3F
:1019100038D1D0F83821D0F824319A4211D9D21ACE
:10192000C0F83821C178012904D1D0F828110B441E
:10193000C0F828312046D4F8281192B208F0FCFAF9
:1019400020E0D0F83C21B2FBF3F103FB112161B997
:1019500093420AD8D0F840319A4206D20A4608F09B
:10196000EBFA0023C4F840310CE0D4F8E435DB682E
:101970002BB194F81221032A01D120469847204622
:1019800008F0FEFA94F81631012B11D12369094AA7
:1019900012685A60002384F8163109E0D0F8E43563
:1019A0005B692BB190F81211032901D111469847B8
:1019B000002010BD2C09012010B504460A4659BB71
:1019C00090F81131032B31D1D0F89023D0F87C332B
:1019D0009A4214D9D21AC0F89023C178012904D1AF
:1019E000D0F880131944C0F880139A4228BF1A46D1
:1019F0002046D4F8801392B208F0A8FA16E0D0F886
:101A0000E4351B6923B190F81221032A00D19847CD
:101A1000204608F0A5FA09E0D0F8E4359B692BB11F
:101A200090F81211032901D111469847002010BDEA
:101A3000F8B504460D4616461F4603F025F9C4F8CE
:101A4000E475069BC4F8E835C4F8EC6520462946E1
:101A500005F032FFD4F8E8351B689847204603F0BC
:101A60005DF9F8BD10B50446D0F8E4351B68984719
:101A7000D4F8E8359B689847002010BD08B5D0F829
:101A8000E4355B689847002008BD00BF08B504F046
:101A900027F905F02DFD04F02FF908BD70B584B0CD
:101AA00001F022FC14F07EFE054614F08FFE06467F
:101AB0000EF0BCFF294632460CF034FB0E4B1B687F
:101AC0000093022301930D4B0293002403942046BC
:101AD0003C212A46A6F13C0310F030FC0090084B54
:101AE0000193084B02930394204621462A464FF463
:101AF000167310F023FCFEE7BC090120091B000847
:101B000002000400ED1B000808B511F063FA08BDDF
:101B1000F0B585B004684368052B5CD120460BF016
:101B20007FFA074620460EF09DFD054620460EF042
:101B3000B7FD0646204603A904220BF015FD002F31
:101B4000264808BF6FF07F4017F020F818F0B0FF6C
:101B5000234C039B03EB430354F8230017F022F8B4
:101B60000C2700970A200621392235231AF0A6FDFA
:101B70006FF07F4017F016F8039B03EB430304EB71
:101B80008303586812210E2218F0C0FA002017F0C3
:101B900009F8144816F0BEFF384616F09DFF039B67
:101BA00003EB430304EB8303986850211E2218F0D3
:101BB000F9FC0D4816F0F6FF701E50216A1E17F052
:101BC00055FE183E06EBD67204F17800A5F1280107
:101BD000521018F09BFA002005B0F0BDCCCCCC0020
:101BE000E85B02081C920208C8C7CC002DE9F04748
:101BF00088B0044646680368262B05D0302B53D0A6
:101C0000012B40F087805BE080680EF0A5FDE36863
:101C1000022B07D0032B43D0012B7DD10122404B57
:101C20001A6079E03E4B1B68002B75D06368A0F505
:101C3000B87008AD45F8080D18460EF063FD0EF0BB
:101C400061FD04460EF00EFD074620460EF028FD0D
:101C5000034602220092334A019204260296002093
:101C600001463A4610F062FC0746294632460BF020
:101C7000CBFD20464FF4FA71002212F013F94FF415
:101C8000FA7016F0DDFD20464FF4FA71002211F0D3
:101C90009FFF384610F03EFD0022214B1A603BE0CA
:101CA00000221F4B1A6037E0C26813682BB1012B6A
:101CB00032D100221A4B1A602EE03C2313622BE033
:101CC00030460EF0CFFC8146002307934FF0020808
:101CD0001D46154FC3EB03110096CDF80480029505
:101CE00003F5B873039304240494284689004A46F4
:101CF0003C230BF071FB824639460BF075F95046D8
:101D000007A922460BF02CFC079B013307930A2BF3
:101D100002D8DFE711F05EF908B0BDE8F08700BF38
:101D2000740C00202D1D0008111B000800B587B0A1
:101D3000426803680F2B15D1104605A904220BF049
:101D400041FD059B022B0FD103230093084B019308
:101D5000002302930393074807494FF4806201F080
:101D60008BF901E011F036F907B05DF804FB00BF14
:101D7000B00B01206D2500081078020870B586B000
:101D800001F0B2FA06AC44F8040D02260096114B9D
:101D9000019300250295284629464FF4A072F023AE
:101DA00010F0C4FB0C4B1860009001960B4B029393
:101DB0000395284629464FF4A0723C2310F0BEFA42
:101DC000064664252046294601F076FB30460CF095
:101DD000EDFDF7E7091B0008BC090120E11D000823
:101DE00070B584B00446456803680F2B48D002DC08
:101DF000012B07D07FE0262B2DD040F21312934207
:101E000016D078E00095022301930024029440F656
:101E1000180303930A2014211E2228230BF026FB0B
:101E2000284621464FF47A7223460BF0F5FF65E011
:101E3000334B5B680133052B02D0314A536002E01B
:101E400000222F4B5A60284610F01CFAE06800214F
:101E50000CF022F852E0C368294A9360012B4DD15F
:101E600018F026FE02230093264B019300230293D1
:101E70000393254825494FF4806201F0FDF83DE0C9
:101E800028460EF0EFFB0446214816F08BFE651E37
:101E9000002001462A46392317F0C4F81D4816F0E1
:101EA00081FE00203A212A463B2317F0BBF8A4F11B
:101EB0001E05194E06F18C002946032218F026F95A
:101EC0000F4B5B6806EB8306D6F8A0002946032279
:101ED00018F01CF9114816F01DFE002016F062FEE5
:101EE000022016F0E9FD04EBD4710D4849101422CC
:101EF00018F03EFB02E0204611F06CF804B070BD13
:101F0000740C0020B80901209D1A00081C780208F2
:101F1000F8F8F800B2B2B200E85B0208E8C50208BF
:101F20002478020830B583B001F0DEF902AC44F841
:101F3000040D64252046294601F0BEFA17F0A0F8EA
:101F400002F068F8F6E700BF0B4B4FF47A721A857F
:101F50000122DA625A63198B89B241F06801198350
:101F6000198C89B241F006011984198C89B2114388
:101F700019841A80704700BF000C0040384B4FF0A6
:101F8000AC629A601A6842F480321A601A4613688A
:101F900013F4003FFBD040F20472324B1A60A3F5F9
:101FA0008063314A5A601A6842F080721A601A4699
:101FB000136813F0007FFBD0294A936843F414435D
:101FC00043F002039360936813F0080FFBD0274B94
:101FD000D3F8882042F47002C3F88820204B1A6B93
:101FE00042F001021A631A6B42F002021A631A6B82
:101FF00042F004021A631A6B42F008021A631A6B69
:1020000042F010021A631A6B42F020021A631A6B34
:1020100042F040021A631A6C42F080521A641A6B42
:1020200042F480021A639A6B42F001029A631A6CBE
:1020300042F008021A641A6C42F480021A645A6C64
:1020400042F480425A641A6B42F480521A635A6B0B
:1020500042F040025A635A6C42F400625A6470477C
:1020600000380240003C02400854400700ED00E008
:10207000F0B583B0AF4C236843F480532360A3686A
:1020800043F44053A360636943F0400363612368F2
:1020900043F002032360A36843F00303A3602046D8
:1020A00000210C2202F058F8236843F00803236053
:1020B000A36843F00C03A360204601210C2202F028
:1020C0004BF8236843F400732360A36843F4407320
:1020D000A360204604210C2202F03EF8236843F45A
:1020E00000632360A36843F44063A3602046052196
:1020F0000C2202F031F8236843F400432360A36804
:1021000043F44043A360204607210C2202F024F848
:10211000236843F400032360A36843F44003A360EF
:1021200020460B210C2202F017F8236843F00053DD
:102130002360A36843F04053A36020460E210C2285
:1021400002F00AF8236843F000432360A36843F0D9
:102150004043A36020460F210C2201F0FDFF764E84
:10216000336843F400433360B36843F44043B360DF
:10217000304607210C2201F0EFFF336843F40033AF
:102180003360B36843F44033B360304608210C2217
:1021900001F0E2FF336843F400233360B36843F493
:1021A0004023B360304609210C2201F0D5FF33688B
:1021B00043F400133360B36843F44013B360304614
:1021C0000A210C2201F0C8FF5C4F3B6843F0040376
:1021D0003B607B6843F002037B60BB6843F00C0309
:1021E000BB607B6943F002037B617B8B9BB243F056
:1021F00002037B833B6843F010033B60BB6843F002
:102200003003BB607B6943F004037B613B6843F0B0
:1022100002033B60BB6843F00303BB603B6A43F0CF
:1022200002033B62464D2B6843F480232B60AB686E
:1022300043F40023AB606B6943F400736B616B8BF9
:102240009BB243F400736B832B6843F040032B6015
:10225000AB6843F08003AB606B6943F008036B61CC
:102260002B8B9BB243F008032B83364B1A6842F446
:1022700080221A609A6842F400229A605A6942F4F5
:1022800000725A615A8B92B242F400725A83AB6860
:1022900043F04053AB60EB6843F08053EB602B6836
:1022A00043F400532B60AB6843F44053AB602846C3
:1022B0000621022201F050FFB36843F44073B3607B
:1022C000F36843F48073F360B36843F0C003B36012
:1022D000F36843F04003F3602B6843F400132B6072
:1022E000AB6843F44013AB6028460A21042201F096
:1022F00033FF2B6843F400032B60AB6843F44003C7
:10230000AB6028460B21042201F026FF0E4B9A6891
:1023100042F480629A60DA6842F48062DA604FF4D4
:102320008073009300238DF804308DF80730384611
:1023300069460BE0000C0240001002400000024021
:1023400000040240001402400008024001F0B0FE08
:10235000638B9BB243F04003638303B0F0BD00BFC7
:1023600030B58BB00024069407940894099406A80D
:1023700000F06CFD00948DF8044001258DF80550A7
:102380000294039404948DF81450684600F054FDB0
:1023900004F1804404F590342046694600F024FDA1
:1023A000204609212A46072300F072FD20462946CF
:1023B00000F0B8FD2046294600F05EFD0BB030BDB0
:1023C00030B587B002F036F9FFF7D8FDFFF750FEC1
:1023D000FFF7BAFD414B1A8B92B242F040021A83CA
:1023E00007F034FA01F0E4FE01F034FF012005F0BB
:1023F000EFF902F0C1F902F0B5FA07F085FC07F039
:1024000007FC07F01DFC364B1B6913F0100F08D1B9
:10241000344B009334480121344A354BFFF708FB15
:10242000FEE704200BF08EFF18F092FB01200DF068
:10243000F7FF0AF0C1FF4FF48070012100F016FB96
:102440000223049303258DF814508DF81730294882
:1024500004A901F02DFEFFF783FF0095264B0193A1
:10246000002402940394254825494FF40062234632
:1024700000F002FE04230093224B01930294039484
:10248000214822494FF40062234600F0F5FD0095F3
:102490001F4B0193029403941E481F494FF480621E
:1024A000234600F0E9FD1D4B00931D483C2101220D
:1024B000134600F083FB04461A4B186040B100F04D
:1024C00013FF0246002300932046194600F094FBB8
:1024D00000F0D8FE002007B030BD00BF000C024065
:1024E000001002400000002058FA0020F4000020F4
:1024F0003C0000200004024030090120251F000894
:1025000030780208B40B01207D1D000838780208DD
:10251000B80901209D1A00081C7802088D1A0008CD
:1025200044780208C00901200122014B1A73704748
:10253000740C00200122014B5A737047740C002068
:1025400070B506460D460124204605F057F90028CF
:10255000FAD005F04DF90446012005F059F9B4FB15
:10256000F5F305FB1340304470BD00BF2DE9F04F7B
:10257000ADF2C44D00F0B8FECDF8BC040024ADF8B7
:10258000BA44A34B186800F047FE03F0A9FB0EA85D
:10259000A049224604F06CFD9BA89F4904F0F8FE78
:1025A000A5A89E49012204F095FD9D4B9D4A9A6184
:1025B000FF22DA6107941C46002500E001359BA844
:1025C000214604F027FF10B9637A002BF6D1079556
:1025D000E8B20A90944CA61E2E440546DDF81C80F5
:1025E0001CE000204146FFF7ABFF08F1FF33002B52
:1025F0000BDDBDF8BA34621E12F8011F814208BF1C
:102600000123B242F8D1ADF8BA34BDF8BA3413B9E7
:10261000E0553D4602E00023ADF8BA346F1EFFB22C
:10262000002DDED10A950024ADF8BA4403F064FB16
:102630007E4816F06FFAFEF789FF81467A4B6D22CD
:1026400083F8FC20752283F8FD20732283F8FE2096
:10265000692283F8FF20632283F800212F2283F868
:102660000121059401210B910994069403F5B47B93
:102670006F4CDFF8D0A10DF2BC40322100F01CFFFE
:10268000484640F60B010EF093F90C90484640F690
:1026900012010EF08DF90546484640F60A010EF08B
:1026A00087F90890484640F608010EF081F9804607
:1026B000484640F609010EF07BF90646484640F6CA
:1026C00011010EF075F90746002007F00DFA03F02E
:1026D00007FBA5A859464FF400720DF2BA4304F067
:1026E00099FD40BB284609F08BFD0D90012007F0B5
:1026F00007FABDF8BA346BB100251BF8050007F0E6
:102700000DFA236913F4807FFBD00135BDF8BA348C
:10271000AB42F2DC002007F0F3F90D9BDAB20B209C
:10272000114607F02DFABDF8BA34B3F5007F0698CC
:1027300038BF0120069007F053FA07F07BFB4FF4F7
:102740007A7303FB00F00028B8BF0730C010099966
:1027500091FBF0F5042007F0AFFA642101FB00F1D2
:10276000089891FBF5F10AF055F803F0C5FADAF88C
:10277000103013F0100F19D1DAF8103013F0100FD9
:10278000FAD00B9A42B12B4B1A8B92B242F40072E0
:102790001A8300230B9309E0264B5A8B92B242F422
:1027A00000725A8301F056FD01200B9040460AF05A
:1027B00037FC30B140460AF033FC0028FAD1012141
:1027C000069138460AF02CFCA8B138460AF028FCDD
:1027D0000028FAD1032300930D4B019300230293A9
:1027E0000393154815494FF4006200F045FC144B63
:1027F000186800F011FD30460AF012FC20B3304694
:102800000AF00EFC0028FAD1059A023A05921FE060
:10281000B8090120905B02084C780208547802083D
:10282000E8E20020840C002000D00768D4AD020844
:1028300000000240000402409D1A00081C780208B3
:10284000B00B012000100240069B012B7FF413AF58
:1028500003F046FA059801300799884208BF002026
:102860000590304B304A9A61FF22DA612F4A02F21A
:10287000011702F265113B46002203F8012F8B423B
:10288000FBD19BA82A4904F083FD284905980B5CDD
:102890006BB10A9D234E80469BA8314604F0BAFDD9
:1028A0000135EDB2214A12F80830AB42F4D19BA8B1
:1028B0001C4904F0AFFDE8B91A4B5B7AD3B103F0C1
:1028C0001BFA184B9A6913784BB10132154907F876
:1028D000013F8A6112F8013B002BF8D10AE0062380
:1028E000104A124800F1FC019818C078585401337E
:1028F000132BF6D107F08CF903F0F2F9A5A80B4AD7
:1029000002F1FC01012204F0E5FBA89B099303F00E
:10291000F3F90C98054A02F5817109F091F9002349
:102920000693A8E6E8E20020840C002000D00768A7
:102930004C780208FEE700BF70B582B0064E4FF437
:102940007F45022400950194304605210A22FF2389
:1029500001F0CCFDF6E700BF6478020810B4244B08
:102960009B6803F00C03042B05D0082B06D003BB97
:10297000204B03601FE01F4B03601CE01C4B596899
:102980005A6802F03F0211F4800F08BF184B5968D3
:10299000C1F38811174BB3FBF2F303FB01F3144AA5
:1029A0005268C2F3014201325200B3FBF2F30360FA
:1029B00001E0104B03600E498B68C3F303130E4A0A
:1029C000D35CDBB2046824FA03F343608C68C4F37D
:1029D0008224145DE4B223FA04F484608968C1F3AC
:1029E0004231525CD2B2D340C3605DF8044B7047B1
:1029F000003802400024F4009800002021B1054B6B
:102A00001A6B104318637047024B1A6B22EA0000DE
:102A1000186370470038024021B1054B5A6B1043D0
:102A200058637047024B5A6B22EA000058637047A4
:102A30000038024021B1054B9A6B104398637047F0
:102A4000024B9A6B22EA00009863704700380240FC
:102A500021B1054B1A6C104318647047024B1A6C75
:102A600022EA0000186470470038024021B1054B8B
:102A70005A6C104358647047024B5A6C22EA0000AB
:102A8000586470470038024021B1054B1A6A104360
:102A900018627047024B1A6A22EA000018627047F7
:102AA0000038024021B1054B5A6A10435862704702
:102AB000024B5A6A22EA000058627047003802400E
:102AC000704700BFFEE700BFFEE700BFFEE700BFA4
:102AD000FEE700BF704700BF08B50648FDF7E4FCFD
:102AE00018B1044808F0AEFD08BD024802F026FE09
:102AF00008BD00BF58FA002008B502F033F908BD40
:102B000010B504464160206191420AD8D21A816909
:102B10008A4211D20A4B1868211D01F05BFD00208A
:102B200010BD9A4201D2994208D2054B5868211D26
:102B300001F050FD002010BD012010BD012010BD8E
:102B4000840D002070B503F0CBF80C4B9B6893B953
:102B50000A4C04F10C06304601F01EFD04F120057C
:102B6000284601F019FD666025600A200C2100222C
:102B700002F05CFCA06003F0BFF870BD840D002083
:102B800000B585B0FFF7DEFF094B9B6863B10B23EF
:102B900000930023019302930393064806494FF4E0
:102BA000007200F069FA00E0002005B05DF804FB57
:102BB000840D0020D12C0008BC7802082DE9F041DA
:102BC000804616461D460F4689B1282007F016FBA1
:102BD000044668B1FFF7B6FFC4F80080A761E6615C
:102BE0002562069B6362201D01F0E2FC00E00024E8
:102BF0002046BDE8F08100BF10B584B00F4CA4683A
:102C0000C4B10191029203906BB900F0B3FD0128A9
:102C10000A4B986801A907BF069A002300221346B1
:102C200002F026FC07E0204601A91A46002302F024
:102C3000B3FC00E0002004B010BD00BF840D0020F4
:102C40002DE9F04782B0804600F04EFB07461F4B4F
:102C50005B6B984231D21D4E4FF0000921E0E368D2
:102C6000D3F800A0E368DC68251D284601F0D0FCFD
:102C7000636A20469847E369012B12D1A369534444
:102C8000534506D9636024617068294601F0A2FCAF
:102C900007E0CDF800902046494652464B46FFF7E4
:102CA000ABFF74682268002AD9D1084B1A685A60B1
:102CB0001C600123C8F8003002E00023C8F800308F
:102CC000024B5F63384602B0BDE8F087840D0020F8
:102CD000F0B587B0434E73681A68002A78D0DB6875
:102CE0001C6800F0F7FA03A8FFF7AAFF0546039B4C
:102CF0005BBB84421FD800F075FB7368DB68DF683C
:102D0000381D01F085FCFB69012B0FD1B9693846EC
:102D100021442A462346FFF7F3FE012806D100236B
:102D20000093384619462246FFF766FF7B6A38460D
:102D300098470CE00024B068611B02F0E1FC00F051
:102D400051FB20B902F0C4FF01E000F04BFB02A8E8
:102D5000FFF776FF074631E0059C24B1616911B1A8
:102D6000201D01F055FC039902291BD0032922D014
:102D700029BB049BA169204619443A46FFF7C0FECF
:102D800001281BD1636A20469847E369012B15D1BE
:102D9000A5690023009320461946049A2A44FFF7A8
:102DA0002BFF0BE00499A161204639443A463B468B
:102DB000FFF7A6FE02E0204607F084FA0025B0687F
:102DC00003A92A462B4602F013FC0028C4D182E74F
:102DD00000F080FA03A8FFF733FF0546039B002BA2
:102DE000A8D0B2E7840D002010B4436823F04073EC
:102DF00023F480730A6813430A7943EA0223436089
:102E00008468CA680B691A438B681A43094B2340CC
:102E100013434A7943EA42038360C26A22F4700290
:102E20000B7D013BDBB242EA0353C3625DF8044B06
:102E3000704700BFFDF7FFC00023036003714371BB
:102E40008360C360036101230375704710B4084AAF
:102E50005168084B0B40446801680C43816821436A
:102E6000C06801430B4353605DF8044B704700BFDB
:102E700000230140E030FCFF21B1836843F00103EF
:102E800083607047836823F001038360704700BF4D
:102E900070B409290ED9C668A1F10A0404EB4404F0
:102EA0000725A54026EA050503FA04F445EA0403CC
:102EB000C3600BE0066901EB41040725A54026EA43
:102EC000050503FA04F445EA04030361062A0CD855
:102ED000446B013A02EB82021F23934024EA03036E
:102EE00001FA02F21A4342631AE00C2A0CD8046B6E
:102EF000073A02EB82021F23934024EA030301FAFC
:102F000002F21A4302630BE0C46A0D3A02EB82023A
:102F10001F23934024EA030301FA02F21A43C26218
:102F200070BC704721B1836843F48063836070474D
:102F3000836823F480638360704700BF002070477C
:102F40000020704700B583B031238DF80430002392
:102F50008DF805308DF8063001238DF8073001A873
:102F600004F068FC06F0DEFA003018BF0120404291
:102F700003B05DF804FB00BF38B50C46154606F0FB
:102F8000FBF958B94FF400732B60064BD3E91201DB
:102F9000420A42EAC1522260002000E0FF2040B213
:102FA00038BD00BF080C002008B50A4B93F900306B
:102FB000002B04DA06F0B6FA0022064B1A7006F06F
:102FC000DBF918B1FF20034B187000E0002040B27D
:102FD00008BD00BFBC0D002000B583B04FF40070E9
:102FE000009001930846002305F02CFD20B906F05F
:102FF000C3F90028FBD101E0FF2000E0002040B22F
:1030000003B05DF804FB00BF00B583B04FF400705F
:10301000009001930846002305F0BEFE20B906F09B
:10302000ABF90028FBD101E0FF2000E0002040B216
:1030300003B05DF804FB00BF10B504460C4B1A68E2
:1030400050605B68984206D2094B98681968043151
:1030500001F0C0FA10BD064BD8681968043101F0C0
:10306000B9FA044B1B689C423CBF024B1C6010BD6C
:10307000C40D0020CC0000202DE9F84F81460E46FB
:1030800093469A460A9FDDF82C800C9D502007F04D
:10309000B5F80446002800F0B980002D40F0B38058
:1030A0004FEA8B0007F0AAF8206318B9204607F012
:1030B00009F9ABE0A5214FEA8B021EF021F90BF1D3
:1030C000804B0BF1FF3B236B03EB8B0B2BF0070BC0
:1030D00004F13400314610221EF014FA002384F863
:1030E00043300B2F34BF3D460B25E562E564261DBA
:1030F000304601F05DFA04F1180001F059FA24613C
:10310000C5F10C05A561646258464946524602F075
:1031100097FD2060B8F1000F01D0C8F8004002F020
:10312000DFFD3C4B5A6C01325A641B685BBB394B68
:103130001C605B6C012B31D1364B03F1480503F564
:103140009C78284601F028FA14354545F9D1314DCF
:1031500005F59C79484601F01FFA05F5A67840462A
:1031600001F01AFA05F5B07001F016FA05F5BA701B
:1031700001F012FA05F5C47001F00EFAC5F80C90D2
:10318000C5F808800AE0234BD3F89C3133B9214BB2
:103190001B68DB6A9F4224BF1E4B1C60E36A1D4A0A
:1031A000D2F8A021934284BF1A4AC2F8A031194A2A
:1031B000D2F8A41161640131C2F8A411D2F8A82197
:1031C000934284BF134AC2F8A831124C04F148005C
:1031D00003EB830300EB8300314601F0EDF902F0CD
:1031E0008BFDD4F89C3143B12368DB6A9F4207D939
:1031F00002F06EFD0120BDE8F88F0120BDE8F88FD8
:103200000120BDE8F88F0563284653E74FF0FF30F3
:10321000BDE8F88FC40D002070B5044602F060FDD3
:10322000174B1B689C4203D026462CB9264600E06B
:103230000026134B1C68FFE7251D284601F0E8F91E
:10324000A36A1BB104F1180001F0E2F90C4C04F57B
:10325000BA70294601F0B0F9D4F8AC310133C4F8A2
:10326000AC31D4F8A4310133C4F8A43102F044FDE8
:10327000D4F89C3113B10EB902F02AFD70BD00BF25
:10328000C40D002000B585B0002300930193029384
:1032900003930D480D494FF40072FFF7EDFE01282E
:1032A0000FD1FFF76DFC01280BD14FF0BF0080F369
:1032B0001188074B0122C3F89C2100225A6002F0BA
:1032C000DFFC05B05DF804FB49350008FC78020816
:1032D000C40D0020034BD3F8B0210132C3F8B02154
:1032E000704700BFC40D002010B502F0F9FC034B7D
:1032F0005C6802F001FD204610BD00BFC40D002037
:10330000F8B5364BD3F8B031002B60D1334B5A6847
:1033100001325A605B68C3B9304BDA689968D9608A
:103320009A60D3F8B4210132C3F8B421DB681B687A
:1033300023B94FF0FF322A4B1A6006E0274BDB68B7
:10334000DB68DB685A68264B1A60244B5A68244BAA
:103350001B689A4241D3214BDB681B6843B11F4A6B
:10336000D368DB68DC686368526893420FD90BE06E
:103370004FF0FF321A4B1A60F8BDEB68DB68DC686F
:1033800063686A68934205D9154A1360F8BD134D06
:1033900005F14807261D304601F03AF9A36A1BB132
:1033A00004F1180001F034F9E36AD5F8A82193423A
:1033B00088BFC5F8A83103EB830007EB80003146D6
:1033C00001F0FAF8EB681B68002BD6D1D0E7034B6D
:1033D000D3F8B8210132C3F8B821F8BDC40D0020DC
:1033E000CC0000202DE9F04102F07AFC314BD3F8FB
:1033F000B021013AC3F8B021D3F8B031002B4FD13E
:103400002C4B5B6C002B4DD000272A4D05F1480852
:103410001EE0D5F86C31DC6804F1180001F0F8F812
:10342000261D304601F0F4F8E36AD5F8A82193424E
:1034300088BFC5F8A83103EB830008EB8000314654
:1034400001F0BAF82B68E26ADB6A9A4228BF0127CA
:10345000D5F86031002BDCD1164BD3F8B83183B1ED
:10346000144BD3F8B8319BB1124CFFF749FFD4F895
:10347000B831013BC4F8B831D4F8B831002BF4D1DD
:1034800006E0012F04D00B4BD3F8BC31012B0BD13C
:103490000022084BC3F8BC2102F01AFC012404E00E
:1034A000002402E0002400E0002402F025FC204675
:1034B000BDE8F081C40D002038B505460C46FFF785
:1034C00009FF2B681C44134A5268934207D9A34250
:1034D0001CD9104B5B682C609C420FD906E0A342BC
:1034E00012D80C4B5B689C420ED80FE0094B186851
:1034F000043001F08DF82046FFF79EFDFFF772FFC4
:1035000030B902F0E5FB38BD2C60EFE72C60F5E741
:1035100038BD00BFC40D002010B5044670B1FFF7E0
:10352000D9FE084B5A6814441868043001F070F84A
:103530002046FFF781FDFFF755FF08B902F0C8FBF1
:1035400010BD00BFC40D002008B5154CD4F8AC3137
:10355000F3B1FFF7BFFED4F87451FFF743FFBDB1DD
:1035600002F0BEFBD4F88031DD68281D01F050F870
:10357000636C013B6364D4F8AC31013BC4F8AC31FB
:1035800002F0BAFB286B06F09DFE284606F09AFE74
:10359000A36C012B01D902F09BFBFFF7CDF9D5E716
:1035A000C40D00201B4BD3F8B0314BB9194BD3F8E5
:1035B000A82102EB820203EB82039B6C2BB113E088
:1035C0000122144BC3F8BC217047124BD3F8A82139
:1035D000013AC3F8A821D3F8A82102EB820203EB39
:1035E0008202926C002AF1D00A4BD3F8A82148330A
:1035F00002EB820203EB82035A6852685A6003F1BD
:1036000008018A4204BF52685A605B68DA68014B5D
:103610001A607047C40D002038B50D460C4C216867
:10362000183100F0D7FF2068043000F0F1FFB5F149
:10363000FF3F06D1216804F5C470043100F0BCFFDF
:1036400038BD034B58682844FFF7F6FC38BD00BF6F
:10365000C40D002038B50D46064C2168183100F025
:10366000ABFF2068043000F0D3FF60682844FFF708
:10367000E3FC38BDC40D002038B5C368DC6804F134
:103680001805284600F0C4FF134BD3F8B031ABB98E
:10369000251D284600F0BCFFE36A0F4AD2F8A82196
:1036A000934284BF0C4AC2F8A83103EB83030B4852
:1036B00000EB8300294600F07FFF03E0084829461D
:1036C00000F07AFF044B1B68E06ADB6A984234BF63
:1036D0000020012038BD00BFC40D00200C0E0020CA
:1036E000240F0020034BD3F8B42102605B684360D1
:1036F000704700BFC40D002038B504460D4602F0E7
:10370000EFFA2B68B3F1FF3F1AD0124AD2F8B41186
:1037100022688A4204D00F4A516862688A4211D9ED
:103720000C4A51686268891A8B420DD90949496867
:10373000521A13442B602046FFF7D4FF002404E004
:10374000002402E0012400E0012402F0D5FA204622
:1037500038BD00BFC40D00200122024BC3F8BC21BC
:10376000704700BFC40D0020014B1868704700BFB0
:10377000C40D0020064BD3F89C313BB1044BD3F869
:10378000B031002B14BF0220012070470020704789
:10379000C40D002038B50446C36A184A1268D26ABC
:1037A000934229D2154A52F8481BC96AC1F10C014B
:1037B000816103EB830302EB83024169914217D1DC
:1037C000051D284600F024FF0C4A1368DB6AE362FB
:1037D000D2F8A821934284BF084AC2F8A83103EB6B
:1037E0008303074800EB8300294600F0E5FE38BD5F
:1037F000024B1B68DB6AC36238BD00BFC40D0020EA
:103800000C0E002038B50446E0B1C26AC36C9A427F
:1038100018D0051D284600F0FBFEE36CE362C3F1FF
:103820000C02A261084AD2F8A821934284BF064A3A
:10383000C2F8A83103EB8303044800EB8300294658
:1038400000F0BAFE38BD00BFC40D00200C0E0020F1
:10385000094B1B78094800F8331000EBC300120233
:1038600042600133DBB2042B02D0034A137070476D
:103870000022014B1A707047E00B0120BC0B0120A5
:1038800070B582B00E461446914B186013785A2BCF
:1038900000F2A382DFE813F05B00A102A10278002E
:1038A000A102A102A102A102A102A102A102A10200
:1038B000A102A102A102A102A102A102AB00A102E8
:1038C000A102A102A102A102A102A102D300CB0088
:1038D000A102A102CF00A102A102A102A102EB005C
:1038E000A1023201A102A1025B01A102D901A10240
:1038F000A102A102A1028802A102A102A102A102C9
:10390000A102A102A102A102A102A102A102A1029F
:10391000A102A102A102A102A102A102A102A1028F
:10392000A102A102A102A102A102A102A102A1027F
:10393000A102A102A102A102A102A102A102A1026F
:10394000A102A102A102A102A102A102DF00614B1A
:103950009B683BB15F4B587B05212022FFF778FF26
:10396000FF2548E25C4B1B689B6808469847054664
:1039700030B1304602213A22FFF76AFFFF253AE2D2
:103980000022564B1A8036E2554B03F112010022F9
:1039900003F8012F8B42FBD1524B70221A700C227C
:1039A000DA71514B1B78514A12789A4214D04D4A21
:1039B0004F4911F83300907001EBC301487910733F
:1039C000097951730133DBB2042B02D0464A1370DC
:1039D00002E00022444B1A701222404B1A802379D5
:1039E000934200F201823D4A1380002503E263788E
:1039F00013F0010F40F00182374B1B6801EBC10649
:103A0000DB6903EB86063279053223799A4238BFA7
:103A10001346324A1380002B40F0F3810025EAE17F
:103A2000013B9BB2F25CCA54002BF9D1DEE10025C8
:103A30002A4B1D80DFE10025284B1D80DBE1082398
:103A4000264A138027482B49013B9BB2CA5CC254CB
:103A5000002BF9D1CCE10823204A138021482649C4
:103A6000013B9BB2CA5CC254002BF9D1C2E11C4B92
:103A700003F10C01002203F8012F8B42FBD1164BFE
:103A80001B685B68304601A96A469847054630B115
:103A9000304602213A22FFF7DBFEFF25ABE1114B56
:103AA0000822DA7001994A1E100E1871100C587114
:103AB000120A9A710139D97102221A72009A110CF4
:103AC0005972110A9972DA720C22044B1A8092E12F
:103AD000DC0B0120801E0120A8000020B21E012066
:103AE0007B0E01207C0E0120B80B0120E00B012091
:103AF000BC0B01204C8B0208448B0208A24B1B68B4
:103B0000A24A5B680846114604329847054630B120
:103B1000304602213A22FFF79BFEFF256BE19B49CD
:103B20000868421E9A4B140E1C70140C5C70120A2A
:103B30009A700138D8704A68110E1971110C5971B8
:103B4000110A9971DA710822924B1A8053E1924B53
:103B50001B78002B3ED1914B93F90C30002B07DBE7
:103B60008E4B587B05212022FFF772FEFF2542E194
:103B7000854B1B689B680846984730B13046022148
:103B80003A22FFF765FEFF2535E1A178E3781B04B3
:103B900043EA016163790B43217943EA01217B4BBD
:103BA0009960E079227A42EA0022DA6011441B68C7
:103BB000994240F22881304605212122FFF748FE34
:103BC000FF2518E1754B587B05212022FFF740FEA9
:103BD000FF2510E14FF480526E4B1A806B4AD46877
:103BE000B4F5805F28BF4FF48054674B1968536861
:103BF0000D69304666499268B4FBF3F3A847002884
:103C000006DA304604211122FFF722FEFF25F2E0FA
:103C1000634B186881215E4A234603F0FBFE5B4B31
:103C20005A68B4FBF2F19A680A449A60DA68121B87
:103C3000DA605C4B9968091B996022B90322564BE4
:103C40001A700025D7E00025D5E0534B1B78002BD8
:103C50005BD1524B93F90C30002B07DA4F4B587B5A
:103C600005212022FFF7F4FDFF25C4E0464B1B6829
:103C70009B680846984730B1304602213A22FFF748
:103C8000E7FDFF25B7E0404B1B68DB6830469847EF
:103C9000054630B1304602212722FFF7D9FDFF2526
:103CA000A9E0A178E3781B0443EA016163790B433F
:103CB000217943EA0121354A9160E079237A43EA88
:103CC0000023D36019441268914240F2AA80304622
:103CD00005212122FFF7BCFDFF258CE02F4B587BEF
:103CE00005212022FFF7B4FDFF2584E001212A4AA7
:103CF0001170B3F5805F28BF4FF48053284A1068D5
:103D0000234A9BB203F06AFE75E0204AD468B4F5FA
:103D1000805F28BF4FF480541B4B196853684D696E
:103D200030461B499268B4FBF3F3A847002806DA33
:103D3000304604210322FFF78BFDFF255BE0134B88
:103D40005A68B4FBF2F19A680A449A60DA68121B66
:103D5000DA60144B9968091B996032B9104B1868E6
:103D6000002106F081F9002545E0B2F5805F34BFFF
:103D700013464FF480530A4A10680121044A9BB24B
:103D800003F02CFE002536E0A8000020840F002060
:103D90007C0E0120B21E0120B01E0120801E0120D9
:103DA000DC0B0120A01E0120637813F0020F06D067
:103DB000084605212422FFF74BFDFF251BE0214B80
:103DC00099899A680A441B689A4235D93046052178
:103DD0002122FFF73DFDFF250DE0084605212022A9
:103DE000FFF736FDFF2506E0002504E0002502E090
:103DF000002500E0002568B222E00723124A138064
:103E0000124E13490CE60221124B19700D4B5968E2
:103E100001FB02F2DA60104B9B689A423FF4DAAE83
:103E2000D0E6084A516801FB03F3D3600A4A92685E
:103E300093423FF45BAF51E70025034B1D80DAE767
:103E400002B070BD840F0020B21E0120548B020806
:103E50007C0E0120B01E0120801E012012230B8049
:103E600000487047D000002004230B8000487047B2
:103E7000E400002008B50A4620B90548054901F0CC
:103E800007FA03E00448034901F002FA014808BDBB
:103E900008790208F00B01202879020810B50A46BB
:103EA000034C0448214601F0F3F9204610BD00BF41
:103EB000F00B01205079020808B50A4620B90548E0
:103EC000054901F0E5F903E00448034901F0E0F990
:103ED000014808BD64790208F00B012074790208DA
:103EE00008B50A460248034901F0D2F9014808BD65
:103EF00084790208F00B012008B50A4602480349FC
:103F000001F0C6F9014808BD90790208F00B0120C4
:103F100010B40368816842681143C26811430269A2
:103F200011434269114382691143C2691143026A14
:103F30001143426A1143826A1143C26A1143026B00
:103F40000A434FF0204141F823208368082B06D113
:103F500003689B000B441A6842F040021A60036831
:103F60005C1C436B99691A6811435A6841EA021153
:103F70009A6841EA0221DA6841EA02411A6941EA93
:103F800002525B6942EA03624FF0204141F824206B
:103F9000C36AB3F5804F14D10468836B99691A68BA
:103FA00011435A6841EA02119A6841EA02211A69EA
:103FB00041EA02525B6942EA0362064B43F824205D
:103FC00005E002686FF07041024B43F822105DF883
:103FD000044B7047040100A039B1800000F120407B
:103FE000036843F0010303607047800000F1204044
:103FF0000268024B13400360704700BFFEFF0F00D2
:1040000008B5FFF771F908BD08B5FFF785FA08BDD7
:10401000704700BF704700BF10B5012001F096FA4D
:10402000074C206001200021032201F0FFF96060AD
:1040300020B100210A460B4601F01AFA10BD00BF5C
:10404000940F002008B5044B186800210A460B465F
:1040500001F00EFA08BD00BF940F002008B5074B11
:104060001B680BB9FFF7D8FF044B186800214FF00D
:10407000FF320B4601F0BCFA08BD00BF940F0020D0
:1040800008B5FFF771FB08BD0020704710B5044666
:10409000FEF74AFA0123C4F8F437002010BD00BF30
:1040A00010B50446FEF746FA0020C4F8F40710BD28
:1040B000F0B400230125032605FA03F20C6814402E
:1040C000944238D107685A0006FA02F4E4432740C4
:1040D0000760076891F804C00CFA02FC4CEA070775
:1040E00007600F79013FFFB2012F16D887683C4067
:1040F000846087684C7994403C43846047689CB2F4
:1041000005FA04FC27EA0C074760476891F806C0E7
:104110000CFA04F4A4B23C434460C7689CB2640047
:1041200006FA04F427EA0404C460C468CF7907FAE5
:1041300002F22243C2600133102BBDD1F0BC7047A4
:10414000036919420CBF0020012070470AB10183A6
:1041500070474183704700BF10B401F007039B0014
:10416000C90800EB8100046A0F21994024EA01018B
:104170000162016A9A40114301625DF8044B704785
:104180000A4B5A8B92B242F004025A834FF6FF73E5
:10419000013BFDD1054B1A8B92B242F004021A8307
:1041A0004FF6FF73013BFDD1704700BF0000024096
:1041B00010B4124B1A6842F420221A601A6822F0D6
:1041C00030021A601A6842F004021A600C4A116840
:1041D00041F0040111604FF080749C604FF4802026
:1041E0009860012199604FF400729A60DC60D86099
:1041F000D960DA605DF8044B704700BF800000A012
:10420000600000A010B44FF000412B230B70104B46
:1042100000221A701A701A70EF241C702A240C7075
:104220001A701A7001221A703F221A702C230B7018
:10423000C0F30724C0F307414FF49632044B1870C3
:104240001C701970013AFAD15DF8044B704700BF39
:104250000000018008B5FFF793FF01224FF00043F3
:104260001A704FF6FF73013BFDD111224FF000434E
:104270001A704FF6FF73013BFDD14FF00043292226
:104280001A7036221A70662203F580331A704FF4C2
:104290007F40FFF7B7FF08BD30B44FF000442A233A
:1042A0002370C0F307250D4B1D70C0B218701D7030
:1042B00018702B202070C1F307201870C9B2197034
:1042C000187019702C212170D1B21970C2F3072116
:1042D0001970C2F307421A7030BC704700000180A9
:1042E00070B44FF000452A242C70C0F307260C4C04
:1042F0002670C0B22070C2F307202070D2B22270A4
:104300002B222A70C1F307222270C9B22170C3F395
:1043100007222270DBB223702C232B7070BC7047F5
:10432000000001802DE9F0479EB015469A46269C74
:104330005708C7EB00095E08C6EB010807440E44A6
:10434000484641463A463346FFF7CAFF012C06D09D
:104350000AF1010005FB0000002843D156E02E229F
:104360004FF000431A7003F580331B780AFB05F504
:10437000002D45D0002327491A460C7818460DF821
:10438000034014460134B4F5807FFBD191F800E07E
:1043900014AC04F800E014460134B4F5807FFBD17E
:1043A00091F800E00AAC04F800E014460134B4F5DA
:1043B000807FFBD10133AB42DFD1484641463A46CC
:1043C0003346FFF78DFF0023124A1DF803101170CA
:1043D00014A9595C11700AA9595C117001339D42EE
:1043E000F3D113E0C4F30726C4F307450022094BB9
:1043F000214619701E701D7001328242F9D105E00C
:10440000484641463A463346FFF76AFF1EB0BDE8CC
:10441000F08700BF000001802DE9F04F8FB0044607
:1044200007910892DDF86090DDF864B0DDF868A0CF
:104430002D4A07CA0EAD05E9070005EB830353F8C3
:104440000C3C1A7893F8018099781E3C04FB0133E8
:10445000013B0693BAF1010F1CBF0AEBDA7323F09C
:10446000010A564608FB0AF8C2453ADC02FB0AF389
:1044700001330393CAF100050995089DA8440AF188
:104480000107CDF81090CDF814B0069D15F80199EC
:104490000695039DF5B1DDF81CB05C46802505EA64
:1044A0000903049A0599002B08BF0A4613466D08B4
:1044B000BAF1010F00922046414619BF3A463B46E9
:1044C00032463346FFF72EFF3444CBEB0403039907
:1044D0008B42E4D3099DA844089DC5EB08039A4587
:1044E000D3DD0FB0BDE8F08FA07902082DE9F04FC1
:1044F00085B0064617469A46DDF838B0DDF83C90A0
:10450000B9F1010F05D1CC0000E00024307858B992
:104510003FE0A9F10203012B01D80C01F6E7B9F144
:10452000040FF2DD4C01F1E74FF0000809F1FF350F
:10453000032D1FD8DFE805F0020B0B1608344FEAF5
:104540000718B4F59E7F15DB0137032412E0103401
:1045500007EB07184FEA4808B4F5A07F0ADB0137DC
:10456000052407E020344FEA8718B4F5A07FA4BFE4
:1045700001370824CDF800A0CDF804B0CDF808909C
:10458000214642460223FFF747FF16F8010F002895
:10459000CED105B0BDE8F08F00F1080343604FF0C5
:1045A000FF328260C360036100230360704700BF75
:1045B00000230361704700BF43685A684A6042683D
:1045C0008A605A68916059604160086103680133EC
:1045D0000360704710B40C68B4F1FF3F01D1036968
:1045E0000AE000F10803C2681268944204D35B68D1
:1045F0005A6812689442FAD25A684A6091608B6095
:10460000596008610368013303605DF8044B70472B
:10461000436882689A60836842685A6003695A688E
:10462000824204BF82685A60002202611A68013A1D
:104630001A60704782B0394BD3F8882042F4700278
:10464000C3F88820364B1A6842F001021A60002233
:104650009A60196821F0847121F480311960314920
:104660005960196821F480211960DA600092019282
:104670001A6842F480321A601A46136803F4003351
:104680000193009B01330093019B1BB9009BB3F581
:10469000A06FF2D1224B1B6813F4003F14BF01231B
:1046A00000230193019B012B32D11D4B1A6C42F068
:1046B00080521A641C4A116841F4804111609A6862
:1046C0009A609A6842F400429A609A6842F4A05252
:1046D0009A60164A5A601A6842F080721A601A4646
:1046E000136813F0007FFBD040F20562104B1A6094
:1046F000A3F580639A6822F003029A609A6842F0F8
:1047000002029A601A46936803F00C03082BFAD150
:104710004FF00062014B9A6002B0704700ED00E07C
:104720000038024010300024007000401054400750
:10473000003C0240054B1B6813B9054A034B1A6045
:10474000024A136818441060184670479C0F0020F6
:10475000442001204FF0FF30704700BF4FF400535A
:104760004B600020704700BF012070470020704759
:10477000002070471046704710B584B0194C204691
:1047800002F0FCFE2046012102F0D6FF4FF6FF7337
:10479000013BFDD1134C2046002102F0CDFF124B0E
:1047A00000930023ADF804304BF6FF73ADF80630EC
:1047B0000A23ADF808304FF48063ADF80A304FF4A7
:1047C0008043ADF80C302046694602F009FF2046D0
:1047D000012102F0BFFF2046012102F06DFF04B06D
:1047E00010BD00BF00580040801A06002DE9F041BE
:1047F00080460F461646344D4FF400342846214675
:1048000002F0CAFF0028F9D12F48012102F062FF0F
:104810002D4D2E4C2846214602F0B0FF0028F9D03D
:1048200029488221002202F071FF274D284C28469A
:10483000214602F0A3FF0028F9D02348414602F0A8
:1048400097FF214D234C2846214602F097FF002870
:10485000F9D01D48012102F03DFF1B4D1B4C28469D
:10486000214602F08BFF0028F9D01748822101224F
:1048700002F04CFF144D184C2846214602F07EFFF2
:104880000028F9D0CEB1013F0F4C144D012E07D1B5
:104890002046002102F042FF2046012102F028FFBD
:1048A0002046294602F06AFF0028F9D0204602F08F
:1048B00061FF07F8010F013EE8D10348012102F032
:1048C0002DFFBDE8F08100BF00580040010003004B
:1048D000820007008400070002000300400003007C
:1048E000F8B507460E461B48012102F0F3FE194DAC
:1048F000194C2846214602F041FF0028F9D01548FE
:104900008221002202F002FF124D144C284621465B
:1049100002F034FF0028F9D00E48394602F028FF93
:104920000C4D0F4C2846214602F028FF0028F9D0F4
:104930000848314602F01CFF064D094C2846214626
:1049400002F01CFF0028F9D00248012102F0D0FE3D
:10495000F8BD00BF005800400100030082000700BE
:104960008400070008B503200221FFF7B9FF0420E7
:104970000146FFF7B5FF0A200321FFF7B1FF202012
:104980004921FFF7ADFF184B013BFDD1212001214B
:10499000FFF7A6FF17200021FFF7A2FF41209A2171
:1049A000FFF79EFF4A200121FFF79AFF4B200121CC
:1049B000FFF796FF4B200021FFF792FF56200721BB
:1049C000FFF78EFF58200121FFF78AFF40200321C7
:1049D000FFF786FF0B20FF21FFF782FF092003214D
:1049E000FFF77EFF08BD00BFFFFF0F0070B582B06C
:1049F000044600238DF807308DF804308DF8003020
:104A000040200DF107010122FFF7F0FE9DF907306C
:104A1000002B41DA4F2001A90222FFF7E7FE4D20CB
:104A200069460222FFF7E2FE9DF804609DF805301A
:104A300043EA06269DF800509DF8013043EA05251B
:104A40000B20FF21FFF74CFF4B200121FFF748FF10
:104A50004B200021FFF744FF22881A4B1A806288FE
:104A6000194B1A80A6F5E172C2EB02121201174B24
:104A700083FB0213D217C2EBA3126280A5F5167353
:104A800003EB83039B01124A82FB0312DB17C3EB88
:104A9000A2232380012012E00B4B1B886380094B6B
:104AA0001B8823800B20FF21FFF71AFF4B200121D9
:104AB000FFF716FF4B200021FFF712FF002002B086
:104AC00070BD00BFE80B0120EC0B0120F119760549
:104AD0001F85EB5100B583B000238DF807308DF8AA
:104AE00004308DF800300B200DF107010122FFF793
:104AF0007DFE9DF8073013F0020F20D001221E4BDF
:104B00001A704F2001A90222FFF770FE4D2069465E
:104B10000222FFF76BFE9DF804209DF8053043EA62
:104B20000222164B1A809DF800109DF8012042EADF
:104B300001225A80124B1A8801321A8007E013F0C2
:104B4000010F04D000230C4A13700D4A13800B2070
:104B5000FF21FFF7C5FE4B200121FFF7C1FE4B20CF
:104B60000021FFF7BDFE074B5A6942F020025A614F
:104B700003B05DF804FB00BFB4DD0020A00F0020EF
:104B8000B6DD0020003C01407F281CD921B942F24B
:104B9000AC03984207D111E0FF2813D880380A4BA4
:104BA00033F810007047084A012332F8021F81428F
:104BB00005D001339BB2802BF7D100E00023803376
:104BC000D8B270470020704784860208612809D057
:104BD00008490022013231F8023F4BB18342F9D13A
:104BE0000BB970470022044B03EB4202B2F8E0021B
:104BF000704700BF848702088486020830B585B0FC
:104C00000D461F4B18601F4C2046002105F0CCFBC1
:104C100020460121002205F0D5FB022D02D12923D7
:104C2000029304E0012D04BF4AF20F4302930223D2
:104C3000ADF804300023ADF80C30ADF80630114C5F
:104C4000204601A905F05EFB2046012105F0D2FBBC
:104C50002046012105F09AFB204601210A4605F075
:104C6000B1FB2046012105F09FFB054A1368002B8C
:104C7000FCD10448002105F097FB05B030BD00BF12
:104C8000AC0F00200004004070B584B00120014644
:104C9000FDF7B4FE4FF4C053029303238DF80D309B
:104CA00002268DF80C6000248DF80E408DF80F4020
:104CB000194D284602A9FFF7FBF928460B210A22C5
:104CC000FFF74AFA28460C210A22FFF745FA4FF46B
:104CD00080400121FDF7CAFE80200121FDF79CFEE6
:104CE0004FF00060214602F0DDFD4FF4A06002F0BD
:104CF00097FD1D238DF804308DF805408DF8064092
:104D000001248DF8074001A802F094FD30462146A9
:104D1000FDF79EFE04B070BD0000024000B583B0F8
:104D20004FF4C06002F07CFD43238DF80430012372
:104D30008DF8053003228DF806208DF8073001A884
:104D400002F078FD03B05DF804FB00BF08B5022156
:104D5000FFF754FF08BD00BF08B50121FFF74EFF64
:104D600008BD00BF08B50B48012105F037FB78B13D
:104D70000848012105F03EFB074B1B6823B1064B99
:104D80001A68013A1A6008BD0248002105F00CFBC0
:104D900008BD00BF00040040AC0F002090F8CC35E7
:104DA0000B7090F8CD354B7090F8CF2590F8CE353C
:104DB00003EB02234B8090F8D12590F8D03503EB1C
:104DC00002238B8090F8D32590F8D23503EB022391
:104DD0009BB2CB80C0F84031012380F8113170477D
:104DE00010B50446802102F02FFE2046002102F07B
:104DF0002BFE2046FBF752FE10BD00BF70B582B0FF
:104E000005460C464B78092B00F28781DFE813F04A
:104E10001A016D0185013201850193000A008501A7
:104E2000FD00B8006288130A013B062B6DD8DFE84D
:104E300003F00415226C6C646800D0F8EC351B6834
:104E400080780DF1060198470146E388402B03D096
:104E500095F81231012B5CD108235FE0D0F8E435DE
:104E60009B6A80780DF10601984701460223437042
:104E7000C5F8F0054DE0D2B2052A3AD8DFE802F0D5
:104E8000030C151E2730D0F8EC355B6880780DF1E7
:104E90000601984701463CE0D0F8EC359B688078E5
:104EA0000DF106019847014633E0D0F8EC35DB6898
:104EB00080780DF10601984701462AE0D0F8EC35DC
:104EC0001B6980780DF106019847014621E0D0F872
:104ED000EC355B6980780DF106019847014618E0D2
:104EE000D0F8EC359B6980780DF1060198470146B2
:104EF0000FE02146FFF774FF12E12146FFF770FF34
:104F00000EE12146FFF76CFF0AE12146FFF768FF3B
:104F100006E1BDF80630002B00F00281E288002A8D
:104F200000F0FE80934238BF1A46ADF806202846AE
:104F300004F0F0FFF4E0A388EBB9E388DBB9A678CE
:104F400006F07F0690F81231032B03D12146FFF7BC
:104F500047FFE5E080F81461314602F0C3FD2846C2
:104F600004F0FEFF1EB1022385F81231D8E00123C0
:104F700085F81231D4E028462146FFF731FFCFE013
:104F8000A378694A1370012B03D92146FFF728FF44
:104F9000C6E090F81221022A02D0032A10D030E095
:104FA0005BB180F81031032280F812211946FCF71A
:104FB00059FD284604F0D4FFB2E004F0D1FFAFE081
:104FC0005BB9022380F81231002180F81011FCF740
:104FD00055FD284604F0C4FFA2E090F810118B4262
:104FE0000CD0FCF74BFD504B197885F81011284672
:104FF000FCF738FD284604F0B3FF91E004F0B0FF61
:105000008EE02146FFF7ECFE8AE0E388012B03D017
:105010002146FFF7E5FE83E090F81231022B02D023
:10502000032B05D00AE04149012204F073FF77E029
:1050300005F58871012204F06DFF71E02146FFF74C
:10504000CFFE6DE090F81231023B012B0ED8012209
:10505000354B9A60D0F8183113B10322324B9A6065
:1050600028463349022204F055FF59E02146FFF754
:10507000B7FE55E06388012B0AD1C0F81831D0F88B
:10508000E4359B6821469847284604F069FF47E0CD
:10509000022B45D1A38813F0FF0F41D1026952685A
:1050A0001B0A013B042B17D8DFE803F003070B0FA3
:1050B0001300012363F306120EE0022363F30612CA
:1050C0000AE0032363F3061206E0042363F30612E7
:1050D00002E0052363F30612164B1A60012385F8DC
:1050E0001631284604F03CFF1AE090F81231023BDA
:1050F000012B0ED86388012B12D10023C0F8183180
:10510000D0F8E4359B6821469847284604F028FFEC
:1051100006E02146FFF764FE02E02146FFF760FE4D
:10512000002002B070BD00BFB00F0020B40F0020FF
:10513000B80F00202C09012038B504460D4690F820
:105140001231032B0FD10B79012B09D8D0F8E4359C
:105150009B689847EB8843B9204604F001FF04E0C0
:10516000FFF73EFE01E0FFF73BFE002038BD00BF29
:1051700038B505460C468A88D1B26378012B25D014
:10518000002B46D0032B7CD190F81231022B02D099
:10519000032B06D016E011F07F0F72D002F054FC02
:1051A0006FE0638823B911F07F0F01D002F04CFC4F
:1051B000D5F8E4359B68284621469847284604F0F0
:1051C000CFFE5EE02146FFF70BFE5AE090F8123169
:1051D000022B02D0032B06D017E011F07F0F50D026
:1051E00002F032FC4DE06388002B4AD111F07F0FB2
:1051F00007D002F049FCD5F8E4359B6828462146E3
:105200009847284604F0ACFE3BE02146FFF7E8FD56
:1052100037E090F81231022B02D0032B06D02DE09C
:1052200011F07F0F2DD002F00FFC2AE012F0800F5A
:1052300010D001F07F0101EB810100EBC10191F879
:105240001E311BB10122104BDA6011E000220E4B1F
:10525000DA600DE001EB810100EBC10191F87633DA
:105260001BB10122084BDA6002E00022064BDA6033
:1052700028460649022204F04DFE02E02146FFF7CF
:10528000AFFD002038BD00BFB00F0020BC0F0020D4
:1052900070B4064600B3037843B1044600230133DB
:1052A000DBB214F8015F002DF9D100E000235B00B0
:1052B000023313800B7003234B70327862B1304697
:1052C000022300255C1CE4B2CA540233DBB20D5544
:1052D00010F8012F002AF5D170BC704710B50446B4
:1052E000036C3BB903681BBB4068FEF78BFA0023D5
:1052F00063601DE06AB980681A461BF007FFA26868
:10530000236C1344A3606268934211D32368A360A3
:105310000EE0C0681A461BF0F9FE226C5242E368A8
:105320001344E36021688B4202D263681A44E2604E
:10533000A36B0133A36310BD38B5034605685DB1A7
:10534000026CC4681444C4604068844228BFDD60B5
:105350000846D9681BF0DAFE38BD00BF38B50446F0
:1053600000F0BEFCA36C002B11DD636A7BB104F17D
:10537000240501E0636A53B12846FEF77DF908B1C0
:10538000FEF7EAF9A36C013BA364002BF2DC4FF0BB
:10539000FF33A36400F0B0FC00F0A2FC636C002BB0
:1053A00011DD23697BB104F1100501E0236953B1DC
:1053B0002846FEF761F908B1FEF7CEF9636C013BB0
:1053C0006364002BF2DC4FF0FF33636400F094FC65
:1053D00038BD00BF38B50446012908D0456A0369C5
:1053E00003BBD5F1010538BF0025E5B100E001257B
:1053F0002368226CE16B01FB02F158186060002009
:10540000A063A3608A1A1344E3604FF0FF33636420
:10541000A36404F11000FFF7BFF804F12400FFF7C4
:10542000BBF800E00025284638BD00BFF8B50D46A2
:1054300017460646C8B1502004F0E0FE0446A8B165
:1054400005FB06F0013004F0D9FE206040B1E663B0
:10545000256420460121FFF7BDFF84F84D7005E06B
:10546000204604F02FFF002400E000242046F8BD71
:105470002DE9F04F85B004468A46019299460026F0
:105480004FF00108374600F02BFCA56BE06B85421E
:1054900012D2204651464A46FFF720FF636A3BB1CD
:1054A00004F12400FEF7E8F8012801D100F010FC17
:1054B00000F022FC012045E0019B1BB900F01CFC20
:1054C00000203FE01EB902A8FEF70CF9464600F0A6
:1054D00013FCFDF7FFFE00F003FC636CB3F1FF3F2C
:1054E00008BF6764A36CB3F1FF3F08BFA76400F077
:1054F00003FC02A801A9FEF7FFF8E8B900F0F0FBF1
:10550000D4F838B0E56B00F0F7FBAB450ED104F1F1
:1055100010000199FEF780F82046FFF71FFFFDF706
:1055200061FF0028AFD100F0D3FBACE72046FFF7C6
:1055300015FFFDF757FFA6E72046FFF70FFFFDF722
:1055400051FF002005B0BDE8F08F00BF70B50646E2
:10555000502004F053FE0446D8B100254560056094
:105560008560C56085630123C36305644FF0FF3325
:105570004364836480F84D601030FFF70DF804F148
:105580002400FFF709F8204629462A462B46FFF754
:105590006FFF204670BD00BF70B5044616464FF041
:1055A000BF0080F31188A56BE06B854215D22046C1
:1055B0001A46FFF793FEA36CB3F1FF3F09D1636A6C
:1055C0006BB104F12400FEF757F850B101233360AA
:1055D00008E00133A364012304E0002302E0012377
:1055E00000E001234FF0000080F31188184670BDE1
:1055F0002DE9F04784B0044689460192984600257B
:105600004FF0010A2E4600F06BFBA26B42B3E56837
:1056100020464946FFF790FEB8F1000F12D1A36B68
:10562000013BA363236813B9FEF79EF8606023690A
:1056300093B104F11000FEF71FF801280CD100F01F
:1056400047FB09E0E560636A33B104F12400FEF72B
:1056500013F808B100F03CFB00F04EFB01204BE0DA
:10566000019A1AB900F048FB002045E01DB902A8D4
:10567000FEF738F8554600F03FFBFDF72BFE00F033
:105680002FFB636CB3F1FF3F08BF6664A36CB3F1FB
:10569000FF3F08BFA66400F02FFB02A801A9FEF798
:1056A0002BF818BB00F01CFBA76B00F025FBBFB963
:1056B000236833B900F014FB6068FEF76BF800F064
:1056C0001BFB04F124000199FDF7A6FF2046FFF71C
:1056D00045FEFDF787FE002895D100F0F9FA92E724
:1056E0002046FFF73BFEFDF77DFE8CE72046FFF7E7
:1056F00035FEFDF777FE002004B0BDE8F08700BF5F
:1057000038B504460D4600F0EBFA636CB3F1FF3F89
:1057100004BF00236364A36CB3F1FF3F04BF002305
:10572000A36400F0E9FAA36B23B904F1240029462D
:10573000FDF790FF2046FFF711FE38BD2DE9F04F31
:1057400087B08146FAF7A8FE002800F05C82484640
:10575000FAF7B0FE8346002800F0568210F4002FBE
:1057600053D04846FBF786F9044600284BD04D46F7
:105770004F46002614F0010F40D05FFA86FA4846E3
:105780005146FBF77DF9804610F0010F23D04FF012
:1057900001086B6DC3F8088099F80330434508D1C0
:1057A0006B6D1A69C2F31202D7F87C339B1AC7F8E3
:1057B0008C336C4803681B6848465146984799F8F3
:1057C0000330012B07D136B999F81131052B02D1DD
:1057D0004846FBF763F918F0020F04D04FF00208B7
:1057E0006B6DC3F8088018F0080F07D05D48036898
:1057F0009B68484698476B6D08229A6001360435CD
:1058000028376408B6D1012000E000201BF4802F67
:1058100000F0BC804846FBF73BF90646002800F044
:10582000B4804F46CA464FF0000801230293CDF8DA
:1058300004B0CDF8009016F0010F00F09A805FFAE6
:1058400088F90098036919695C6B00EB8902926919
:10585000926824FA09F4E401E4B20C43144014F011
:10586000010F1CD05A6B012000FA08F122EA010254
:105870005A63029CBB6998603A4A13685B68009857
:10588000494698470098C378012B08D1B8F1000F1A
:1058900005D190F81131042B01D1FBF7FFF814F07A
:1058A000080F02D00824BB699C6014F0100F02D0CE
:1058B0001024BB699C6014F0400F02D04024BB69E7
:1058C0009C6014F0020F02D00224BB699C6014F0AB
:1058D000800F4ED05446DAF83021DAF83431D01A3D
:1058E000DAF82431BB46BA69916989B2984238BF67
:1058F00003460333B1EB930F37D9DAF83451DAF8B2
:105900003031AB4231D9002B2FD00396009E5D1B66
:10591000D4F82421AA4238BF15463046D4F82811BD
:105920004A46ABB2FAF774FCD4F828312B44C4F8D9
:105930002831D4F834312B44C4F83431DBF8183032
:105940009B6903359BB2B3EB950F09D9D4F8345159
:10595000D4F83031AB4207D9002BD8D1039E04E0F4
:10596000039E02E068000020039E8024DBF81830CC
:105970009C6008F1010804370AF1280A76087FF4D0
:105980005AAFDDF804B0DDF8009001201BF0020FE3
:1059900003D0D9F80C3002225A61BBF1000F1CDA97
:1059A00099F80A3043B1D9F80C316FF341036FF322
:1059B0000003D9F80C211360D9F810305A6822F08E
:1059C00001025A60924B1B689B6948469847D9F878
:1059D0000C304FF000425A6101201BF4006F34D0AC
:1059E00000238DF8173099F812318DF81730884B55
:1059F0001B685B6948469847D9F810309968D9F810
:105A00000C304FF400625A6199F80A30E3B111F09A
:105A1000010F19D099F81531012B15D19DF81730C8
:105A2000DBB2032B10D1D9F80C311A6842F0010215
:105A30001A60D9F80C311A6842F003021A60754BEB
:105A40001A6942F006021A6101201BF0080F09D002
:105A50006F4B1B68DB6848469847D9F80C30082222
:105A60005A6101201BF0100F38D0D9F80C309A6918
:105A700022F010029A61D9F80C301C6A04F00F036E
:105A800003EB830309EBC30505F55D75C4F34343DD
:105A9000022B02D0062B0FD019E0C4F30A14B4B1C4
:105AA0004846E9682246FAF7C9FBEB682344EB60F5
:105AB000AB692344AB610AE0484609F2CC510822A5
:105AC000FAF7BCFBC4F30A14AB692344AB61D9F801
:105AD0000C309A6942F010029A6101201BF4805F39
